{
  "_format": "hh-sol-artifact-1",
  "contractName": "XAOReferral",
  "sourceName": "contracts/XAOReferral.sol",
  "abi": [
    {
      "inputs": [
        {
          "internalType": "address",
          "name": "_xaoToken",
          "type": "address"
        }
      ],
      "stateMutability": "nonpayable",
      "type": "constructor"
    },
    {
      "anonymous": false,
      "inputs": [
        {
          "indexed": true,
          "internalType": "address",
          "name": "user",
          "type": "address"
        },
        {
          "indexed": false,
          "internalType": "uint256",
          "name": "newScore",
          "type": "uint256"
        },
        {
          "indexed": false,
          "internalType": "uint256",
          "name": "timestamp",
          "type": "uint256"
        }
      ],
      "name": "EngagementUpdated",
      "type": "event"
    },
    {
      "anonymous": false,
      "inputs": [
        {
          "indexed": true,
          "internalType": "address",
          "name": "previousOwner",
          "type": "address"
        },
        {
          "indexed": true,
          "internalType": "address",
          "name": "newOwner",
          "type": "address"
        }
      ],
      "name": "OwnershipTransferred",
      "type": "event"
    },
    {
      "anonymous": false,
      "inputs": [
        {
          "indexed": false,
          "internalType": "address",
          "name": "account",
          "type": "address"
        }
      ],
      "name": "Paused",
      "type": "event"
    },
    {
      "anonymous": false,
      "inputs": [
        {
          "indexed": true,
          "internalType": "address",
          "name": "user",
          "type": "address"
        },
        {
          "indexed": true,
          "internalType": "address",
          "name": "referrer",
          "type": "address"
        },
        {
          "indexed": false,
          "internalType": "bool",
          "name": "approved",
          "type": "bool"
        }
      ],
      "name": "ReferralApproved",
      "type": "event"
    },
    {
      "anonymous": false,
      "inputs": [
        {
          "indexed": true,
          "internalType": "address",
          "name": "user",
          "type": "address"
        },
        {
          "indexed": true,
          "internalType": "address",
          "name": "referrer",
          "type": "address"
        },
        {
          "indexed": false,
          "internalType": "uint256",
          "name": "timestamp",
          "type": "uint256"
        }
      ],
      "name": "ReferralRegistered",
      "type": "event"
    },
    {
      "anonymous": false,
      "inputs": [
        {
          "indexed": true,
          "internalType": "address",
          "name": "user",
          "type": "address"
        },
        {
          "indexed": true,
          "internalType": "address",
          "name": "referrer",
          "type": "address"
        },
        {
          "indexed": false,
          "internalType": "bool",
          "name": "verified",
          "type": "bool"
        },
        {
          "indexed": false,
          "internalType": "string",
          "name": "verificationData",
          "type": "string"
        }
      ],
      "name": "ReferralVerified",
      "type": "event"
    },
    {
      "anonymous": false,
      "inputs": [
        {
          "indexed": true,
          "internalType": "address",
          "name": "user",
          "type": "address"
        },
        {
          "indexed": true,
          "internalType": "address",
          "name": "referrer",
          "type": "address"
        },
        {
          "indexed": false,
          "internalType": "uint256",
          "name": "amount",
          "type": "uint256"
        }
      ],
      "name": "RewardClaimed",
      "type": "event"
    },
    {
      "anonymous": false,
      "inputs": [
        {
          "indexed": false,
          "internalType": "uint256",
          "name": "newReferralReward",
          "type": "uint256"
        },
        {
          "indexed": false,
          "internalType": "uint256",
          "name": "newEngagementMultiplier",
          "type": "uint256"
        }
      ],
      "name": "RewardParametersUpdated",
      "type": "event"
    },
    {
      "anonymous": false,
      "inputs": [
        {
          "indexed": false,
          "internalType": "address",
          "name": "account",
          "type": "address"
        }
      ],
      "name": "Unpaused",
      "type": "event"
    },
    {
      "inputs": [
        {
          "internalType": "address",
          "name": "user",
          "type": "address"
        },
        {
          "internalType": "bool",
          "name": "approved",
          "type": "bool"
        }
      ],
      "name": "approveReferral",
      "outputs": [],
      "stateMutability": "nonpayable",
      "type": "function"
    },
    {
      "inputs": [
        {
          "internalType": "address",
          "name": "user",
          "type": "address"
        }
      ],
      "name": "claimReferralReward",
      "outputs": [],
      "stateMutability": "nonpayable",
      "type": "function"
    },
    {
      "inputs": [],
      "name": "cooldownPeriod",
      "outputs": [
        {
          "internalType": "uint256",
          "name": "",
          "type": "uint256"
        }
      ],
      "stateMutability": "view",
      "type": "function"
    },
    {
      "inputs": [],
      "name": "engagementMultiplier",
      "outputs": [
        {
          "internalType": "uint256",
          "name": "",
          "type": "uint256"
        }
      ],
      "stateMutability": "view",
      "type": "function"
    },
    {
      "inputs": [
        {
          "internalType": "address",
          "name": "user",
          "type": "address"
        }
      ],
      "name": "getReferralData",
      "outputs": [
        {
          "internalType": "address",
          "name": "referrer",
          "type": "address"
        },
        {
          "internalType": "uint256",
          "name": "joinTimestamp",
          "type": "uint256"
        },
        {
          "internalType": "bool",
          "name": "hasClaimedReward",
          "type": "bool"
        },
        {
          "internalType": "uint256",
          "name": "engagementScore",
          "type": "uint256"
        },
        {
          "internalType": "bool",
          "name": "isVerified",
          "type": "bool"
        },
        {
          "internalType": "bool",
          "name": "isApproved",
          "type": "bool"
        },
        {
          "internalType": "string",
          "name": "verificationData",
          "type": "string"
        }
      ],
      "stateMutability": "view",
      "type": "function"
    },
    {
      "inputs": [
        {
          "internalType": "address",
          "name": "user",
          "type": "address"
        }
      ],
      "name": "getReferredUsers",
      "outputs": [
        {
          "internalType": "address[]",
          "name": "",
          "type": "address[]"
        }
      ],
      "stateMutability": "view",
      "type": "function"
    },
    {
      "inputs": [
        {
          "internalType": "address",
          "name": "user",
          "type": "address"
        }
      ],
      "name": "getReferrerCount",
      "outputs": [
        {
          "internalType": "uint256",
          "name": "",
          "type": "uint256"
        }
      ],
      "stateMutability": "view",
      "type": "function"
    },
    {
      "inputs": [
        {
          "internalType": "address",
          "name": "",
          "type": "address"
        }
      ],
      "name": "isRegistered",
      "outputs": [
        {
          "internalType": "bool",
          "name": "",
          "type": "bool"
        }
      ],
      "stateMutability": "view",
      "type": "function"
    },
    {
      "inputs": [],
      "name": "minimumEngagement",
      "outputs": [
        {
          "internalType": "uint256",
          "name": "",
          "type": "uint256"
        }
      ],
      "stateMutability": "view",
      "type": "function"
    },
    {
      "inputs": [],
      "name": "owner",
      "outputs": [
        {
          "internalType": "address",
          "name": "",
          "type": "address"
        }
      ],
      "stateMutability": "view",
      "type": "function"
    },
    {
      "inputs": [],
      "name": "pause",
      "outputs": [],
      "stateMutability": "nonpayable",
      "type": "function"
    },
    {
      "inputs": [],
      "name": "paused",
      "outputs": [
        {
          "internalType": "bool",
          "name": "",
          "type": "bool"
        }
      ],
      "stateMutability": "view",
      "type": "function"
    },
    {
      "inputs": [],
      "name": "referralReward",
      "outputs": [
        {
          "internalType": "uint256",
          "name": "",
          "type": "uint256"
        }
      ],
      "stateMutability": "view",
      "type": "function"
    },
    {
      "inputs": [
        {
          "internalType": "address",
          "name": "",
          "type": "address"
        }
      ],
      "name": "referrals",
      "outputs": [
        {
          "internalType": "address",
          "name": "referrer",
          "type": "address"
        },
        {
          "internalType": "uint256",
          "name": "joinTimestamp",
          "type": "uint256"
        },
        {
          "internalType": "bool",
          "name": "hasClaimedReward",
          "type": "bool"
        },
        {
          "internalType": "uint256",
          "name": "engagementScore",
          "type": "uint256"
        },
        {
          "internalType": "uint256",
          "name": "lastEngagementUpdate",
          "type": "uint256"
        },
        {
          "internalType": "bool",
          "name": "isVerified",
          "type": "bool"
        },
        {
          "internalType": "bool",
          "name": "isApproved",
          "type": "bool"
        },
        {
          "internalType": "string",
          "name": "verificationData",
          "type": "string"
        }
      ],
      "stateMutability": "view",
      "type": "function"
    },
    {
      "inputs": [
        {
          "internalType": "address",
          "name": "",
          "type": "address"
        },
        {
          "internalType": "uint256",
          "name": "",
          "type": "uint256"
        }
      ],
      "name": "referredUsers",
      "outputs": [
        {
          "internalType": "address",
          "name": "",
          "type": "address"
        }
      ],
      "stateMutability": "view",
      "type": "function"
    },
    {
      "inputs": [
        {
          "internalType": "address",
          "name": "referrer",
          "type": "address"
        },
        {
          "internalType": "string",
          "name": "verificationData",
          "type": "string"
        }
      ],
      "name": "register",
      "outputs": [],
      "stateMutability": "nonpayable",
      "type": "function"
    },
    {
      "inputs": [],
      "name": "renounceOwnership",
      "outputs": [],
      "stateMutability": "nonpayable",
      "type": "function"
    },
    {
      "inputs": [
        {
          "internalType": "address",
          "name": "newOwner",
          "type": "address"
        }
      ],
      "name": "transferOwnership",
      "outputs": [],
      "stateMutability": "nonpayable",
      "type": "function"
    },
    {
      "inputs": [],
      "name": "unpause",
      "outputs": [],
      "stateMutability": "nonpayable",
      "type": "function"
    },
    {
      "inputs": [
        {
          "internalType": "address",
          "name": "user",
          "type": "address"
        },
        {
          "internalType": "uint256",
          "name": "points",
          "type": "uint256"
        }
      ],
      "name": "updateEngagement",
      "outputs": [],
      "stateMutability": "nonpayable",
      "type": "function"
    },
    {
      "inputs": [
        {
          "internalType": "uint256",
          "name": "newReferralReward",
          "type": "uint256"
        },
        {
          "internalType": "uint256",
          "name": "newEngagementMultiplier",
          "type": "uint256"
        }
      ],
      "name": "updateRewardParameters",
      "outputs": [],
      "stateMutability": "nonpayable",
      "type": "function"
    },
    {
      "inputs": [
        {
          "internalType": "address",
          "name": "user",
          "type": "address"
        },
        {
          "internalType": "bool",
          "name": "verified",
          "type": "bool"
        },
        {
          "internalType": "string",
          "name": "verificationData",
          "type": "string"
        }
      ],
      "name": "updateVerificationStatus",
      "outputs": [],
      "stateMutability": "nonpayable",
      "type": "function"
    },
    {
      "inputs": [],
      "name": "xaoToken",
      "outputs": [
        {
          "internalType": "contract XAOToken",
          "name": "",
          "type": "address"
        }
      ],
      "stateMutability": "view",
      "type": "function"
    }
  ],
  "bytecode": "0x608060405234801561001057600080fd5b5060405162001a6d38038062001a6d8339810160408190526100319161013a565b61003a336100ea565b600180556002805460ff191690556001600160a01b0381166100a25760405162461bcd60e51b815260206004820152601560248201527f496e76616c696420746f6b656e20616464726573730000000000000000000000604482015260640160405180910390fd5b600280546001600160a01b0390921661010002610100600160a81b031990921691909117905568056bc75e2d631000006003556064600455600580556201518060065561016a565b600080546001600160a01b038381166001600160a01b0319831681178455604051919092169283917f8be0079c531659141344cd1fd0a4f28419497f9722a3daafe3b4186f6b6457e09190a35050565b60006020828403121561014c57600080fd5b81516001600160a01b038116811461016357600080fd5b9392505050565b6118f3806200017a6000396000f3fe608060405234801561001057600080fd5b506004361061014c5760003560e01c8063715018a6116100c3578063ab650e601161007c578063ab650e60146102d3578063becfbe08146102dc578063c3c5a547146102ef578063e1187b0214610312578063e92820e614610325578063f2fde38b1461033857600080fd5b8063715018a6146102355780637cb008c01461023d5780638456cb591461026d5780638da5cb5b146102755780639ca423b314610286578063a3674633146102ad57600080fd5b80634d683674116101155780634d683674146101b3578063551a1328146101bc5780635c975abb146101e557806361929d8a146101fc5780636358d44b1461020f5780636c9ecd641461022257600080fd5b8062fbde5f1461015157806304646a491461016d57806332434a2e1461017657806332e5b6d81461018b5780633f4ba83a146101ab575b600080fd5b61015a60045481565b6040519081526020015b60405180910390f35b61015a60065481565b610189610184366004611310565b61034b565b005b61019e610199366004611363565b610631565b604051610164919061137e565b6101896106a7565b61015a60035481565b61015a6101ca366004611363565b6001600160a01b031660009081526008602052604090205490565b60025460ff165b6040519015158152602001610164565b61018961020a366004611363565b6106b9565b61018961021d3660046113d9565b6109d1565b610189610230366004611410565b610ace565b610189610bab565b6002546102559061010090046001600160a01b031681565b6040516001600160a01b039091168152602001610164565b610189610bbd565b6000546001600160a01b0316610255565b610299610294366004611363565b610bcd565b604051610164989796959493929190611478565b6102c06102bb366004611363565b610cb0565b60405161016497969594939291906114d3565b61015a60055481565b6101896102ea366004611525565b610db6565b6101ec6102fd366004611363565b60096020526000908152604090205460ff1681565b610189610320366004611588565b610e82565b610255610333366004611588565b610faf565b610189610346366004611363565b610fe7565b61035361105d565b3360009081526009602052604090205460ff16156103ad5760405162461bcd60e51b8152602060048201526012602482015271105b1c9958591e481c9959da5cdd195c995960721b60448201526064015b60405180910390fd5b6001600160a01b03831633036103f95760405162461bcd60e51b815260206004820152601160248201527021b0b73737ba1039b2b63316b932b332b960791b60448201526064016103a4565b6001600160a01b038316158061042757506001600160a01b03831660009081526009602052604090205460ff165b6104665760405162461bcd60e51b815260206004820152601060248201526f24b73b30b634b2103932b332b93932b960811b60448201526064016103a4565b336000908152600960209081526040808320805460ff191660011790558051610100810182526001600160a01b03871681524281840181905281830185905260608201859052608082015260a0810184905260c08101939093528051601f850183900483028101830190915283815260e08301918590859081908401838280828437600092018290525093909452505033815260076020908152604091829020845181546001600160a01b0319166001600160a01b039091161781559084015160018201559083015160028201805460ff1916911515919091179055606083015160038201556080830151600482015560a083015160058201805460c086015161ffff1990911692151561ff001916929092176101009215159290920291909117905560e083015190915060068201906105a09082611651565b5050506001600160a01b038316156105eb576001600160a01b03831660009081526008602090815260408220805460018101825590835291200180546001600160a01b031916331790555b6040514281526001600160a01b0384169033907f90eab5d1df713df401d810f26aa9718d2b9e6894af1eb4890a332d3b185dc0e5906020015b60405180910390a3505050565b6001600160a01b03811660009081526008602090815260409182902080548351818402810184019094528084526060939283018282801561069b57602002820191906000526020600020905b81546001600160a01b0316815260019091019060200180831161067d575b50505050509050919050565b6106af6110a3565b6106b76110fd565b565b6106c161114f565b6106c961105d565b6001600160a01b038082166000908152600760205260409020805490911633146107285760405162461bcd60e51b815260206004820152601060248201526f2737ba103a3432903932b332b93932b960811b60448201526064016103a4565b600281015460ff16156107765760405162461bcd60e51b815260206004820152601660248201527514995dd85c9908185b1c9958591e4818db185a5b595960521b60448201526064016103a4565b600554816003015410156107cc5760405162461bcd60e51b815260206004820152601760248201527f496e73756666696369656e7420656e676167656d656e7400000000000000000060448201526064016103a4565b600581015460ff166108205760405162461bcd60e51b815260206004820152601b60248201527f526566657272616c206e6f74207665726966696564206279204149000000000060448201526064016103a4565b6005810154610100900460ff166108795760405162461bcd60e51b815260206004820152601c60248201527f526566657272616c206e6f7420617070726f7665642062792044414f0000000060448201526064016103a4565b6000600354905060006108a4606461089e8560030154856111a890919063ffffffff16565b906111bd565b905060006108b283836111c9565b6002858101805460ff191660011790555460405163a9059cbb60e01b8152336004820152602481018390529192506001600160a01b03610100909104169063a9059cbb906044016020604051808303816000875af1158015610918573d6000803e3d6000fd5b505050506040513d601f19601f8201168201806040525081019061093c9190611711565b6109815760405162461bcd60e51b815260206004820152601660248201527514995dd85c99081d1c985b9cd9995c8819985a5b195960521b60448201526064016103a4565b60405181815233906001600160a01b038716907f0aa4d283470c904c551d18bb894d37e17674920f3261a7f854be501e25f421b79060200160405180910390a3505050506109ce60018055565b50565b6109d96110a3565b6001600160a01b03821660009081526009602052604090205460ff16610a115760405162461bcd60e51b81526004016103a490611735565b6001600160a01b0382166000908152600760205260409020600581015460ff16610a725760405162461bcd60e51b81526020600482015260126024820152714e6f7420766572696669656420627920414960701b60448201526064016103a4565b6005810180548315156101000261ff001990911617905580546040516001600160a01b03918216918516907fcb3cd0155b110a5bb04ef5013ff40f25736f9cdc4b7c8379bc6128bdb474b5079061062490861515815260200190565b610ad66110a3565b60008211610b1e5760405162461bcd60e51b8152602060048201526015602482015274125b9d985b1a59081c995dd85c9908185b5bdd5b9d605a1b60448201526064016103a4565b6064811015610b645760405162461bcd60e51b815260206004820152601260248201527124b73b30b634b21036bab63a34b83634b2b960711b60448201526064016103a4565b6003829055600481905560408051838152602081018390527ff3a6ee10a78fb7d212e87d9be970fb16bd7324e9dc9c38d21cd7ecde781a1d2a910160405180910390a15050565b610bb36110a3565b6106b760006111d5565b610bc56110a3565b6106b7611225565b60076020526000908152604090208054600182015460028301546003840154600485015460058601546006870180546001600160a01b0390971697959660ff958616969495939483851694610100909404909316929190610c2d906115c8565b80601f0160208091040260200160405190810160405280929190818152602001828054610c59906115c8565b8015610ca65780601f10610c7b57610100808354040283529160200191610ca6565b820191906000526020600020905b815481529060010190602001808311610c8957829003601f168201915b5050505050905088565b6001600160a01b0380821660009081526007602052604081208054600182015460028301546003840154600585015460068601805497988998899889988998899860609893979290951695909460ff9081169483821693610100900490911691908190610d1c906115c8565b80601f0160208091040260200160405190810160405280929190818152602001828054610d48906115c8565b8015610d955780601f10610d6a57610100808354040283529160200191610d95565b820191906000526020600020905b815481529060010190602001808311610d7857829003601f168201915b50505050509050975097509750975097509750975050919395979092949650565b610dbe6110a3565b6001600160a01b03841660009081526009602052604090205460ff16610df65760405162461bcd60e51b81526004016103a490611735565b6001600160a01b038416600090815260076020526040902060058101805460ff191685151517905560068101610e2d838583611762565b5080546040516001600160a01b03918216918716907f04bf8fc2297a38d873f631f9f1154de28bfd6264ae46691300657717fb3cd29e90610e7390889088908890611823565b60405180910390a35050505050565b610e8a6110a3565b610e9261105d565b6001600160a01b03821660009081526009602052604090205460ff16610eca5760405162461bcd60e51b81526004016103a490611735565b6001600160a01b03821660009081526007602052604090206006546004820154610ef3916111c9565b421015610f425760405162461bcd60e51b815260206004820152601b60248201527f436f6f6c646f776e20706572696f64206e6f7420656c6170736564000000000060448201526064016103a4565b6003810154610f5190836111c9565b6003820181905542600483018190556040516001600160a01b038616927fd38182c91305f4d1dd1522f53ada81d82fb12618cab5c1652a279968a4a4208992610fa292918252602082015260400190565b60405180910390a2505050565b60086020528160005260406000208181548110610fcb57600080fd5b6000918252602090912001546001600160a01b03169150829050565b610fef6110a3565b6001600160a01b0381166110545760405162461bcd60e51b815260206004820152602660248201527f4f776e61626c653a206e6577206f776e657220697320746865207a65726f206160448201526564647265737360d01b60648201526084016103a4565b6109ce816111d5565b60025460ff16156106b75760405162461bcd60e51b815260206004820152601060248201526f14185d5cd8589b194e881c185d5cd95960821b60448201526064016103a4565b6000546001600160a01b031633146106b75760405162461bcd60e51b815260206004820181905260248201527f4f776e61626c653a2063616c6c6572206973206e6f7420746865206f776e657260448201526064016103a4565b611105611262565b6002805460ff191690557f5db9ee0a495bf2e6ff9c91a7834c1ba4fdd244a5e8aa4e537bd38aeae4b073aa335b6040516001600160a01b03909116815260200160405180910390a1565b6002600154036111a15760405162461bcd60e51b815260206004820152601f60248201527f5265656e7472616e637947756172643a207265656e7472616e742063616c6c0060448201526064016103a4565b6002600155565b60006111b48284611871565b90505b92915050565b60006111b48284611888565b60006111b482846118aa565b600080546001600160a01b038381166001600160a01b0319831681178455604051919092169283917f8be0079c531659141344cd1fd0a4f28419497f9722a3daafe3b4186f6b6457e09190a35050565b61122d61105d565b6002805460ff191660011790557f62e78cea01bee320cd4e420270b5ea74000d11b0c9f74754ebdbfc544b05a2586111323390565b60025460ff166106b75760405162461bcd60e51b815260206004820152601460248201527314185d5cd8589b194e881b9bdd081c185d5cd95960621b60448201526064016103a4565b80356001600160a01b03811681146112c257600080fd5b919050565b60008083601f8401126112d957600080fd5b50813567ffffffffffffffff8111156112f157600080fd5b60208301915083602082850101111561130957600080fd5b9250929050565b60008060006040848603121561132557600080fd5b61132e846112ab565b9250602084013567ffffffffffffffff81111561134a57600080fd5b611356868287016112c7565b9497909650939450505050565b60006020828403121561137557600080fd5b6111b4826112ab565b6020808252825182820181905260009190848201906040850190845b818110156113bf5783516001600160a01b03168352928401929184019160010161139a565b50909695505050505050565b80151581146109ce57600080fd5b600080604083850312156113ec57600080fd5b6113f5836112ab565b91506020830135611405816113cb565b809150509250929050565b6000806040838503121561142357600080fd5b50508035926020909101359150565b6000815180845260005b818110156114585760208185018101518683018201520161143c565b506000602082860101526020601f19601f83011685010191505092915050565b600061010060018060a01b038b168352896020840152881515604084015287606084015286608084015285151560a084015284151560c08401528060e08401526114c481840185611432565b9b9a5050505050505050505050565b60018060a01b03881681528660208201528515156040820152846060820152831515608082015282151560a082015260e060c0820152600061151860e0830184611432565b9998505050505050505050565b6000806000806060858703121561153b57600080fd5b611544856112ab565b93506020850135611554816113cb565b9250604085013567ffffffffffffffff81111561157057600080fd5b61157c878288016112c7565b95989497509550505050565b6000806040838503121561159b57600080fd5b6115a4836112ab565b946020939093013593505050565b634e487b7160e01b600052604160045260246000fd5b600181811c908216806115dc57607f821691505b6020821081036115fc57634e487b7160e01b600052602260045260246000fd5b50919050565b601f82111561164c57600081815260208120601f850160051c810160208610156116295750805b601f850160051c820191505b8181101561164857828155600101611635565b5050505b505050565b815167ffffffffffffffff81111561166b5761166b6115b2565b61167f8161167984546115c8565b84611602565b602080601f8311600181146116b4576000841561169c5750858301515b600019600386901b1c1916600185901b178555611648565b600085815260208120601f198616915b828110156116e3578886015182559484019460019091019084016116c4565b50858210156117015787850151600019600388901b60f8161c191681555b5050505050600190811b01905550565b60006020828403121561172357600080fd5b815161172e816113cb565b9392505050565b602080825260139082015272155cd95c881b9bdd081c9959da5cdd195c9959606a1b604082015260600190565b67ffffffffffffffff83111561177a5761177a6115b2565b61178e8361178883546115c8565b83611602565b6000601f8411600181146117c257600085156117aa5750838201355b600019600387901b1c1916600186901b17835561181c565b600083815260209020601f19861690835b828110156117f357868501358255602094850194600190920191016117d3565b50868210156118105760001960f88860031b161c19848701351681555b505060018560011b0183555b5050505050565b831515815260406020820152816040820152818360608301376000818301606090810191909152601f909201601f1916010192915050565b634e487b7160e01b600052601160045260246000fd5b80820281158282048414176111b7576111b761185b565b6000826118a557634e487b7160e01b600052601260045260246000fd5b500490565b808201808211156111b7576111b761185b56fea26469706673582212207c5518ba1641bcbcb873fc8e0a5791c5a110329b86f5d073599a999cf03266a264736f6c63430008130033",
  "linkReferences": {},
  "deployedLinkReferences": {}
}