{
  "_format": "hh-sol-artifact-1",
  "contractName": "EventTicketERC1155",
  "sourceName": "contracts/EventTicketERC1155.sol",
  "abi": [
    {
      "inputs": [
        {
          "internalType": "string",
          "name": "uri",
          "type": "string"
        },
        {
          "internalType": "address",
          "name": "_xaoReputation",
          "type": "address"
        }
      ],
      "stateMutability": "nonpayable",
      "type": "constructor"
    },
    {
      "anonymous": false,
      "inputs": [
        {
          "indexed": true,
          "internalType": "address",
          "name": "account",
          "type": "address"
        },
        {
          "indexed": true,
          "internalType": "address",
          "name": "operator",
          "type": "address"
        },
        {
          "indexed": false,
          "internalType": "bool",
          "name": "approved",
          "type": "bool"
        }
      ],
      "name": "ApprovalForAll",
      "type": "event"
    },
    {
      "anonymous": false,
      "inputs": [
        {
          "indexed": true,
          "internalType": "bytes32",
          "name": "role",
          "type": "bytes32"
        },
        {
          "indexed": true,
          "internalType": "bytes32",
          "name": "previousAdminRole",
          "type": "bytes32"
        },
        {
          "indexed": true,
          "internalType": "bytes32",
          "name": "newAdminRole",
          "type": "bytes32"
        }
      ],
      "name": "RoleAdminChanged",
      "type": "event"
    },
    {
      "anonymous": false,
      "inputs": [
        {
          "indexed": true,
          "internalType": "bytes32",
          "name": "role",
          "type": "bytes32"
        },
        {
          "indexed": true,
          "internalType": "address",
          "name": "account",
          "type": "address"
        },
        {
          "indexed": true,
          "internalType": "address",
          "name": "sender",
          "type": "address"
        }
      ],
      "name": "RoleGranted",
      "type": "event"
    },
    {
      "anonymous": false,
      "inputs": [
        {
          "indexed": true,
          "internalType": "bytes32",
          "name": "role",
          "type": "bytes32"
        },
        {
          "indexed": true,
          "internalType": "address",
          "name": "account",
          "type": "address"
        },
        {
          "indexed": true,
          "internalType": "address",
          "name": "sender",
          "type": "address"
        }
      ],
      "name": "RoleRevoked",
      "type": "event"
    },
    {
      "anonymous": false,
      "inputs": [
        {
          "indexed": true,
          "internalType": "uint256",
          "name": "tierId",
          "type": "uint256"
        },
        {
          "indexed": true,
          "internalType": "address",
          "name": "from",
          "type": "address"
        },
        {
          "indexed": true,
          "internalType": "address",
          "name": "to",
          "type": "address"
        },
        {
          "indexed": false,
          "internalType": "uint256",
          "name": "amount",
          "type": "uint256"
        }
      ],
      "name": "RoyaltyPaid",
      "type": "event"
    },
    {
      "anonymous": false,
      "inputs": [
        {
          "indexed": true,
          "internalType": "uint256",
          "name": "tierId",
          "type": "uint256"
        },
        {
          "indexed": true,
          "internalType": "address",
          "name": "to",
          "type": "address"
        },
        {
          "indexed": false,
          "internalType": "uint256",
          "name": "amount",
          "type": "uint256"
        }
      ],
      "name": "TicketsMinted",
      "type": "event"
    },
    {
      "anonymous": false,
      "inputs": [
        {
          "indexed": true,
          "internalType": "uint256",
          "name": "tierId",
          "type": "uint256"
        },
        {
          "indexed": false,
          "internalType": "string",
          "name": "name",
          "type": "string"
        },
        {
          "indexed": false,
          "internalType": "uint256",
          "name": "price",
          "type": "uint256"
        },
        {
          "indexed": false,
          "internalType": "uint256",
          "name": "maxSupply",
          "type": "uint256"
        }
      ],
      "name": "TierCreated",
      "type": "event"
    },
    {
      "anonymous": false,
      "inputs": [
        {
          "indexed": true,
          "internalType": "uint256",
          "name": "tierId",
          "type": "uint256"
        },
        {
          "indexed": false,
          "internalType": "bool",
          "name": "active",
          "type": "bool"
        }
      ],
      "name": "TierStatusUpdated",
      "type": "event"
    },
    {
      "anonymous": false,
      "inputs": [
        {
          "indexed": true,
          "internalType": "address",
          "name": "operator",
          "type": "address"
        },
        {
          "indexed": true,
          "internalType": "address",
          "name": "from",
          "type": "address"
        },
        {
          "indexed": true,
          "internalType": "address",
          "name": "to",
          "type": "address"
        },
        {
          "indexed": false,
          "internalType": "uint256[]",
          "name": "ids",
          "type": "uint256[]"
        },
        {
          "indexed": false,
          "internalType": "uint256[]",
          "name": "values",
          "type": "uint256[]"
        }
      ],
      "name": "TransferBatch",
      "type": "event"
    },
    {
      "anonymous": false,
      "inputs": [
        {
          "indexed": true,
          "internalType": "address",
          "name": "operator",
          "type": "address"
        },
        {
          "indexed": true,
          "internalType": "address",
          "name": "from",
          "type": "address"
        },
        {
          "indexed": true,
          "internalType": "address",
          "name": "to",
          "type": "address"
        },
        {
          "indexed": false,
          "internalType": "uint256",
          "name": "id",
          "type": "uint256"
        },
        {
          "indexed": false,
          "internalType": "uint256",
          "name": "value",
          "type": "uint256"
        }
      ],
      "name": "TransferSingle",
      "type": "event"
    },
    {
      "anonymous": false,
      "inputs": [
        {
          "indexed": false,
          "internalType": "string",
          "name": "value",
          "type": "string"
        },
        {
          "indexed": true,
          "internalType": "uint256",
          "name": "id",
          "type": "uint256"
        }
      ],
      "name": "URI",
      "type": "event"
    },
    {
      "inputs": [],
      "name": "DEFAULT_ADMIN_ROLE",
      "outputs": [
        {
          "internalType": "bytes32",
          "name": "",
          "type": "bytes32"
        }
      ],
      "stateMutability": "view",
      "type": "function"
    },
    {
      "inputs": [],
      "name": "MINTER_ROLE",
      "outputs": [
        {
          "internalType": "bytes32",
          "name": "",
          "type": "bytes32"
        }
      ],
      "stateMutability": "view",
      "type": "function"
    },
    {
      "inputs": [],
      "name": "ROYALTY_PERCENTAGE",
      "outputs": [
        {
          "internalType": "uint256",
          "name": "",
          "type": "uint256"
        }
      ],
      "stateMutability": "view",
      "type": "function"
    },
    {
      "inputs": [
        {
          "internalType": "address",
          "name": "account",
          "type": "address"
        },
        {
          "internalType": "uint256",
          "name": "id",
          "type": "uint256"
        }
      ],
      "name": "balanceOf",
      "outputs": [
        {
          "internalType": "uint256",
          "name": "",
          "type": "uint256"
        }
      ],
      "stateMutability": "view",
      "type": "function"
    },
    {
      "inputs": [
        {
          "internalType": "address[]",
          "name": "accounts",
          "type": "address[]"
        },
        {
          "internalType": "uint256[]",
          "name": "ids",
          "type": "uint256[]"
        }
      ],
      "name": "balanceOfBatch",
      "outputs": [
        {
          "internalType": "uint256[]",
          "name": "",
          "type": "uint256[]"
        }
      ],
      "stateMutability": "view",
      "type": "function"
    },
    {
      "inputs": [
        {
          "internalType": "uint256",
          "name": "tierId",
          "type": "uint256"
        },
        {
          "internalType": "uint256",
          "name": "salePrice",
          "type": "uint256"
        }
      ],
      "name": "calculateRoyalty",
      "outputs": [
        {
          "internalType": "uint256",
          "name": "",
          "type": "uint256"
        }
      ],
      "stateMutability": "view",
      "type": "function"
    },
    {
      "inputs": [
        {
          "internalType": "string",
          "name": "name",
          "type": "string"
        },
        {
          "internalType": "uint256",
          "name": "price",
          "type": "uint256"
        },
        {
          "internalType": "uint256",
          "name": "maxSupply",
          "type": "uint256"
        }
      ],
      "name": "createTier",
      "outputs": [
        {
          "internalType": "uint256",
          "name": "",
          "type": "uint256"
        }
      ],
      "stateMutability": "nonpayable",
      "type": "function"
    },
    {
      "inputs": [
        {
          "internalType": "bytes32",
          "name": "role",
          "type": "bytes32"
        }
      ],
      "name": "getRoleAdmin",
      "outputs": [
        {
          "internalType": "bytes32",
          "name": "",
          "type": "bytes32"
        }
      ],
      "stateMutability": "view",
      "type": "function"
    },
    {
      "inputs": [
        {
          "internalType": "uint256",
          "name": "tierId",
          "type": "uint256"
        }
      ],
      "name": "getTierInfo",
      "outputs": [
        {
          "components": [
            {
              "internalType": "uint256",
              "name": "price",
              "type": "uint256"
            },
            {
              "internalType": "uint256",
              "name": "maxSupply",
              "type": "uint256"
            },
            {
              "internalType": "uint256",
              "name": "currentSupply",
              "type": "uint256"
            },
            {
              "internalType": "string",
              "name": "name",
              "type": "string"
            },
            {
              "internalType": "bool",
              "name": "active",
              "type": "bool"
            }
          ],
          "internalType": "struct IEventTicketERC1155.TierInfo",
          "name": "",
          "type": "tuple"
        }
      ],
      "stateMutability": "view",
      "type": "function"
    },
    {
      "inputs": [
        {
          "internalType": "bytes32",
          "name": "role",
          "type": "bytes32"
        },
        {
          "internalType": "address",
          "name": "account",
          "type": "address"
        }
      ],
      "name": "grantRole",
      "outputs": [],
      "stateMutability": "nonpayable",
      "type": "function"
    },
    {
      "inputs": [
        {
          "internalType": "bytes32",
          "name": "role",
          "type": "bytes32"
        },
        {
          "internalType": "address",
          "name": "account",
          "type": "address"
        }
      ],
      "name": "hasRole",
      "outputs": [
        {
          "internalType": "bool",
          "name": "",
          "type": "bool"
        }
      ],
      "stateMutability": "view",
      "type": "function"
    },
    {
      "inputs": [
        {
          "internalType": "address",
          "name": "account",
          "type": "address"
        },
        {
          "internalType": "address",
          "name": "operator",
          "type": "address"
        }
      ],
      "name": "isApprovedForAll",
      "outputs": [
        {
          "internalType": "bool",
          "name": "",
          "type": "bool"
        }
      ],
      "stateMutability": "view",
      "type": "function"
    },
    {
      "inputs": [
        {
          "internalType": "address",
          "name": "to",
          "type": "address"
        },
        {
          "internalType": "uint256",
          "name": "tierId",
          "type": "uint256"
        },
        {
          "internalType": "uint256",
          "name": "amount",
          "type": "uint256"
        }
      ],
      "name": "mintTickets",
      "outputs": [],
      "stateMutability": "nonpayable",
      "type": "function"
    },
    {
      "inputs": [
        {
          "internalType": "bytes32",
          "name": "role",
          "type": "bytes32"
        },
        {
          "internalType": "address",
          "name": "account",
          "type": "address"
        }
      ],
      "name": "renounceRole",
      "outputs": [],
      "stateMutability": "nonpayable",
      "type": "function"
    },
    {
      "inputs": [
        {
          "internalType": "bytes32",
          "name": "role",
          "type": "bytes32"
        },
        {
          "internalType": "address",
          "name": "account",
          "type": "address"
        }
      ],
      "name": "revokeRole",
      "outputs": [],
      "stateMutability": "nonpayable",
      "type": "function"
    },
    {
      "inputs": [
        {
          "internalType": "address",
          "name": "from",
          "type": "address"
        },
        {
          "internalType": "address",
          "name": "to",
          "type": "address"
        },
        {
          "internalType": "uint256[]",
          "name": "ids",
          "type": "uint256[]"
        },
        {
          "internalType": "uint256[]",
          "name": "amounts",
          "type": "uint256[]"
        },
        {
          "internalType": "bytes",
          "name": "data",
          "type": "bytes"
        }
      ],
      "name": "safeBatchTransferFrom",
      "outputs": [],
      "stateMutability": "nonpayable",
      "type": "function"
    },
    {
      "inputs": [
        {
          "internalType": "address",
          "name": "from",
          "type": "address"
        },
        {
          "internalType": "address",
          "name": "to",
          "type": "address"
        },
        {
          "internalType": "uint256",
          "name": "id",
          "type": "uint256"
        },
        {
          "internalType": "uint256",
          "name": "amount",
          "type": "uint256"
        },
        {
          "internalType": "bytes",
          "name": "data",
          "type": "bytes"
        }
      ],
      "name": "safeTransferFrom",
      "outputs": [],
      "stateMutability": "nonpayable",
      "type": "function"
    },
    {
      "inputs": [
        {
          "internalType": "address",
          "name": "operator",
          "type": "address"
        },
        {
          "internalType": "bool",
          "name": "approved",
          "type": "bool"
        }
      ],
      "name": "setApprovalForAll",
      "outputs": [],
      "stateMutability": "nonpayable",
      "type": "function"
    },
    {
      "inputs": [
        {
          "internalType": "uint256",
          "name": "tierId",
          "type": "uint256"
        },
        {
          "internalType": "bool",
          "name": "active",
          "type": "bool"
        }
      ],
      "name": "setTierStatus",
      "outputs": [],
      "stateMutability": "nonpayable",
      "type": "function"
    },
    {
      "inputs": [
        {
          "internalType": "bytes4",
          "name": "interfaceId",
          "type": "bytes4"
        }
      ],
      "name": "supportsInterface",
      "outputs": [
        {
          "internalType": "bool",
          "name": "",
          "type": "bool"
        }
      ],
      "stateMutability": "view",
      "type": "function"
    },
    {
      "inputs": [
        {
          "internalType": "uint256",
          "name": "",
          "type": "uint256"
        }
      ],
      "name": "uri",
      "outputs": [
        {
          "internalType": "string",
          "name": "",
          "type": "string"
        }
      ],
      "stateMutability": "view",
      "type": "function"
    },
    {
      "inputs": [
        {
          "internalType": "address",
          "name": "from",
          "type": "address"
        },
        {
          "internalType": "address",
          "name": "to",
          "type": "address"
        },
        {
          "internalType": "uint256",
          "name": "tierId",
          "type": "uint256"
        },
        {
          "internalType": "uint256",
          "name": "amount",
          "type": "uint256"
        }
      ],
      "name": "validateTierTransfer",
      "outputs": [
        {
          "internalType": "bool",
          "name": "",
          "type": "bool"
        }
      ],
      "stateMutability": "view",
      "type": "function"
    },
    {
      "inputs": [],
      "name": "xaoReputation",
      "outputs": [
        {
          "internalType": "contract XAOReputation",
          "name": "",
          "type": "address"
        }
      ],
      "stateMutability": "view",
      "type": "function"
    }
  ],
  "bytecode": "0x60806040523480156200001157600080fd5b5060405162002bc838038062002bc8833981016040819052620000349162000194565b816200004081620000a2565b506001600455600680546001600160a01b0319166001600160a01b0383161790556200006e600033620000b4565b6200009a7f9f2df0fed2c77648de5860a4cc508cd0818c85b8b8a1ab4ceeef8d981c8956a633620000b4565b5050620003d7565b6002620000b082826200030b565b5050565b60008281526003602090815260408083206001600160a01b0385168452909152902054620000b0908390839060ff16620000b05760008281526003602090815260408083206001600160a01b03851684529091529020805460ff191660011790556200011d3390565b6001600160a01b0316816001600160a01b0316837f2f8788117e7eff1d82e926ec794901d17c78024a50270940304540a733656f0d60405160405180910390a45050565b634e487b7160e01b600052604160045260246000fd5b80516001600160a01b03811681146200018f57600080fd5b919050565b60008060408385031215620001a857600080fd5b82516001600160401b0380821115620001c057600080fd5b818501915085601f830112620001d557600080fd5b815181811115620001ea57620001ea62000161565b604051601f8201601f19908116603f0116810190838211818310171562000215576200021562000161565b816040528281526020935088848487010111156200023257600080fd5b600091505b8282101562000256578482018401518183018501529083019062000237565b60008484830101528096505050506200027181860162000177565b925050509250929050565b600181811c908216806200029157607f821691505b602082108103620002b257634e487b7160e01b600052602260045260246000fd5b50919050565b601f8211156200030657600081815260208120601f850160051c81016020861015620002e15750805b601f850160051c820191505b818110156200030257828155600101620002ed565b5050505b505050565b81516001600160401b0381111562000327576200032762000161565b6200033f816200033884546200027c565b84620002b8565b602080601f8311600181146200037757600084156200035e5750858301515b600019600386901b1c1916600185901b17855562000302565b600085815260208120601f198616915b82811015620003a85788860151825594840194600190910190840162000387565b5085821015620003c75787850151600019600388901b60f8161c191681555b5050505050600190811b01905550565b6127e180620003e76000396000f3fe608060405234801561001057600080fd5b506004361061014c5760003560e01c806391d14854116100c3578063d53913931161007c578063d5391393146102db578063d547741f14610302578063e577839914610315578063e985e9c514610340578063ea0ee0421461037c578063f242432a1461038f57600080fd5b806391d1485414610267578063a217fddf1461027a578063a22cb46514610282578063b0708a3514610295578063c543fe26146102a8578063cc9d7519146102bb57600080fd5b8063248a9ca311610115578063248a9ca3146101e25780632eb2c2d6146102055780632f2ff15d1461021857806336568abe1461022b578063463b08db1461023e5780634e1273f41461024757600080fd5b8062fdd58e1461015157806301ffc9a7146101775780630e89341c1461019a578063151b40de146101ba5780631ebb4fdc146101cd575b600080fd5b61016461015f366004611bee565b6103a2565b6040519081526020015b60405180910390f35b61018a610185366004611c2e565b61043b565b604051901515815260200161016e565b6101ad6101a8366004611c4b565b610460565b60405161016e9190611cb4565b6101646101c8366004611d68565b6104f4565b6101e06101db366004611dda565b6106de565b005b6101646101f0366004611c4b565b60009081526003602052604090206001015490565b6101e0610213366004611ebb565b610772565b6101e0610226366004611f65565b6107be565b6101e0610239366004611f65565b6107e8565b6101646101f481565b61025a610255366004611f88565b610866565b60405161016e919061208e565b61018a610275366004611f65565b610990565b610164600081565b6101e06102903660046120a1565b6109bb565b6101646102a33660046120cb565b6109c6565b6101e06102b63660046120ed565b610a14565b6102ce6102c9366004611c4b565b610be1565b60405161016e9190612120565b6101647f9f2df0fed2c77648de5860a4cc508cd0818c85b8b8a1ab4ceeef8d981c8956a681565b6101e0610310366004611f65565b610d28565b600654610328906001600160a01b031681565b6040516001600160a01b03909116815260200161016e565b61018a61034e366004612172565b6001600160a01b03918216600090815260016020908152604080832093909416825291909152205460ff1690565b61018a61038a36600461219c565b610d4d565b6101e061039d3660046121de565b610d66565b60006001600160a01b0383166104125760405162461bcd60e51b815260206004820152602a60248201527f455243313135353a2061646472657373207a65726f206973206e6f742061207660448201526930b634b21037bbb732b960b11b60648201526084015b60405180910390fd5b506000818152602081815260408083206001600160a01b03861684529091529020545b92915050565b60006001600160e01b03198216632c00772560e11b1480610435575061043582610dab565b60606002805461046f90612243565b80601f016020809104026020016040519081016040528092919081815260200182805461049b90612243565b80156104e85780601f106104bd576101008083540402835291602001916104e8565b820191906000526020600020905b8154815290600101906020018083116104cb57829003601f168201915b50505050509050919050565b60007f9f2df0fed2c77648de5860a4cc508cd0818c85b8b8a1ab4ceeef8d981c8956a661052081610dd0565b600085511161055e5760405162461bcd60e51b815260206004820152600a602482015269456d707479206e616d6560b01b6044820152606401610409565b6000841161059e5760405162461bcd60e51b815260206004820152600d60248201526c496e76616c696420707269636560981b6044820152606401610409565b600083116105df5760405162461bcd60e51b815260206004820152600e60248201526d496e76616c696420737570706c7960901b6044820152606401610409565b60006105ea60055490565b90506105fa600580546001019055565b6040805160a08101825286815260208082018781526000838501818152606085018c815260016080870181905288845260079095529590912084518155915192820192909255905160028201559151909190600382019061065b90826122c3565b50608091909101516004909101805491151560ff199092169190911790556000818152600960205260409081902080546001600160a01b031916331790555181907f0655289c4d9d7c45c2b83b18a45e3ce05f40710e413db2117ee045e2ab12cab2906106cd90899089908990612383565b60405180910390a295945050505050565b60006106e981610dd0565b6000838152600760205260409020600101546107175760405162461bcd60e51b8152600401610409906123a8565b600083815260076020908152604091829020600401805460ff1916851515908117909155915191825284917f2df1b71ce90a262ee59e0664d1738fc1066db1518d04b64cda13d23eccc8d214910160405180910390a2505050565b6001600160a01b03851633148061078e575061078e853361034e565b6107aa5760405162461bcd60e51b8152600401610409906123d5565b6107b78585858585610ddd565b5050505050565b6000828152600360205260409020600101546107d981610dd0565b6107e38383610fc8565b505050565b6001600160a01b03811633146108585760405162461bcd60e51b815260206004820152602f60248201527f416363657373436f6e74726f6c3a2063616e206f6e6c792072656e6f756e636560448201526e103937b632b9903337b91039b2b63360891b6064820152608401610409565b610862828261104e565b5050565b606081518351146108cb5760405162461bcd60e51b815260206004820152602960248201527f455243313135353a206163636f756e747320616e6420696473206c656e677468604482015268040dad2e6dac2e8c6d60bb1b6064820152608401610409565b6000835167ffffffffffffffff8111156108e7576108e7611cc7565b604051908082528060200260200182016040528015610910578160200160208202803683370190505b50905060005b84518110156109885761095b85828151811061093457610934612423565b602002602001015185838151811061094e5761094e612423565b60200260200101516103a2565b82828151811061096d5761096d612423565b60209081029190910101526109818161244f565b9050610916565b509392505050565b60009182526003602090815260408084206001600160a01b0393909316845291905290205460ff1690565b6108623383836110b5565b6000828152600760205260408120600101546109f45760405162461bcd60e51b8152600401610409906123a8565b612710610a036101f484612468565b610a0d919061247f565b9392505050565b7f9f2df0fed2c77648de5860a4cc508cd0818c85b8b8a1ab4ceeef8d981c8956a6610a3e81610dd0565b610a46611195565b6001600160a01b038416610a905760405162461bcd60e51b8152602060048201526011602482015270125b9d985b1a59081c9958da5c1a595b9d607a1b6044820152606401610409565b60008381526007602052604090206004015460ff16610ae35760405162461bcd60e51b815260206004820152600f60248201526e54696572206e6f742061637469766560881b6044820152606401610409565b60008381526007602052604090206001810154600290910154610b079084906124a1565b1115610b4a5760405162461bcd60e51b815260206004820152601260248201527145786365656473206d617820737570706c7960701b6044820152606401610409565b60008381526007602052604081206002018054849290610b6b9084906124a1565b92505081905550610b8d848484604051806020016040528060008152506111ee565b836001600160a01b0316837f99628da797e2c11d80deceac1e4f928199c64280994af3020fb9134e3c2d105484604051610bc991815260200190565b60405180910390a3610bdb6001600455565b50505050565b610c156040518060a00160405280600081526020016000815260200160008152602001606081526020016000151581525090565b600082815260076020526040902060010154610c435760405162461bcd60e51b8152600401610409906123a8565b600760008381526020019081526020016000206040518060a0016040529081600082015481526020016001820154815260200160028201548152602001600382018054610c8f90612243565b80601f0160208091040260200160405190810160405280929190818152602001828054610cbb90612243565b8015610d085780601f10610cdd57610100808354040283529160200191610d08565b820191906000526020600020905b815481529060010190602001808311610ceb57829003601f168201915b50505091835250506004919091015460ff16151560209091015292915050565b600082815260036020526040902060010154610d4381610dd0565b6107e3838361104e565b6000610d5b85858585611311565b90505b949350505050565b6001600160a01b038516331480610d825750610d82853361034e565b610d9e5760405162461bcd60e51b8152600401610409906123d5565b6107b785858585856113d7565b60006001600160e01b03198216637965db0b60e01b148061043557506104358261150f565b610dda813361155f565b50565b8151835114610e3f5760405162461bcd60e51b815260206004820152602860248201527f455243313135353a2069647320616e6420616d6f756e7473206c656e677468206044820152670dad2e6dac2e8c6d60c31b6064820152608401610409565b6001600160a01b038416610e655760405162461bcd60e51b8152600401610409906124b4565b33610e748187878787876115b8565b60005b8451811015610f5a576000858281518110610e9457610e94612423565b602002602001015190506000858381518110610eb257610eb2612423565b602090810291909101810151600084815280835260408082206001600160a01b038e168352909352919091205490915081811015610f025760405162461bcd60e51b8152600401610409906124f9565b6000838152602081815260408083206001600160a01b038e8116855292528083208585039055908b16825281208054849290610f3f9084906124a1565b9250508190555050505080610f539061244f565b9050610e77565b50846001600160a01b0316866001600160a01b0316826001600160a01b03167f4a39dc06d4c0dbc64b70af90fd698a233a518aa5d07e595d983b8c0526c8f7fb8787604051610faa929190612543565b60405180910390a4610fc08187878787876117c3565b505050505050565b610fd28282610990565b6108625760008281526003602090815260408083206001600160a01b03851684529091529020805460ff1916600117905561100a3390565b6001600160a01b0316816001600160a01b0316837f2f8788117e7eff1d82e926ec794901d17c78024a50270940304540a733656f0d60405160405180910390a45050565b6110588282610990565b156108625760008281526003602090815260408083206001600160a01b0385168085529252808320805460ff1916905551339285917ff6391f5c32d9c69d2a47ea670b442974b53935d1edc7fd64eb21e047a839171b9190a45050565b816001600160a01b0316836001600160a01b0316036111285760405162461bcd60e51b815260206004820152602960248201527f455243313135353a2073657474696e6720617070726f76616c20737461747573604482015268103337b91039b2b63360b91b6064820152608401610409565b6001600160a01b03838116600081815260016020908152604080832094871680845294825291829020805460ff191686151590811790915591519182527f17307eab39ab6107e8899845ad3d59bd9653f200f220920489ca2b5937696c31910160405180910390a3505050565b6002600454036111e75760405162461bcd60e51b815260206004820152601f60248201527f5265656e7472616e637947756172643a207265656e7472616e742063616c6c006044820152606401610409565b6002600455565b6001600160a01b03841661124e5760405162461bcd60e51b815260206004820152602160248201527f455243313135353a206d696e7420746f20746865207a65726f206164647265736044820152607360f81b6064820152608401610409565b33600061125a8561191e565b905060006112678561191e565b9050611278836000898585896115b8565b6000868152602081815260408083206001600160a01b038b168452909152812080548792906112a89084906124a1565b909155505060408051878152602081018790526001600160a01b03808a1692600092918716917fc3d58168c5ae7397731d063d5bbf3d657854427343f4c083240f7aacaa2d0f62910160405180910390a461130883600089898989611969565b50505050505050565b60006001600160a01b038516158061133057506001600160a01b038416155b1561133d57506000610d5e565b600083815260076020526040812060010154900361135d57506000610d5e565b6000838152600960205260409020546001600160a01b039081169086160361138757506001610d5e565b60008381526008602090815260408083206001600160a01b038916845290915290205460ff16156113ba57506001610d5e565b505060009081526007602052604090206004015460ff1692915050565b6001600160a01b0384166113fd5760405162461bcd60e51b8152600401610409906124b4565b3360006114098561191e565b905060006114168561191e565b90506114268389898585896115b8565b6000868152602081815260408083206001600160a01b038c168452909152902054858110156114675760405162461bcd60e51b8152600401610409906124f9565b6000878152602081815260408083206001600160a01b038d8116855292528083208985039055908a168252812080548892906114a49084906124a1565b909155505060408051888152602081018890526001600160a01b03808b16928c821692918816917fc3d58168c5ae7397731d063d5bbf3d657854427343f4c083240f7aacaa2d0f62910160405180910390a4611504848a8a8a8a8a611969565b505050505050505050565b60006001600160e01b03198216636cdb3d1360e11b148061154057506001600160e01b031982166303a24d0760e21b145b8061043557506301ffc9a760e01b6001600160e01b0319831614610435565b6115698282610990565b6108625761157681611a24565b611581836020611a36565b604051602001611592929190612571565b60408051601f198184030181529082905262461bcd60e51b825261040991600401611cb4565b6001600160a01b03851615610fc05760005b83518110156113085761161186868684815181106115ea576115ea612423565b602002602001015186858151811061160457611604612423565b6020026020010151611311565b6116545760405162461bcd60e51b8152602060048201526014602482015273151c985b9cd9995c881b9bdd08185b1b1bddd95960621b6044820152606401610409565b6009600085838151811061166a5761166a612423565b6020908102919091018101518252810191909152604001600020546001600160a01b038781169116146117b15760006127106101f4600760008886815181106116b5576116b5612423565b60200260200101518152602001908152602001600020600001548685815181106116e1576116e1612423565b60200260200101516116f39190612468565b6116fd9190612468565b611707919061247f565b90506009600086848151811061171f5761171f612423565b6020026020010151815260200190815260200160002060009054906101000a90046001600160a01b03166001600160a01b0316876001600160a01b031686848151811061176e5761176e612423565b60200260200101517ff3f83c9d88dc83497cc705129934b4aa146d32ecd677e6ed32c57009a077067e846040516117a791815260200190565b60405180910390a4505b806117bb8161244f565b9150506115ca565b6001600160a01b0384163b15610fc05760405163bc197c8160e01b81526001600160a01b0385169063bc197c819061180790899089908890889088906004016125e6565b6020604051808303816000875af1925050508015611842575060408051601f3d908101601f1916820190925261183f91810190612644565b60015b6118ee5761184e612661565b806308c379a003611887575061186261267d565b8061186d5750611889565b8060405162461bcd60e51b81526004016104099190611cb4565b505b60405162461bcd60e51b815260206004820152603460248201527f455243313135353a207472616e7366657220746f206e6f6e2d455243313135356044820152732932b1b2b4bb32b91034b6b83632b6b2b73a32b960611b6064820152608401610409565b6001600160e01b0319811663bc197c8160e01b146113085760405162461bcd60e51b815260040161040990612707565b6040805160018082528183019092526060916000919060208083019080368337019050509050828160008151811061195857611958612423565b602090810291909101015292915050565b6001600160a01b0384163b15610fc05760405163f23a6e6160e01b81526001600160a01b0385169063f23a6e61906119ad908990899088908890889060040161274f565b6020604051808303816000875af19250505080156119e8575060408051601f3d908101601f191682019092526119e591810190612644565b60015b6119f45761184e612661565b6001600160e01b0319811663f23a6e6160e01b146113085760405162461bcd60e51b815260040161040990612707565b60606104356001600160a01b03831660145b60606000611a45836002612468565b611a509060026124a1565b67ffffffffffffffff811115611a6857611a68611cc7565b6040519080825280601f01601f191660200182016040528015611a92576020820181803683370190505b509050600360fc1b81600081518110611aad57611aad612423565b60200101906001600160f81b031916908160001a905350600f60fb1b81600181518110611adc57611adc612423565b60200101906001600160f81b031916908160001a9053506000611b00846002612468565b611b0b9060016124a1565b90505b6001811115611b83576f181899199a1a9b1b9c1cb0b131b232b360811b85600f1660108110611b3f57611b3f612423565b1a60f81b828281518110611b5557611b55612423565b60200101906001600160f81b031916908160001a90535060049490941c93611b7c81612794565b9050611b0e565b508315610a0d5760405162461bcd60e51b815260206004820181905260248201527f537472696e67733a20686578206c656e67746820696e73756666696369656e746044820152606401610409565b80356001600160a01b0381168114611be957600080fd5b919050565b60008060408385031215611c0157600080fd5b611c0a83611bd2565b946020939093013593505050565b6001600160e01b031981168114610dda57600080fd5b600060208284031215611c4057600080fd5b8135610a0d81611c18565b600060208284031215611c5d57600080fd5b5035919050565b60005b83811015611c7f578181015183820152602001611c67565b50506000910152565b60008151808452611ca0816020860160208601611c64565b601f01601f19169290920160200192915050565b602081526000610a0d6020830184611c88565b634e487b7160e01b600052604160045260246000fd5b601f8201601f1916810167ffffffffffffffff81118282101715611d0357611d03611cc7565b6040525050565b600067ffffffffffffffff831115611d2457611d24611cc7565b604051611d3b601f8501601f191660200182611cdd565b809150838152848484011115611d5057600080fd5b83836020830137600060208583010152509392505050565b600080600060608486031215611d7d57600080fd5b833567ffffffffffffffff811115611d9457600080fd5b8401601f81018613611da557600080fd5b611db486823560208401611d0a565b9660208601359650604090950135949350505050565b80358015158114611be957600080fd5b60008060408385031215611ded57600080fd5b82359150611dfd60208401611dca565b90509250929050565b600067ffffffffffffffff821115611e2057611e20611cc7565b5060051b60200190565b600082601f830112611e3b57600080fd5b81356020611e4882611e06565b604051611e558282611cdd565b83815260059390931b8501820192828101915086841115611e7557600080fd5b8286015b84811015611e905780358352918301918301611e79565b509695505050505050565b600082601f830112611eac57600080fd5b610a0d83833560208501611d0a565b600080600080600060a08688031215611ed357600080fd5b611edc86611bd2565b9450611eea60208701611bd2565b9350604086013567ffffffffffffffff80821115611f0757600080fd5b611f1389838a01611e2a565b94506060880135915080821115611f2957600080fd5b611f3589838a01611e2a565b93506080880135915080821115611f4b57600080fd5b50611f5888828901611e9b565b9150509295509295909350565b60008060408385031215611f7857600080fd5b82359150611dfd60208401611bd2565b60008060408385031215611f9b57600080fd5b823567ffffffffffffffff80821115611fb357600080fd5b818501915085601f830112611fc757600080fd5b81356020611fd482611e06565b604051611fe18282611cdd565b83815260059390931b850182019282810191508984111561200157600080fd5b948201945b838610156120265761201786611bd2565b82529482019490820190612006565b9650508601359250508082111561203c57600080fd5b5061204985828601611e2a565b9150509250929050565b600081518084526020808501945080840160005b8381101561208357815187529582019590820190600101612067565b509495945050505050565b602081526000610a0d6020830184612053565b600080604083850312156120b457600080fd5b6120bd83611bd2565b9150611dfd60208401611dca565b600080604083850312156120de57600080fd5b50508035926020909101359150565b60008060006060848603121561210257600080fd5b61210b84611bd2565b95602085013595506040909401359392505050565b602081528151602082015260208201516040820152604082015160608201526000606083015160a0608084015261215a60c0840182611c88565b90506080840151151560a08401528091505092915050565b6000806040838503121561218557600080fd5b61218e83611bd2565b9150611dfd60208401611bd2565b600080600080608085870312156121b257600080fd5b6121bb85611bd2565b93506121c960208601611bd2565b93969395505050506040820135916060013590565b600080600080600060a086880312156121f657600080fd5b6121ff86611bd2565b945061220d60208701611bd2565b93506040860135925060608601359150608086013567ffffffffffffffff81111561223757600080fd5b611f5888828901611e9b565b600181811c9082168061225757607f821691505b60208210810361227757634e487b7160e01b600052602260045260246000fd5b50919050565b601f8211156107e357600081815260208120601f850160051c810160208610156122a45750805b601f850160051c820191505b81811015610fc0578281556001016122b0565b815167ffffffffffffffff8111156122dd576122dd611cc7565b6122f1816122eb8454612243565b8461227d565b602080601f831160018114612326576000841561230e5750858301515b600019600386901b1c1916600185901b178555610fc0565b600085815260208120601f198616915b8281101561235557888601518255948401946001909101908401612336565b50858210156123735787850151600019600388901b60f8161c191681555b5050505050600190811b01905550565b6060815260006123966060830186611c88565b60208301949094525060400152919050565b602080825260139082015272151a595c88191bd95cc81b9bdd08195e1a5cdd606a1b604082015260600190565b6020808252602e908201527f455243313135353a2063616c6c6572206973206e6f7420746f6b656e206f776e60408201526d195c881bdc88185c1c1c9bdd995960921b606082015260800190565b634e487b7160e01b600052603260045260246000fd5b634e487b7160e01b600052601160045260246000fd5b60006001820161246157612461612439565b5060010190565b808202811582820484141761043557610435612439565b60008261249c57634e487b7160e01b600052601260045260246000fd5b500490565b8082018082111561043557610435612439565b60208082526025908201527f455243313135353a207472616e7366657220746f20746865207a65726f206164604082015264647265737360d81b606082015260800190565b6020808252602a908201527f455243313135353a20696e73756666696369656e742062616c616e636520666f60408201526939103a3930b739b332b960b11b606082015260800190565b6040815260006125566040830185612053565b82810360208401526125688185612053565b95945050505050565b7f416363657373436f6e74726f6c3a206163636f756e74200000000000000000008152600083516125a9816017850160208801611c64565b7001034b99036b4b9b9b4b733903937b6329607d1b60179184019182015283516125da816028840160208801611c64565b01602801949350505050565b6001600160a01b0386811682528516602082015260a06040820181905260009061261290830186612053565b82810360608401526126248186612053565b905082810360808401526126388185611c88565b98975050505050505050565b60006020828403121561265657600080fd5b8151610a0d81611c18565b600060033d111561267a5760046000803e5060005160e01c5b90565b600060443d101561268b5790565b6040516003193d81016004833e81513d67ffffffffffffffff81602484011181841117156126bb57505050505090565b82850191508151818111156126d35750505050505090565b843d87010160208285010111156126ed5750505050505090565b6126fc60208286010187611cdd565b509095945050505050565b60208082526028908201527f455243313135353a204552433131353552656365697665722072656a656374656040820152676420746f6b656e7360c01b606082015260800190565b6001600160a01b03868116825285166020820152604081018490526060810183905260a06080820181905260009061278990830184611c88565b979650505050505050565b6000816127a3576127a3612439565b50600019019056fea264697066735822122063314d6e86fffc3982e3dec99388ee4ca57a4795990fab18b4fa5cfb907f15cb64736f6c63430008130033",
  "linkReferences": {},
  "deployedLinkReferences": {}
}