{
  "_format": "hh-sol-artifact-1",
  "contractName": "XAOMarketing",
  "sourceName": "contracts/XAOMarketing.sol",
  "abi": [
    {
      "inputs": [
        {
          "internalType": "address",
          "name": "_xaoToken",
          "type": "address"
        },
        {
          "internalType": "address",
          "name": "_xaoGovernance",
          "type": "address"
        },
        {
          "internalType": "uint256",
          "name": "_minApprovals",
          "type": "uint256"
        }
      ],
      "stateMutability": "nonpayable",
      "type": "constructor"
    },
    {
      "anonymous": false,
      "inputs": [
        {
          "indexed": true,
          "internalType": "uint256",
          "name": "disputeId",
          "type": "uint256"
        },
        {
          "indexed": false,
          "internalType": "bytes32",
          "name": "decisionIPFSHash",
          "type": "bytes32"
        },
        {
          "indexed": false,
          "internalType": "uint256",
          "name": "approvedAmount",
          "type": "uint256"
        }
      ],
      "name": "AIDecisionIssued",
      "type": "event"
    },
    {
      "anonymous": false,
      "inputs": [
        {
          "indexed": true,
          "internalType": "uint256",
          "name": "campaignId",
          "type": "uint256"
        }
      ],
      "name": "CampaignApproved",
      "type": "event"
    },
    {
      "anonymous": false,
      "inputs": [
        {
          "indexed": true,
          "internalType": "uint256",
          "name": "campaignId",
          "type": "uint256"
        },
        {
          "indexed": false,
          "internalType": "string",
          "name": "name",
          "type": "string"
        },
        {
          "indexed": false,
          "internalType": "uint256",
          "name": "budget",
          "type": "uint256"
        },
        {
          "indexed": false,
          "internalType": "uint256",
          "name": "startTime",
          "type": "uint256"
        },
        {
          "indexed": false,
          "internalType": "uint256",
          "name": "endTime",
          "type": "uint256"
        }
      ],
      "name": "CampaignCreated",
      "type": "event"
    },
    {
      "anonymous": false,
      "inputs": [
        {
          "indexed": true,
          "internalType": "uint256",
          "name": "disputeId",
          "type": "uint256"
        }
      ],
      "name": "DisputeAppealed",
      "type": "event"
    },
    {
      "anonymous": false,
      "inputs": [
        {
          "indexed": true,
          "internalType": "uint256",
          "name": "disputeId",
          "type": "uint256"
        },
        {
          "indexed": true,
          "internalType": "uint256",
          "name": "campaignId",
          "type": "uint256"
        },
        {
          "indexed": false,
          "internalType": "address",
          "name": "initiator",
          "type": "address"
        },
        {
          "indexed": false,
          "internalType": "uint256",
          "name": "requestedAmount",
          "type": "uint256"
        }
      ],
      "name": "DisputeFiled",
      "type": "event"
    },
    {
      "anonymous": false,
      "inputs": [
        {
          "indexed": true,
          "internalType": "uint256",
          "name": "disputeId",
          "type": "uint256"
        },
        {
          "indexed": false,
          "internalType": "uint256",
          "name": "finalAmount",
          "type": "uint256"
        }
      ],
      "name": "DisputeResolved",
      "type": "event"
    },
    {
      "anonymous": false,
      "inputs": [
        {
          "indexed": true,
          "internalType": "uint256",
          "name": "disputeId",
          "type": "uint256"
        },
        {
          "indexed": false,
          "internalType": "bytes32",
          "name": "evidenceIPFSHash",
          "type": "bytes32"
        }
      ],
      "name": "EvidenceSubmitted",
      "type": "event"
    },
    {
      "anonymous": false,
      "inputs": [
        {
          "indexed": true,
          "internalType": "address",
          "name": "previousOwner",
          "type": "address"
        },
        {
          "indexed": true,
          "internalType": "address",
          "name": "newOwner",
          "type": "address"
        }
      ],
      "name": "OwnershipTransferred",
      "type": "event"
    },
    {
      "anonymous": false,
      "inputs": [
        {
          "indexed": false,
          "internalType": "address",
          "name": "account",
          "type": "address"
        }
      ],
      "name": "Paused",
      "type": "event"
    },
    {
      "anonymous": false,
      "inputs": [
        {
          "indexed": true,
          "internalType": "uint256",
          "name": "campaignId",
          "type": "uint256"
        },
        {
          "indexed": true,
          "internalType": "address",
          "name": "recipient",
          "type": "address"
        },
        {
          "indexed": false,
          "internalType": "uint256",
          "name": "amount",
          "type": "uint256"
        }
      ],
      "name": "PayoutExecuted",
      "type": "event"
    },
    {
      "anonymous": false,
      "inputs": [
        {
          "indexed": false,
          "internalType": "address",
          "name": "account",
          "type": "address"
        }
      ],
      "name": "Unpaused",
      "type": "event"
    },
    {
      "inputs": [],
      "name": "APPEAL_PERIOD",
      "outputs": [
        {
          "internalType": "uint256",
          "name": "",
          "type": "uint256"
        }
      ],
      "stateMutability": "view",
      "type": "function"
    },
    {
      "inputs": [],
      "name": "EVIDENCE_PERIOD",
      "outputs": [
        {
          "internalType": "uint256",
          "name": "",
          "type": "uint256"
        }
      ],
      "stateMutability": "view",
      "type": "function"
    },
    {
      "inputs": [],
      "name": "TOTAL_DISPUTE_PERIOD",
      "outputs": [
        {
          "internalType": "uint256",
          "name": "",
          "type": "uint256"
        }
      ],
      "stateMutability": "view",
      "type": "function"
    },
    {
      "inputs": [
        {
          "internalType": "uint256",
          "name": "disputeId",
          "type": "uint256"
        }
      ],
      "name": "appealDecision",
      "outputs": [],
      "stateMutability": "nonpayable",
      "type": "function"
    },
    {
      "inputs": [
        {
          "internalType": "uint256",
          "name": "campaignId",
          "type": "uint256"
        }
      ],
      "name": "approveCampaign",
      "outputs": [],
      "stateMutability": "nonpayable",
      "type": "function"
    },
    {
      "inputs": [],
      "name": "campaignCount",
      "outputs": [
        {
          "internalType": "uint256",
          "name": "",
          "type": "uint256"
        }
      ],
      "stateMutability": "view",
      "type": "function"
    },
    {
      "inputs": [
        {
          "internalType": "uint256",
          "name": "",
          "type": "uint256"
        }
      ],
      "name": "campaignHasActiveDispute",
      "outputs": [
        {
          "internalType": "bool",
          "name": "",
          "type": "bool"
        }
      ],
      "stateMutability": "view",
      "type": "function"
    },
    {
      "inputs": [
        {
          "internalType": "uint256",
          "name": "",
          "type": "uint256"
        }
      ],
      "name": "campaigns",
      "outputs": [
        {
          "internalType": "string",
          "name": "name",
          "type": "string"
        },
        {
          "internalType": "uint256",
          "name": "budget",
          "type": "uint256"
        },
        {
          "internalType": "uint256",
          "name": "spent",
          "type": "uint256"
        },
        {
          "internalType": "uint256",
          "name": "startTime",
          "type": "uint256"
        },
        {
          "internalType": "uint256",
          "name": "endTime",
          "type": "uint256"
        },
        {
          "internalType": "bool",
          "name": "isActive",
          "type": "bool"
        },
        {
          "internalType": "bool",
          "name": "isApproved",
          "type": "bool"
        },
        {
          "internalType": "uint256",
          "name": "lastPayoutRequestTime",
          "type": "uint256"
        },
        {
          "internalType": "bool",
          "name": "inDispute",
          "type": "bool"
        }
      ],
      "stateMutability": "view",
      "type": "function"
    },
    {
      "inputs": [
        {
          "internalType": "string",
          "name": "name",
          "type": "string"
        },
        {
          "internalType": "uint256",
          "name": "budget",
          "type": "uint256"
        },
        {
          "internalType": "uint256",
          "name": "startTime",
          "type": "uint256"
        },
        {
          "internalType": "uint256",
          "name": "endTime",
          "type": "uint256"
        }
      ],
      "name": "createCampaign",
      "outputs": [],
      "stateMutability": "nonpayable",
      "type": "function"
    },
    {
      "inputs": [],
      "name": "disputeCount",
      "outputs": [
        {
          "internalType": "uint256",
          "name": "",
          "type": "uint256"
        }
      ],
      "stateMutability": "view",
      "type": "function"
    },
    {
      "inputs": [
        {
          "internalType": "uint256",
          "name": "",
          "type": "uint256"
        }
      ],
      "name": "disputes",
      "outputs": [
        {
          "internalType": "uint256",
          "name": "campaignId",
          "type": "uint256"
        },
        {
          "internalType": "address",
          "name": "initiator",
          "type": "address"
        },
        {
          "internalType": "uint256",
          "name": "requestedAmount",
          "type": "uint256"
        },
        {
          "internalType": "uint256",
          "name": "filingTime",
          "type": "uint256"
        },
        {
          "internalType": "bool",
          "name": "evidenceComplete",
          "type": "bool"
        },
        {
          "internalType": "bool",
          "name": "aiDecisionIssued",
          "type": "bool"
        },
        {
          "internalType": "bool",
          "name": "isAppealed",
          "type": "bool"
        },
        {
          "internalType": "bytes32",
          "name": "evidenceIPFSHash",
          "type": "bytes32"
        },
        {
          "internalType": "bytes32",
          "name": "aiDecisionIPFSHash",
          "type": "bytes32"
        },
        {
          "internalType": "uint256",
          "name": "approvedAmount",
          "type": "uint256"
        },
        {
          "internalType": "bool",
          "name": "isResolved",
          "type": "bool"
        }
      ],
      "stateMutability": "view",
      "type": "function"
    },
    {
      "inputs": [
        {
          "internalType": "uint256",
          "name": "disputeId",
          "type": "uint256"
        }
      ],
      "name": "executePayout",
      "outputs": [],
      "stateMutability": "nonpayable",
      "type": "function"
    },
    {
      "inputs": [
        {
          "internalType": "uint256",
          "name": "campaignId",
          "type": "uint256"
        }
      ],
      "name": "getCampaign",
      "outputs": [
        {
          "internalType": "string",
          "name": "name",
          "type": "string"
        },
        {
          "internalType": "uint256",
          "name": "budget",
          "type": "uint256"
        },
        {
          "internalType": "uint256",
          "name": "spent",
          "type": "uint256"
        },
        {
          "internalType": "uint256",
          "name": "startTime",
          "type": "uint256"
        },
        {
          "internalType": "uint256",
          "name": "endTime",
          "type": "uint256"
        },
        {
          "internalType": "bool",
          "name": "isActive",
          "type": "bool"
        },
        {
          "internalType": "bool",
          "name": "isApproved",
          "type": "bool"
        }
      ],
      "stateMutability": "view",
      "type": "function"
    },
    {
      "inputs": [
        {
          "internalType": "uint256",
          "name": "disputeId",
          "type": "uint256"
        }
      ],
      "name": "getDispute",
      "outputs": [
        {
          "internalType": "uint256",
          "name": "campaignId",
          "type": "uint256"
        },
        {
          "internalType": "address",
          "name": "initiator",
          "type": "address"
        },
        {
          "internalType": "uint256",
          "name": "requestedAmount",
          "type": "uint256"
        },
        {
          "internalType": "uint256",
          "name": "filingTime",
          "type": "uint256"
        },
        {
          "internalType": "bool",
          "name": "evidenceComplete",
          "type": "bool"
        },
        {
          "internalType": "bool",
          "name": "aiDecisionIssued",
          "type": "bool"
        },
        {
          "internalType": "bool",
          "name": "isAppealed",
          "type": "bool"
        },
        {
          "internalType": "bytes32",
          "name": "evidenceIPFSHash",
          "type": "bytes32"
        },
        {
          "internalType": "bytes32",
          "name": "aiDecisionIPFSHash",
          "type": "bytes32"
        },
        {
          "internalType": "uint256",
          "name": "approvedAmount",
          "type": "uint256"
        },
        {
          "internalType": "bool",
          "name": "isResolved",
          "type": "bool"
        }
      ],
      "stateMutability": "view",
      "type": "function"
    },
    {
      "inputs": [
        {
          "internalType": "uint256",
          "name": "amount",
          "type": "uint256"
        }
      ],
      "name": "initializeBudget",
      "outputs": [],
      "stateMutability": "nonpayable",
      "type": "function"
    },
    {
      "inputs": [],
      "name": "minApprovals",
      "outputs": [
        {
          "internalType": "uint256",
          "name": "",
          "type": "uint256"
        }
      ],
      "stateMutability": "view",
      "type": "function"
    },
    {
      "inputs": [],
      "name": "owner",
      "outputs": [
        {
          "internalType": "address",
          "name": "",
          "type": "address"
        }
      ],
      "stateMutability": "view",
      "type": "function"
    },
    {
      "inputs": [],
      "name": "pause",
      "outputs": [],
      "stateMutability": "nonpayable",
      "type": "function"
    },
    {
      "inputs": [],
      "name": "paused",
      "outputs": [
        {
          "internalType": "bool",
          "name": "",
          "type": "bool"
        }
      ],
      "stateMutability": "view",
      "type": "function"
    },
    {
      "inputs": [],
      "name": "renounceOwnership",
      "outputs": [],
      "stateMutability": "nonpayable",
      "type": "function"
    },
    {
      "inputs": [
        {
          "internalType": "uint256",
          "name": "campaignId",
          "type": "uint256"
        },
        {
          "internalType": "uint256",
          "name": "amount",
          "type": "uint256"
        }
      ],
      "name": "requestPayout",
      "outputs": [],
      "stateMutability": "nonpayable",
      "type": "function"
    },
    {
      "inputs": [],
      "name": "spentBudget",
      "outputs": [
        {
          "internalType": "uint256",
          "name": "",
          "type": "uint256"
        }
      ],
      "stateMutability": "view",
      "type": "function"
    },
    {
      "inputs": [
        {
          "internalType": "uint256",
          "name": "disputeId",
          "type": "uint256"
        },
        {
          "internalType": "bytes32",
          "name": "decisionHash",
          "type": "bytes32"
        },
        {
          "internalType": "uint256",
          "name": "approvedAmount",
          "type": "uint256"
        }
      ],
      "name": "submitAIDecision",
      "outputs": [],
      "stateMutability": "nonpayable",
      "type": "function"
    },
    {
      "inputs": [
        {
          "internalType": "uint256",
          "name": "disputeId",
          "type": "uint256"
        },
        {
          "internalType": "bytes32",
          "name": "evidenceHash",
          "type": "bytes32"
        }
      ],
      "name": "submitEvidence",
      "outputs": [],
      "stateMutability": "nonpayable",
      "type": "function"
    },
    {
      "inputs": [],
      "name": "totalBudget",
      "outputs": [
        {
          "internalType": "uint256",
          "name": "",
          "type": "uint256"
        }
      ],
      "stateMutability": "view",
      "type": "function"
    },
    {
      "inputs": [
        {
          "internalType": "address",
          "name": "newOwner",
          "type": "address"
        }
      ],
      "name": "transferOwnership",
      "outputs": [],
      "stateMutability": "nonpayable",
      "type": "function"
    },
    {
      "inputs": [],
      "name": "unpause",
      "outputs": [],
      "stateMutability": "nonpayable",
      "type": "function"
    },
    {
      "inputs": [],
      "name": "xaoGovernance",
      "outputs": [
        {
          "internalType": "contract XAOGovernance",
          "name": "",
          "type": "address"
        }
      ],
      "stateMutability": "view",
      "type": "function"
    },
    {
      "inputs": [],
      "name": "xaoToken",
      "outputs": [
        {
          "internalType": "contract XAOToken",
          "name": "",
          "type": "address"
        }
      ],
      "stateMutability": "view",
      "type": "function"
    }
  ],
  "bytecode": "0x60806040523480156200001157600080fd5b506040516200214438038062002144833981016040819052620000349162000203565b6200003f3362000196565b600180556002805460ff191690556001600160a01b038316620000a95760405162461bcd60e51b815260206004820152601560248201527f496e76616c696420746f6b656e2061646472657373000000000000000000000060448201526064015b60405180910390fd5b6001600160a01b038216620001015760405162461bcd60e51b815260206004820152601a60248201527f496e76616c696420676f7665726e616e636520616464726573730000000000006044820152606401620000a0565b60008111620001535760405162461bcd60e51b815260206004820152601560248201527f496e76616c6964206d696e20617070726f76616c7300000000000000000000006044820152606401620000a0565b60028054610100600160a81b0319166101006001600160a01b0395861602179055600380546001600160a01b031916929093169190911790915560045562000244565b600080546001600160a01b038381166001600160a01b0319831681178455604051919092169283917f8be0079c531659141344cd1fd0a4f28419497f9722a3daafe3b4186f6b6457e09190a35050565b80516001600160a01b0381168114620001fe57600080fd5b919050565b6000806000606084860312156200021957600080fd5b6200022484620001e6565b92506200023460208501620001e6565b9150604084015190509250925092565b611ef080620002546000396000f3fe608060405234801561001057600080fd5b50600436106101cf5760003560e01c80638a5714a111610104578063c78da39a116100a2578063ee4e1b5311610071578063ee4e1b531461047e578063f2fde38b14610491578063f7c0dbe8146104a4578063f936a14c146104b757600080fd5b8063c78da39a14610446578063d50ddeff1461044f578063d830970614610462578063e3a96cbd1461046b57600080fd5b8063a28889e1116100de578063a28889e114610417578063b5a898ae14610420578063b724f1fa14610433578063bb4f58d61461043d57600080fd5b80638a5714a1146103e05780638da5cb5b146103f3578063912da4db1461040457600080fd5b8063564a565d11610171578063727109a21161014b578063727109a21461038c5780637274e30d1461039f5780637cb008c0146103a85780638456cb59146103d857600080fd5b8063564a565d146102a25780635c975abb14610379578063715018a61461038457600080fd5b806321814f90116101ad57806321814f901461024c57806329d0695d146102615780633f4ba83a146102745780635598f8cc1461027c57600080fd5b806310be912e146101d4578063141961bc1461020c5780631b4ee53914610234575b600080fd5b6101f76101e2366004611a25565b600b6020526000908152604090205460ff1681565b60405190151581526020015b60405180910390f35b61021f61021a366004611a25565b6104c1565b60405161020399989796959493929190611a84565b61023e6202a30081565b604051908152602001610203565b61025f61025a366004611a25565b61059a565b005b61025f61026f366004611a25565b6109ac565b61025f610b09565b61028f61028a366004611a25565b610b1b565b6040516102039796959493929190611adc565b61031a6102b0366004611a25565b600a6020526000908152604090208054600182015460028301546003840154600485015460058601546006870154600788015460089098015496976001600160a01b03909616969495939460ff80851695610100860482169562010000900482169493929091168b565b604080519b8c526001600160a01b03909a1660208c0152988a01979097526060890195909552921515608088015290151560a0870152151560c086015260e0850152610100840152610120830152151561014082015261016001610203565b60025460ff166101f7565b61025f610c29565b61025f61039a366004611a25565b610c3b565b61023e60055481565b6002546103c09061010090046001600160a01b031681565b6040516001600160a01b039091168152602001610203565b61025f610dbb565b6003546103c0906001600160a01b031681565b6000546001600160a01b03166103c0565b61025f610412366004611b24565b610dcb565b61023e60085481565b61025f61042e366004611b46565b610f09565b61023e62093a8081565b61023e60075481565b61023e60065481565b61025f61045d366004611bce565b6110f0565b61023e60045481565b61031a610479366004611a25565b611282565b61025f61048c366004611a25565b61132b565b61025f61049f366004611bfa565b6113f0565b61025f6104b2366004611b24565b611466565b61023e6206978081565b6009602052600090815260409020805481906104dc90611c2a565b80601f016020809104026020016040519081016040528092919081815260200182805461050890611c2a565b80156105555780601f1061052a57610100808354040283529160200191610555565b820191906000526020600020905b81548152906001019060200180831161053857829003601f168201915b505050600184015460028501546003860154600487015460058801546006890154600790990154979894979396509194509260ff808316936101009093048116921689565b6105a2611804565b6105aa61185d565b60085481106105d45760405162461bcd60e51b81526004016105cb90611c64565b60405180910390fd5b6000818152600a602052604090206004810154610100900460ff166106305760405162461bcd60e51b8152602060048201526012602482015271139bc8191958da5cda5bdb881a5cdcdd595960721b60448201526064016105cb565b600881015460ff16156106785760405162461bcd60e51b815260206004820152601060248201526f105b1c9958591e481c995cdbdb1d995960821b60448201526064016105cb565b62093a80816003015461068b9190611ca3565b4211806106b757506004810154610100900460ff1680156106b75750600481015462010000900460ff16155b6107035760405162461bcd60e51b815260206004820152601860248201527f4469737075746520706572696f64206e6f7420656e646564000000000000000060448201526064016105cb565b80546000908152600960205260409020600581015460ff1661075d5760405162461bcd60e51b815260206004820152601360248201527243616d706169676e206e6f742061637469766560681b60448201526064016105cb565b806002015481600101546107719190611cbc565b826007015411156107c45760405162461bcd60e51b815260206004820152601760248201527f457863656564732063616d706169676e2062756467657400000000000000000060448201526064016105cb565b81600701548160020160008282546107dc9190611ca3565b925050819055508160070154600760008282546107f99190611ca3565b9091555050600882018054600160ff199182168117909255600783810180548316905584546000908152600b60205260409081902080549093169092556002549285015490850154915163a9059cbb60e01b81526001600160a01b03918216600482015260248101929092526101009092049091169063a9059cbb906044016020604051808303816000875af1158015610897573d6000803e3d6000fd5b505050506040513d601f19601f820116820180604052508101906108bb9190611ccf565b6108f95760405162461bcd60e51b815260206004820152600f60248201526e151c985b9cd9995c8819985a5b1959608a1b60448201526064016105cb565b6001820154825460078401546040519081526001600160a01b03909216917fbeaa99d72a600712e4656a7da04b2cabe31fb50fbf8f5b5f96513b0a4f495c1a9060200160405180910390a3827fb4121f1f91a696a3fc75f6d151f3c9865abffa0738bda595e71c381c02af2faa836007015460405161097a91815260200190565b60405180910390a2806001015481600201541061099e5760058101805460ff191690555b50506109a960018055565b50565b6109b46118a3565b60065415610a045760405162461bcd60e51b815260206004820152601a60248201527f42756467657420616c726561647920696e697469616c697a656400000000000060448201526064016105cb565b60008111610a455760405162461bcd60e51b815260206004820152600e60248201526d125b9d985b1a5908185b5bdd5b9d60921b60448201526064016105cb565b6002546040516370a0823160e01b8152306004820152829161010090046001600160a01b0316906370a0823190602401602060405180830381865afa158015610a92573d6000803e3d6000fd5b505050506040513d601f19601f82011682018060405250810190610ab69190611cf1565b1015610b045760405162461bcd60e51b815260206004820152601a60248201527f496e73756666696369656e7420746f6b656e2062616c616e636500000000000060448201526064016105cb565b600655565b610b116118a3565b610b196118fd565b565b60606000806000806000806005548810610b475760405162461bcd60e51b81526004016105cb90611d0a565b600088815260096020526040902060018101546002820154600383015460048401546005850154855486959493929160ff8082169261010090920416908790610b8f90611c2a565b80601f0160208091040260200160405190810160405280929190818152602001828054610bbb90611c2a565b8015610c085780601f10610bdd57610100808354040283529160200191610c08565b820191906000526020600020905b815481529060010190602001808311610beb57829003601f168201915b50505050509650975097509750975097509750975050919395979092949650565b610c316118a3565b610b19600061194f565b610c4361185d565b6008548110610c645760405162461bcd60e51b81526004016105cb90611c64565b6000818152600a602052604090206004810154610100900460ff16610cc35760405162461bcd60e51b8152602060048201526015602482015274139bc8191958da5cda5bdb881d1bc8185c1c19585b605a1b60448201526064016105cb565b600481015462010000900460ff1615610d115760405162461bcd60e51b815260206004820152601060248201526f105b1c9958591e48185c1c19585b195960821b60448201526064016105cb565b6202a300620697808260030154610d289190611ca3565b610d329190611ca3565b421115610d795760405162461bcd60e51b8152602060048201526015602482015274105c1c19585b081c195c9a5bd908195e1c1a5c9959605a1b60448201526064016105cb565b60048101805462ff000019166201000017905560405182907f5248e33a3d6301d795ae0f1f14c75a6221fb485be1b0f75c7aa170166aa07d3290600090a25050565b610dc36118a3565b610b1961199f565b610dd361185d565b6008548210610df45760405162461bcd60e51b81526004016105cb90611c64565b6000828152600a60205260409020600481015460ff1615610e505760405162461bcd60e51b8152602060048201526016602482015275115d9a59195b98d9481c195c9a5bd90818db1bdcd95960521b60448201526064016105cb565b620697808160030154610e639190611ca3565b421115610eb25760405162461bcd60e51b815260206004820152601760248201527f45766964656e636520706572696f64206578706972656400000000000000000060448201526064016105cb565b6005810182905560048101805460ff1916600117905560405183907fd847af553122a3041cc98b9542740207b3cd214800ac5027778cc727f9384f8090610efc9085815260200190565b60405180910390a2505050565b610f116118a3565b610f1961185d565b83610f535760405162461bcd60e51b815260206004820152600a602482015269456d707479206e616d6560b01b60448201526064016105cb565b60008311610f945760405162461bcd60e51b815260206004820152600e60248201526d125b9d985b1a5908189d5919d95d60921b60448201526064016105cb565b600754600654610fa49190611cbc565b831115610fe95760405162461bcd60e51b8152602060048201526013602482015272125b9cdd59999a58da595b9d08189d5919d95d606a1b60448201526064016105cb565b428210158015610ff857508181115b6110385760405162461bcd60e51b8152602060048201526011602482015270496e76616c69642074696d656672616d6560781b60448201526064016105cb565b600554600081815260096020526040902080611055878983611d99565b506001810185905560038101849055600481018390556005808201805461ffff191690556000600283018190556006830181905560078301805460ff19169055815491906110a283611e5a565b9190505550817f3a495479e40f7ba7d7f6395edf32b142dc0c2dc52ee9bc5aae0dd2541321074c88888888886040516110df959493929190611e73565b60405180910390a250505050505050565b6110f86118a3565b61110061185d565b60085483106111215760405162461bcd60e51b81526004016105cb90611c64565b6000838152600a60205260409020600481015460ff1661117b5760405162461bcd60e51b815260206004820152601560248201527445766964656e6365206e6f7420636f6d706c65746560581b60448201526064016105cb565b6004810154610100900460ff16156111d55760405162461bcd60e51b815260206004820152601760248201527f4465636973696f6e20616c72656164792069737375656400000000000000000060448201526064016105cb565b80600201548211156112225760405162461bcd60e51b8152602060048201526016602482015275105b5bdd5b9d08195e18d959591cc81c995c5d595cdd60521b60448201526064016105cb565b600681018390556007810182905560048101805461ff001916610100179055604080518481526020810184905285917f3cf20475b6073bc109b382c8db709b7da0a7a6b24d05d23161555e1a55fa1b67910160405180910390a250505050565b60008060008060008060008060008060006008548c106112b45760405162461bcd60e51b81526004016105cb90611c64565b50505060009889525050600a6020525050604090942080546001820154600283015460038401546004850154600586015460068701546007880154600890980154969c6001600160a01b039096169b5093995091975060ff8082169750610100820481169662010000909204811695929491921690565b6113336118a3565b61133b61185d565b600554811061135c5760405162461bcd60e51b81526004016105cb90611d0a565b6000818152600960205260409020600581015460ff16156113b05760405162461bcd60e51b815260206004820152600e60248201526d416c72656164792061637469766560901b60448201526064016105cb565b60058101805461ffff191661010117905560405182907f3aa476b7499359259e68e236e4ba85f83ff093e3b6341e6a3f6f295d9cd6887790600090a25050565b6113f86118a3565b6001600160a01b03811661145d5760405162461bcd60e51b815260206004820152602660248201527f4f776e61626c653a206e6577206f776e657220697320746865207a65726f206160448201526564647265737360d01b60648201526084016105cb565b6109a98161194f565b61146e611804565b61147661185d565b60055482106114975760405162461bcd60e51b81526004016105cb90611d0a565b6000828152600960205260409020600581015460ff1680156114c257506005810154610100900460ff165b6115045760405162461bcd60e51b815260206004820152601360248201527243616d706169676e206e6f742061637469766560681b60448201526064016105cb565b600781015460ff161561154f5760405162461bcd60e51b815260206004820152601360248201527243616d706169676e20696e206469737075746560681b60448201526064016105cb565b600082116115905760405162461bcd60e51b815260206004820152600e60248201526d125b9d985b1a5908185b5bdd5b9d60921b60448201526064016105cb565b806002015481600101546115a49190611cbc565b8211156115e45760405162461bcd60e51b815260206004820152600e60248201526d115e18d959591cc8189d5919d95d60921b60448201526064016105cb565b42600682015560078101805460ff19166001179055600880546000918261160a83611e5a565b919050559050604051806101600160405280858152602001336001600160a01b031681526020018481526020014281526020016000151581526020016000151581526020016000151581526020016000801b81526020016000801b81526020016000815260200160001515815250600a60008381526020019081526020016000206000820151816000015560208201518160010160006101000a8154816001600160a01b0302191690836001600160a01b03160217905550604082015181600201556060820151816003015560808201518160040160006101000a81548160ff02191690831515021790555060a08201518160040160016101000a81548160ff02191690831515021790555060c08201518160040160026101000a81548160ff02191690831515021790555060e08201518160050155610100820151816006015561012082015181600701556101408201518160080160006101000a81548160ff0219169083151502179055509050506001600b600086815260200190815260200160002060006101000a81548160ff02191690831515021790555083817fc58c5c7561a193e0c6046da5895baa82f5b7d37a79bfd2e97ae4267bcd6ee69933866040516117ed9291906001600160a01b03929092168252602082015260400190565b60405180910390a3505061180060018055565b5050565b6002600154036118565760405162461bcd60e51b815260206004820152601f60248201527f5265656e7472616e637947756172643a207265656e7472616e742063616c6c0060448201526064016105cb565b6002600155565b60025460ff1615610b195760405162461bcd60e51b815260206004820152601060248201526f14185d5cd8589b194e881c185d5cd95960821b60448201526064016105cb565b6000546001600160a01b03163314610b195760405162461bcd60e51b815260206004820181905260248201527f4f776e61626c653a2063616c6c6572206973206e6f7420746865206f776e657260448201526064016105cb565b6119056119dc565b6002805460ff191690557f5db9ee0a495bf2e6ff9c91a7834c1ba4fdd244a5e8aa4e537bd38aeae4b073aa335b6040516001600160a01b03909116815260200160405180910390a1565b600080546001600160a01b038381166001600160a01b0319831681178455604051919092169283917f8be0079c531659141344cd1fd0a4f28419497f9722a3daafe3b4186f6b6457e09190a35050565b6119a761185d565b6002805460ff191660011790557f62e78cea01bee320cd4e420270b5ea74000d11b0c9f74754ebdbfc544b05a2586119323390565b60025460ff16610b195760405162461bcd60e51b815260206004820152601460248201527314185d5cd8589b194e881b9bdd081c185d5cd95960621b60448201526064016105cb565b600060208284031215611a3757600080fd5b5035919050565b6000815180845260005b81811015611a6457602081850181015186830182015201611a48565b506000602082860101526020601f19601f83011685010191505092915050565b6000610120808352611a988184018d611a3e565b602084019b909b52505060408101979097526060870195909552608086019390935290151560a0850152151560c084015260e0830152151561010090910152919050565b60e081526000611aef60e083018a611a3e565b602083019890985250604081019590955260608501939093526080840191909152151560a0830152151560c090910152919050565b60008060408385031215611b3757600080fd5b50508035926020909101359150565b600080600080600060808688031215611b5e57600080fd5b853567ffffffffffffffff80821115611b7657600080fd5b818801915088601f830112611b8a57600080fd5b813581811115611b9957600080fd5b896020828501011115611bab57600080fd5b60209283019a909950918801359760408101359750606001359550909350505050565b600080600060608486031215611be357600080fd5b505081359360208301359350604090920135919050565b600060208284031215611c0c57600080fd5b81356001600160a01b0381168114611c2357600080fd5b9392505050565b600181811c90821680611c3e57607f821691505b602082108103611c5e57634e487b7160e01b600052602260045260246000fd5b50919050565b6020808252600f908201526e496e76616c6964206469737075746560881b604082015260600190565b634e487b7160e01b600052601160045260246000fd5b80820180821115611cb657611cb6611c8d565b92915050565b81810381811115611cb657611cb6611c8d565b600060208284031215611ce157600080fd5b81518015158114611c2357600080fd5b600060208284031215611d0357600080fd5b5051919050565b60208082526010908201526f24b73b30b634b21031b0b6b830b4b3b760811b604082015260600190565b634e487b7160e01b600052604160045260246000fd5b601f821115611d9457600081815260208120601f850160051c81016020861015611d715750805b601f850160051c820191505b81811015611d9057828155600101611d7d565b5050505b505050565b67ffffffffffffffff831115611db157611db1611d34565b611dc583611dbf8354611c2a565b83611d4a565b6000601f841160018114611df95760008515611de15750838201355b600019600387901b1c1916600186901b178355611e53565b600083815260209020601f19861690835b82811015611e2a5786850135825560209485019460019092019101611e0a565b5086821015611e475760001960f88860031b161c19848701351681555b505060018560011b0183555b5050505050565b600060018201611e6c57611e6c611c8d565b5060010190565b60808152846080820152848660a0830137600060a08683010152600060a0601f19601f8801168301019050846020830152836040830152826060830152969550505050505056fea2646970667358221220110291da36fa070289c75aea61add7ebaa4926edee0061a076d51895fbb0a2ee64736f6c63430008130033",
  "linkReferences": {},
  "deployedLinkReferences": {}
}