{
  "_format": "hh-sol-artifact-1",
  "contractName": "EventExplorer",
  "sourceName": "contracts/EventExplorer.sol",
  "abi": [
    {
      "anonymous": false,
      "inputs": [
        {
          "indexed": true,
          "internalType": "address",
          "name": "eventContract",
          "type": "address"
        },
        {
          "indexed": true,
          "internalType": "address",
          "name": "artistContract",
          "type": "address"
        },
        {
          "indexed": false,
          "internalType": "enum EventExplorer.ArtistStatus",
          "name": "status",
          "type": "uint8"
        }
      ],
      "name": "ArtistStatusUpdated",
      "type": "event"
    },
    {
      "anonymous": false,
      "inputs": [
        {
          "indexed": true,
          "internalType": "address",
          "name": "eventContract",
          "type": "address"
        }
      ],
      "name": "EventRegistered",
      "type": "event"
    },
    {
      "anonymous": false,
      "inputs": [
        {
          "indexed": true,
          "internalType": "address",
          "name": "eventContract",
          "type": "address"
        },
        {
          "indexed": false,
          "internalType": "enum EventExplorer.EventStatus",
          "name": "status",
          "type": "uint8"
        }
      ],
      "name": "EventStatusUpdated",
      "type": "event"
    },
    {
      "anonymous": false,
      "inputs": [
        {
          "indexed": true,
          "internalType": "address",
          "name": "previousOwner",
          "type": "address"
        },
        {
          "indexed": true,
          "internalType": "address",
          "name": "newOwner",
          "type": "address"
        }
      ],
      "name": "OwnershipTransferred",
      "type": "event"
    },
    {
      "anonymous": false,
      "inputs": [
        {
          "indexed": true,
          "internalType": "address",
          "name": "eventContract",
          "type": "address"
        },
        {
          "indexed": false,
          "internalType": "uint256",
          "name": "newPrice",
          "type": "uint256"
        }
      ],
      "name": "PriceUpdated",
      "type": "event"
    },
    {
      "anonymous": false,
      "inputs": [
        {
          "indexed": true,
          "internalType": "address",
          "name": "eventContract",
          "type": "address"
        },
        {
          "indexed": true,
          "internalType": "address",
          "name": "artist",
          "type": "address"
        },
        {
          "indexed": false,
          "internalType": "uint256",
          "name": "amount",
          "type": "uint256"
        }
      ],
      "name": "RevenueUpdated",
      "type": "event"
    },
    {
      "anonymous": false,
      "inputs": [
        {
          "indexed": true,
          "internalType": "address",
          "name": "eventContract",
          "type": "address"
        },
        {
          "indexed": false,
          "internalType": "uint256",
          "name": "remaining",
          "type": "uint256"
        }
      ],
      "name": "TicketAvailabilityUpdated",
      "type": "event"
    },
    {
      "inputs": [
        {
          "internalType": "address",
          "name": "_eventContract",
          "type": "address"
        },
        {
          "internalType": "address",
          "name": "_viewer",
          "type": "address"
        }
      ],
      "name": "addAuthorizedViewer",
      "outputs": [],
      "stateMutability": "nonpayable",
      "type": "function"
    },
    {
      "inputs": [
        {
          "internalType": "uint256",
          "name": "",
          "type": "uint256"
        }
      ],
      "name": "eventContracts",
      "outputs": [
        {
          "internalType": "address",
          "name": "",
          "type": "address"
        }
      ],
      "stateMutability": "view",
      "type": "function"
    },
    {
      "inputs": [
        {
          "internalType": "address",
          "name": "",
          "type": "address"
        }
      ],
      "name": "eventInfo",
      "outputs": [
        {
          "internalType": "address",
          "name": "eventContract",
          "type": "address"
        },
        {
          "internalType": "enum EventExplorer.EventStatus",
          "name": "status",
          "type": "uint8"
        },
        {
          "internalType": "uint256",
          "name": "totalTickets",
          "type": "uint256"
        },
        {
          "internalType": "uint256",
          "name": "remainingTickets",
          "type": "uint256"
        },
        {
          "internalType": "uint256",
          "name": "currentPrice",
          "type": "uint256"
        }
      ],
      "stateMutability": "view",
      "type": "function"
    },
    {
      "inputs": [],
      "name": "getAllEvents",
      "outputs": [
        {
          "internalType": "address[]",
          "name": "",
          "type": "address[]"
        }
      ],
      "stateMutability": "view",
      "type": "function"
    },
    {
      "inputs": [
        {
          "internalType": "address",
          "name": "_eventContract",
          "type": "address"
        },
        {
          "internalType": "address",
          "name": "_artistContract",
          "type": "address"
        }
      ],
      "name": "getArtistStatus",
      "outputs": [
        {
          "internalType": "enum EventExplorer.ArtistStatus",
          "name": "",
          "type": "uint8"
        }
      ],
      "stateMutability": "view",
      "type": "function"
    },
    {
      "inputs": [
        {
          "internalType": "address",
          "name": "_eventContract",
          "type": "address"
        }
      ],
      "name": "getEventDetails",
      "outputs": [
        {
          "internalType": "enum EventExplorer.EventStatus",
          "name": "status",
          "type": "uint8"
        },
        {
          "internalType": "uint256",
          "name": "totalTickets",
          "type": "uint256"
        },
        {
          "internalType": "uint256",
          "name": "remainingTickets",
          "type": "uint256"
        },
        {
          "internalType": "uint256",
          "name": "currentPrice",
          "type": "uint256"
        },
        {
          "internalType": "address[]",
          "name": "artists",
          "type": "address[]"
        }
      ],
      "stateMutability": "view",
      "type": "function"
    },
    {
      "inputs": [
        {
          "internalType": "address",
          "name": "_eventContract",
          "type": "address"
        },
        {
          "internalType": "address",
          "name": "_artist",
          "type": "address"
        }
      ],
      "name": "getPrivateEventData",
      "outputs": [
        {
          "internalType": "uint256",
          "name": "",
          "type": "uint256"
        }
      ],
      "stateMutability": "view",
      "type": "function"
    },
    {
      "inputs": [
        {
          "internalType": "address",
          "name": "_eventContract",
          "type": "address"
        },
        {
          "internalType": "address",
          "name": "_viewer",
          "type": "address"
        }
      ],
      "name": "isAuthorizedViewer",
      "outputs": [
        {
          "internalType": "bool",
          "name": "",
          "type": "bool"
        }
      ],
      "stateMutability": "view",
      "type": "function"
    },
    {
      "inputs": [
        {
          "internalType": "address",
          "name": "_eventContract",
          "type": "address"
        }
      ],
      "name": "isEventRegistered",
      "outputs": [
        {
          "internalType": "bool",
          "name": "",
          "type": "bool"
        }
      ],
      "stateMutability": "view",
      "type": "function"
    },
    {
      "inputs": [],
      "name": "owner",
      "outputs": [
        {
          "internalType": "address",
          "name": "",
          "type": "address"
        }
      ],
      "stateMutability": "view",
      "type": "function"
    },
    {
      "inputs": [
        {
          "internalType": "address",
          "name": "_eventContract",
          "type": "address"
        }
      ],
      "name": "registerEvent",
      "outputs": [],
      "stateMutability": "nonpayable",
      "type": "function"
    },
    {
      "inputs": [],
      "name": "renounceOwnership",
      "outputs": [],
      "stateMutability": "nonpayable",
      "type": "function"
    },
    {
      "inputs": [
        {
          "internalType": "address",
          "name": "newOwner",
          "type": "address"
        }
      ],
      "name": "transferOwnership",
      "outputs": [],
      "stateMutability": "nonpayable",
      "type": "function"
    },
    {
      "inputs": [
        {
          "internalType": "address",
          "name": "_eventContract",
          "type": "address"
        },
        {
          "internalType": "address",
          "name": "_artist",
          "type": "address"
        },
        {
          "internalType": "uint256",
          "name": "_amount",
          "type": "uint256"
        }
      ],
      "name": "updateArtistRevenue",
      "outputs": [],
      "stateMutability": "nonpayable",
      "type": "function"
    },
    {
      "inputs": [
        {
          "internalType": "address",
          "name": "_eventContract",
          "type": "address"
        },
        {
          "internalType": "address",
          "name": "_artistContract",
          "type": "address"
        },
        {
          "internalType": "enum EventExplorer.ArtistStatus",
          "name": "_status",
          "type": "uint8"
        }
      ],
      "name": "updateArtistStatus",
      "outputs": [],
      "stateMutability": "nonpayable",
      "type": "function"
    },
    {
      "inputs": [
        {
          "internalType": "address",
          "name": "_eventContract",
          "type": "address"
        },
        {
          "internalType": "uint256",
          "name": "_newPrice",
          "type": "uint256"
        }
      ],
      "name": "updateCurrentPrice",
      "outputs": [],
      "stateMutability": "nonpayable",
      "type": "function"
    },
    {
      "inputs": [
        {
          "internalType": "address",
          "name": "_eventContract",
          "type": "address"
        },
        {
          "internalType": "enum EventExplorer.EventStatus",
          "name": "_status",
          "type": "uint8"
        }
      ],
      "name": "updateEventStatus",
      "outputs": [],
      "stateMutability": "nonpayable",
      "type": "function"
    },
    {
      "inputs": [
        {
          "internalType": "address",
          "name": "_eventContract",
          "type": "address"
        },
        {
          "internalType": "uint256",
          "name": "_remaining",
          "type": "uint256"
        }
      ],
      "name": "updateTicketAvailability",
      "outputs": [],
      "stateMutability": "nonpayable",
      "type": "function"
    }
  ],
  "bytecode": "0x608060405234801561001057600080fd5b5061001a3361001f565b61006f565b600080546001600160a01b038381166001600160a01b0319831681178455604051919092169283917f8be0079c531659141344cd1fd0a4f28419497f9722a3daafe3b4186f6b6457e09190a35050565b6110338061007e6000396000f3fe608060405234801561001057600080fd5b50600436106101165760003560e01c80637d81c827116100a2578063c27a500d11610071578063c27a500d146102c7578063ca7672f6146102dc578063d43f036b146102ef578063f2fde38b14610313578063fc87891a1461032657600080fd5b80637d81c8271461026f5780638da5cb5b14610282578063a2963d8e14610293578063b0f65e0a146102a657600080fd5b80633a688026116100e95780633a688026146101bc57806344125c0b146101cf57806357e27bc01461022957806360d9b76914610254578063715018a61461026757600080fd5b806303f08ff31461011b578063040e62ce1461013057806321bb9fb314610143578063388edb2c1461016c575b600080fd5b61012e610129366004610d23565b610339565b005b61012e61013e366004610d4d565b6103cb565b610156610151366004610d98565b610495565b6040516101639190610de1565b60405180910390f35b6101ac61017a366004610d98565b6001600160a01b0391821660009081526002602090815260408083209390941682526007909201909152205460ff1690565b6040519015158152602001610163565b61012e6101ca366004610dfb565b6104f0565b6102186101dd366004610e37565b60026020526000908152604090208054600382015460048301546005909301546001600160a01b03831693600160a01b90930460ff16929085565b604051610163959493929190610e6d565b61023c610237366004610ea6565b61057a565b6040516001600160a01b039091168152602001610163565b61012e610262366004610e37565b6105a4565b61012e610784565b61012e61027d366004610ebf565b610798565b6000546001600160a01b031661023c565b6101ac6102a1366004610e37565b61083e565b6102b96102b4366004610d98565b61085f565b604051908152602001610163565b6102cf61094c565b6040516101639190610f3e565b61012e6102ea366004610d98565b6109ae565b6103026102fd366004610e37565b610a7c565b604051610163959493929190610f51565b61012e610321366004610e37565b610b67565b61012e610334366004610d23565b610be0565b610341610c5d565b61034a8261083e565b61036f5760405162461bcd60e51b815260040161036690610f8e565b60405180910390fd5b6001600160a01b03821660008181526002602052604090819020600501839055517f0d86730737b142fc160892fa8a0f2db687a92a0e294d1ad70624cf5acef03b84906103bf9084815260200190565b60405180910390a25050565b6103d3610c5d565b6103dc8361083e565b6103f85760405162461bcd60e51b815260040161036690610f8e565b6001600160a01b038084166000908152600260208181526040808420948716845293820190529190208054839260ff1990911690600190849081111561044057610440610dcb565b0217905550816001600160a01b0316836001600160a01b03167fa507e1f85e91fdb8d35ea5deedd58d1720b43d4e6dd1e3a65cd5dd6327fd7eff836040516104889190610de1565b60405180910390a3505050565b60006104a08361083e565b6104bc5760405162461bcd60e51b815260040161036690610f8e565b506001600160a01b0380831660009081526002602081815260408084209486168452939091019052205460ff165b92915050565b6104f8610c5d565b6105018361083e565b61051d5760405162461bcd60e51b815260040161036690610f8e565b6001600160a01b038381166000818152600260209081526040808320948716808452600690950182529182902085905590518481527fa0d2e54c67b21f514e9746fa29e5159220109649a837c0608da933a1e4afcf559101610488565b6001818154811061058a57600080fd5b6000918252602090912001546001600160a01b0316905081565b6001600160a01b0381166105f35760405162461bcd60e51b8152602060048201526016602482015275125b9d985b1a5908195d995b9d0818dbdb9d1c9858dd60521b6044820152606401610366565b6105fc8161083e565b156106495760405162461bcd60e51b815260206004820152601860248201527f4576656e7420616c7265616479207265676973746572656400000000000000006044820152606401610366565b600180548082019091557fb10e2d527612073b26eecdfd717e6a320cf44b4afac2b0732d9fcbe2b7fa0cf60180546001600160a01b0319166001600160a01b03831690811790915560008181526002602052604080822080546001600160a81b0319168417815581516345a680cf60e11b8152915190938593928392638b4d019e916004808201926060929091908290030181865afa1580156106f0573d6000803e3d6000fd5b505050506040513d601f19601f820116820180604052508101906107149190610fbc565b50600386018290556004860182905560058601819055336000908152600787016020526040808220805460ff19166001179055519294509092506001600160a01b038716917f6cc173d8a77586d50ac0d83574367732773c77059503b0a75d73ada49ed1b1909190a25050505050565b61078c610c5d565b6107966000610cb7565b565b6107a0610c5d565b6107a98261083e565b6107c55760405162461bcd60e51b815260040161036690610f8e565b6001600160a01b0382166000908152600260205260409020805482919060ff60a01b1916600160a01b83600381111561080057610800610dcb565b0217905550816001600160a01b03167fd5b7d97c9137cd34564c5920a562a0d46b147dc92e0597efc82cefc803c6b27a826040516103bf9190610fef565b6001600160a01b039081166000818152600260205260409020549091161490565b6000826108746000546001600160a01b031690565b6001600160a01b0316336001600160a01b031614806108b957506001600160a01b038116600090815260026020908152604080832033845260070190915290205460ff165b6108f65760405162461bcd60e51b815260206004820152600e60248201526d139bdd08185d5d1a1bdc9a5e995960921b6044820152606401610366565b6108ff8461083e565b61091b5760405162461bcd60e51b815260040161036690610f8e565b50506001600160a01b0391821660009081526002602090815260408083209390941682526006909201909152205490565b606060018054806020026020016040519081016040528092919081815260200182805480156109a457602002820191906000526020600020905b81546001600160a01b03168152600190910190602001808311610986575b5050505050905090565b816109c16000546001600160a01b031690565b6001600160a01b0316336001600160a01b03161480610a0657506001600160a01b038116600090815260026020908152604080832033845260070190915290205460ff165b610a435760405162461bcd60e51b815260206004820152600e60248201526d139bdd08185d5d1a1bdc9a5e995960921b6044820152606401610366565b506001600160a01b039182166000908152600260209081526040808320939094168252600790920190915220805460ff19166001179055565b6000806000806060610a8d8661083e565b610aa95760405162461bcd60e51b815260040161036690610f8e565b600060026000886001600160a01b03166001600160a01b0316815260200190815260200160002090508060000160149054906101000a900460ff168160030154826004015483600501548460010180805480602002602001604051908101604052809291908181526020018280548015610b4c57602002820191906000526020600020905b81546001600160a01b03168152600190910190602001808311610b2e575b50505050509050955095509550955095505091939590929450565b610b6f610c5d565b6001600160a01b038116610bd45760405162461bcd60e51b815260206004820152602660248201527f4f776e61626c653a206e6577206f776e657220697320746865207a65726f206160448201526564647265737360d01b6064820152608401610366565b610bdd81610cb7565b50565b610be8610c5d565b610bf18261083e565b610c0d5760405162461bcd60e51b815260040161036690610f8e565b6001600160a01b03821660008181526002602052604090819020600401839055517f52c0d44d4dee93ba26ba2a9b5b4cbc3647522310180615561898841476164b22906103bf9084815260200190565b6000546001600160a01b031633146107965760405162461bcd60e51b815260206004820181905260248201527f4f776e61626c653a2063616c6c6572206973206e6f7420746865206f776e65726044820152606401610366565b600080546001600160a01b038381166001600160a01b0319831681178455604051919092169283917f8be0079c531659141344cd1fd0a4f28419497f9722a3daafe3b4186f6b6457e09190a35050565b80356001600160a01b0381168114610d1e57600080fd5b919050565b60008060408385031215610d3657600080fd5b610d3f83610d07565b946020939093013593505050565b600080600060608486031215610d6257600080fd5b610d6b84610d07565b9250610d7960208501610d07565b9150604084013560038110610d8d57600080fd5b809150509250925092565b60008060408385031215610dab57600080fd5b610db483610d07565b9150610dc260208401610d07565b90509250929050565b634e487b7160e01b600052602160045260246000fd5b6020810160038310610df557610df5610dcb565b91905290565b600080600060608486031215610e1057600080fd5b610e1984610d07565b9250610e2760208501610d07565b9150604084013590509250925092565b600060208284031215610e4957600080fd5b610e5282610d07565b9392505050565b60048110610e6957610e69610dcb565b9052565b6001600160a01b038616815260a08101610e8a6020830187610e59565b8460408301528360608301528260808301529695505050505050565b600060208284031215610eb857600080fd5b5035919050565b60008060408385031215610ed257600080fd5b610edb83610d07565b9150602083013560048110610eef57600080fd5b809150509250929050565b600081518084526020808501945080840160005b83811015610f335781516001600160a01b031687529582019590820190600101610f0e565b509495945050505050565b602081526000610e526020830184610efa565b610f5b8187610e59565b84602082015283604082015282606082015260a060808201526000610f8360a0830184610efa565b979650505050505050565b602080825260149082015273115d995b9d081b9bdd081c9959da5cdd195c995960621b604082015260600190565b600080600060608486031215610fd157600080fd5b835192506020840151915060408401518015158114610d8d57600080fd5b602081016104ea8284610e5956fea2646970667358221220bb531e5bb74dc9bd4da5ecd534c5f58fed72dad979a035a2b5079312fc6c4c4364736f6c63430008130033",
  "linkReferences": {},
  "deployedLinkReferences": {}
}