{
  "_format": "hh-sol-artifact-1",
  "contractName": "ArtistContract",
  "sourceName": "contracts/ArtistContract.sol",
  "abi": [
    {
      "inputs": [
        {
          "internalType": "address",
          "name": "_parentContract",
          "type": "address"
        },
        {
          "internalType": "address",
          "name": "_artist",
          "type": "address"
        }
      ],
      "stateMutability": "nonpayable",
      "type": "constructor"
    },
    {
      "anonymous": false,
      "inputs": [
        {
          "indexed": false,
          "internalType": "address",
          "name": "artist",
          "type": "address"
        }
      ],
      "name": "ArtistCancelled",
      "type": "event"
    },
    {
      "anonymous": false,
      "inputs": [
        {
          "indexed": false,
          "internalType": "address",
          "name": "artist",
          "type": "address"
        },
        {
          "indexed": false,
          "internalType": "uint256",
          "name": "setTime",
          "type": "uint256"
        }
      ],
      "name": "ArtistDetailsSet",
      "type": "event"
    },
    {
      "anonymous": false,
      "inputs": [
        {
          "indexed": false,
          "internalType": "address",
          "name": "artist",
          "type": "address"
        },
        {
          "indexed": false,
          "internalType": "uint256",
          "name": "penaltyAmount",
          "type": "uint256"
        },
        {
          "indexed": false,
          "internalType": "uint256",
          "name": "penaltyPercentage",
          "type": "uint256"
        }
      ],
      "name": "CancellationPenalty",
      "type": "event"
    },
    {
      "anonymous": false,
      "inputs": [
        {
          "indexed": false,
          "internalType": "address",
          "name": "artist",
          "type": "address"
        }
      ],
      "name": "ContractSigned",
      "type": "event"
    },
    {
      "anonymous": false,
      "inputs": [
        {
          "indexed": true,
          "internalType": "address",
          "name": "previousOwner",
          "type": "address"
        },
        {
          "indexed": true,
          "internalType": "address",
          "name": "newOwner",
          "type": "address"
        }
      ],
      "name": "OwnershipTransferred",
      "type": "event"
    },
    {
      "anonymous": false,
      "inputs": [
        {
          "indexed": false,
          "internalType": "address",
          "name": "artist",
          "type": "address"
        },
        {
          "indexed": false,
          "internalType": "uint256",
          "name": "amount",
          "type": "uint256"
        }
      ],
      "name": "PaymentReceived",
      "type": "event"
    },
    {
      "inputs": [],
      "name": "EARLY_CANCEL_PENALTY",
      "outputs": [
        {
          "internalType": "uint256",
          "name": "",
          "type": "uint256"
        }
      ],
      "stateMutability": "view",
      "type": "function"
    },
    {
      "inputs": [],
      "name": "EARLY_CANCEL_WINDOW",
      "outputs": [
        {
          "internalType": "uint256",
          "name": "",
          "type": "uint256"
        }
      ],
      "stateMutability": "view",
      "type": "function"
    },
    {
      "inputs": [],
      "name": "LATE_CANCEL_PENALTY",
      "outputs": [
        {
          "internalType": "uint256",
          "name": "",
          "type": "uint256"
        }
      ],
      "stateMutability": "view",
      "type": "function"
    },
    {
      "inputs": [],
      "name": "LATE_CANCEL_WINDOW",
      "outputs": [
        {
          "internalType": "uint256",
          "name": "",
          "type": "uint256"
        }
      ],
      "stateMutability": "view",
      "type": "function"
    },
    {
      "inputs": [],
      "name": "VERY_LATE_CANCEL_PENALTY",
      "outputs": [
        {
          "internalType": "uint256",
          "name": "",
          "type": "uint256"
        }
      ],
      "stateMutability": "view",
      "type": "function"
    },
    {
      "inputs": [],
      "name": "artistDetails",
      "outputs": [
        {
          "internalType": "address",
          "name": "artist",
          "type": "address"
        },
        {
          "internalType": "address",
          "name": "parentContract",
          "type": "address"
        },
        {
          "internalType": "uint256",
          "name": "loadInTime",
          "type": "uint256"
        },
        {
          "internalType": "uint256",
          "name": "setTime",
          "type": "uint256"
        },
        {
          "internalType": "string",
          "name": "rider",
          "type": "string"
        },
        {
          "internalType": "string",
          "name": "legalText",
          "type": "string"
        },
        {
          "internalType": "uint256",
          "name": "guaranteeAmount",
          "type": "uint256"
        },
        {
          "internalType": "uint256",
          "name": "revenueShare",
          "type": "uint256"
        },
        {
          "internalType": "uint256",
          "name": "depositAmount",
          "type": "uint256"
        },
        {
          "internalType": "bool",
          "name": "approvalRequired",
          "type": "bool"
        },
        {
          "internalType": "bool",
          "name": "isCancelled",
          "type": "bool"
        }
      ],
      "stateMutability": "view",
      "type": "function"
    },
    {
      "inputs": [],
      "name": "cancelPerformance",
      "outputs": [],
      "stateMutability": "nonpayable",
      "type": "function"
    },
    {
      "inputs": [],
      "name": "getArtistDetails",
      "outputs": [
        {
          "components": [
            {
              "internalType": "address",
              "name": "artist",
              "type": "address"
            },
            {
              "internalType": "address",
              "name": "parentContract",
              "type": "address"
            },
            {
              "internalType": "uint256",
              "name": "loadInTime",
              "type": "uint256"
            },
            {
              "internalType": "uint256",
              "name": "setTime",
              "type": "uint256"
            },
            {
              "internalType": "string",
              "name": "rider",
              "type": "string"
            },
            {
              "internalType": "string",
              "name": "legalText",
              "type": "string"
            },
            {
              "internalType": "uint256",
              "name": "guaranteeAmount",
              "type": "uint256"
            },
            {
              "internalType": "uint256",
              "name": "revenueShare",
              "type": "uint256"
            },
            {
              "internalType": "uint256",
              "name": "depositAmount",
              "type": "uint256"
            },
            {
              "internalType": "bool",
              "name": "approvalRequired",
              "type": "bool"
            },
            {
              "internalType": "bool",
              "name": "isCancelled",
              "type": "bool"
            }
          ],
          "internalType": "struct IArtistContract.ArtistDetails",
          "name": "",
          "type": "tuple"
        }
      ],
      "stateMutability": "view",
      "type": "function"
    },
    {
      "inputs": [],
      "name": "getCancellationTerms",
      "outputs": [
        {
          "internalType": "uint256",
          "name": "earlyWindow",
          "type": "uint256"
        },
        {
          "internalType": "uint256",
          "name": "lateWindow",
          "type": "uint256"
        },
        {
          "internalType": "uint256",
          "name": "earlyPenalty",
          "type": "uint256"
        },
        {
          "internalType": "uint256",
          "name": "latePenalty",
          "type": "uint256"
        },
        {
          "internalType": "uint256",
          "name": "veryLatePenalty",
          "type": "uint256"
        }
      ],
      "stateMutability": "pure",
      "type": "function"
    },
    {
      "inputs": [],
      "name": "isContractSigned",
      "outputs": [
        {
          "internalType": "bool",
          "name": "",
          "type": "bool"
        }
      ],
      "stateMutability": "view",
      "type": "function"
    },
    {
      "inputs": [],
      "name": "owner",
      "outputs": [
        {
          "internalType": "address",
          "name": "",
          "type": "address"
        }
      ],
      "stateMutability": "view",
      "type": "function"
    },
    {
      "inputs": [],
      "name": "receivePayment",
      "outputs": [],
      "stateMutability": "nonpayable",
      "type": "function"
    },
    {
      "inputs": [],
      "name": "renounceOwnership",
      "outputs": [],
      "stateMutability": "nonpayable",
      "type": "function"
    },
    {
      "inputs": [
        {
          "internalType": "uint256",
          "name": "_loadInTime",
          "type": "uint256"
        },
        {
          "internalType": "uint256",
          "name": "_setTime",
          "type": "uint256"
        },
        {
          "internalType": "string",
          "name": "_rider",
          "type": "string"
        },
        {
          "internalType": "string",
          "name": "_legalText",
          "type": "string"
        },
        {
          "internalType": "uint256",
          "name": "_guaranteeAmount",
          "type": "uint256"
        },
        {
          "internalType": "uint256",
          "name": "_revenueShare",
          "type": "uint256"
        }
      ],
      "name": "setArtistDetails",
      "outputs": [],
      "stateMutability": "nonpayable",
      "type": "function"
    },
    {
      "inputs": [],
      "name": "signContract",
      "outputs": [],
      "stateMutability": "nonpayable",
      "type": "function"
    },
    {
      "inputs": [
        {
          "internalType": "address",
          "name": "newOwner",
          "type": "address"
        }
      ],
      "name": "transferOwnership",
      "outputs": [],
      "stateMutability": "nonpayable",
      "type": "function"
    },
    {
      "inputs": [],
      "name": "withdrawDeposit",
      "outputs": [],
      "stateMutability": "nonpayable",
      "type": "function"
    },
    {
      "stateMutability": "payable",
      "type": "receive"
    }
  ],
  "bytecode": "0x60806040523480156200001157600080fd5b5060405162001654380380620016548339810160408190526200003491620000ec565b6200003f336200007f565b60018055600380546001600160a01b039384166001600160a01b03199182161790915560028054929093169116179055600c805460ff1916905562000124565b600080546001600160a01b038381166001600160a01b0319831681178455604051919092169283917f8be0079c531659141344cd1fd0a4f28419497f9722a3daafe3b4186f6b6457e09190a35050565b80516001600160a01b0381168114620000e757600080fd5b919050565b600080604083850312156200010057600080fd5b6200010b83620000cf565b91506200011b60208401620000cf565b90509250929050565b61152080620001346000396000f3fe6080604052600436106101025760003560e01c80638da5cb5b11610095578063b8b4f1a011610064578063b8b4f1a01461029d578063d9514791146102b2578063e5bf1f3c146102de578063f2fde38b146102f3578063fc319de91461031357600080fd5b80638da5cb5b1461023657806391862a211461025e578063a25a8bc314610273578063b7fbf6911461028857600080fd5b806368f59352116100d157806368f59352146101ab578063715018a6146101ea5780637f7a4510146101ff578063835c19f31461022157600080fd5b8063117df0881461012957806326aba200146101405780632a4a40151461016a578063322f09411461018157600080fd5b3661012457346002600801600082825461011c9190610fe4565b925050819055005b600080fd5b34801561013557600080fd5b5061013e610333565b005b34801561014c57600080fd5b5061015762278d0081565b6040519081526020015b60405180910390f35b34801561017657600080fd5b5061015762093a8081565b34801561018d57600080fd5b50600c5461019b9060ff1681565b6040519015158152602001610161565b3480156101b757600080fd5b506040805162278d00815262093a806020820152600a91810191909152603260608201526064608082015260a001610161565b3480156101f657600080fd5b5061013e6104d8565b34801561020b57600080fd5b506102146104ea565b6040516101619190611043565b34801561022d57600080fd5b5061013e610701565b34801561024257600080fd5b506000546040516001600160a01b039091168152602001610161565b34801561026a57600080fd5b50610157603281565b34801561027f57600080fd5b50610157600a81565b34801561029457600080fd5b50610157606481565b3480156102a957600080fd5b5061013e610864565b3480156102be57600080fd5b506102c7610930565b6040516101619b9a99989796959493929190611119565b3480156102ea57600080fd5b5061013e610a95565b3480156102ff57600080fd5b5061013e61030e36600461119e565b610d04565b34801561031f57600080fd5b5061013e61032e366004611271565b610d7d565b6002546001600160a01b031633146103665760405162461bcd60e51b815260040161035d906112fa565b60405180910390fd5b600c5460ff166103885760405162461bcd60e51b815260040161035d90611328565b610390610e89565b600b54610100900460ff16156103e05760405162461bcd60e51b815260206004820152601560248201527414195c999bdc9b585b98d94818d85b98d95b1b1959605a1b604482015260640161035d565b600a546104285760405162461bcd60e51b81526020600482015260166024820152754e6f206465706f73697420746f20776974686472617760501b604482015260640161035d565b600a80546000918290556002546040519192916001600160a01b039091169083908381818185875af1925050503d8060008114610481576040519150601f19603f3d011682016040523d82523d6000602084013e610486565b606091505b50509050806104cb5760405162461bcd60e51b815260206004820152601160248201527015da5d1a191c985dd85b0819985a5b1959607a1b604482015260640161035d565b50506104d660018055565b565b6104e0610ee2565b6104d66000610f3c565b61055d60405180610160016040528060006001600160a01b0316815260200160006001600160a01b03168152602001600081526020016000815260200160608152602001606081526020016000815260200160008152602001600081526020016000151581526020016000151581525090565b6040805161016081018252600280546001600160a01b039081168352600354166020830152600454928201929092526005546060820152600680549192916080840191906105aa90611355565b80601f01602080910402602001604051908101604052809291908181526020018280546105d690611355565b80156106235780601f106105f857610100808354040283529160200191610623565b820191906000526020600020905b81548152906001019060200180831161060657829003601f168201915b5050505050815260200160058201805461063c90611355565b80601f016020809104026020016040519081016040528092919081815260200182805461066890611355565b80156106b55780601f1061068a576101008083540402835291602001916106b5565b820191906000526020600020905b81548152906001019060200180831161069857829003601f168201915b505050918352505060068201546020820152600782015460408201526008820154606082015260099091015460ff8082161515608084015261010090910416151560a090910152919050565b6002546001600160a01b0316331461072b5760405162461bcd60e51b815260040161035d906112fa565b600c5460ff1661074d5760405162461bcd60e51b815260040161035d90611328565b610755610e89565b600b54610100900460ff16156107a55760405162461bcd60e51b815260206004820152601560248201527414195c999bdc9b585b98d94818d85b98d95b1b1959605a1b604482015260640161035d565b600354600854600254604051630b63fe9560e01b81526001600160a01b039182166004820152602481018390529216918290630b63fe9590604401600060405180830381600087803b1580156107fa57600080fd5b505af115801561080e573d6000803e3d6000fd5b5050600254604080516001600160a01b039092168252602082018590527f6ef95f06320e7a25a04a175ca677b7052bdd97131872c2192525a629f51be770935001905060405180910390a150506104d660018055565b6002546001600160a01b0316331461088e5760405162461bcd60e51b815260040161035d906112fa565b600c5460ff16156108e15760405162461bcd60e51b815260206004820152601760248201527f436f6e747261637420616c7265616479207369676e6564000000000000000000604482015260640161035d565b600c805460ff191660011790556002546040516001600160a01b0390911681527f87749e5a8d50e7a3313d5056b9cc2bd91d8d91b4985106ee8ce6b865e2edfd089060200160405180910390a1565b60028054600354600454600554600680546001600160a01b039586169694909516949293919261095f90611355565b80601f016020809104026020016040519081016040528092919081815260200182805461098b90611355565b80156109d85780601f106109ad576101008083540402835291602001916109d8565b820191906000526020600020905b8154815290600101906020018083116109bb57829003601f168201915b5050505050908060050180546109ed90611355565b80601f0160208091040260200160405190810160405280929190818152602001828054610a1990611355565b8015610a665780601f10610a3b57610100808354040283529160200191610a66565b820191906000526020600020905b815481529060010190602001808311610a4957829003601f168201915b505050506006830154600784015460088501546009909501549394919390925060ff808216916101009004168b565b6002546001600160a01b03163314610abf5760405162461bcd60e51b815260040161035d906112fa565b600c5460ff16610ae15760405162461bcd60e51b815260040161035d90611328565b600b54610100900460ff1615610b2d5760405162461bcd60e51b8152602060048201526011602482015270105b1c9958591e4818d85b98d95b1b1959607a1b604482015260640161035d565b6005544210610b775760405162461bcd60e51b8152602060048201526016602482015275115d995b9d08185b1c9958591e481bd8d8dd5c9c995960521b604482015260640161035d565b6000610b81610f8c565b600a5490915060009015610c6457600a54606490610ba090849061138f565b610baa91906113a6565b9050600081600260080154610bbf91906113c8565b90508015610c62576000600a8190556002546040516001600160a01b039091169083908381818185875af1925050503d8060008114610c1a576040519150601f19603f3d011682016040523d82523d6000602084013e610c1f565b606091505b5050905080610c605760405162461bcd60e51b815260206004820152600d60248201526c1499599d5b990819985a5b1959609a1b604482015260640161035d565b505b505b600b805461ff0019166101001790556002546040516001600160a01b0390911681527f70803f74489427aa7a7c6913d35f266c3dea49b8b0eb28315689d1807322a5b19060200160405180910390a1600254604080516001600160a01b0390921682526020820183905281018390527f7f0e25a9455998ceb0850579b4ed1e2008cd9d1ac71713154c9c0a2a3d8fe4359060600160405180910390a15050565b610d0c610ee2565b6001600160a01b038116610d715760405162461bcd60e51b815260206004820152602660248201527f4f776e61626c653a206e6577206f776e657220697320746865207a65726f206160448201526564647265737360d01b606482015260840161035d565b610d7a81610f3c565b50565b610d85610ee2565b848610610dc45760405162461bcd60e51b815260206004820152600d60248201526c496e76616c69642074696d657360981b604482015260640161035d565b6064811115610e0d5760405162461bcd60e51b8152602060048201526015602482015274496e76616c696420726576656e756520736861726560581b604482015260640161035d565b600486905560058590556006610e23858261142a565b506007610e30848261142a565b5060088290556009819055600254604080516001600160a01b039092168252602082018790527f84854f87d7f6e39f49ebdded03217f7c4af2965462b09b18c5176bc692bc40fa910160405180910390a1505050505050565b600260015403610edb5760405162461bcd60e51b815260206004820152601f60248201527f5265656e7472616e637947756172643a207265656e7472616e742063616c6c00604482015260640161035d565b6002600155565b6000546001600160a01b031633146104d65760405162461bcd60e51b815260206004820181905260248201527f4f776e61626c653a2063616c6c6572206973206e6f7420746865206f776e6572604482015260640161035d565b600080546001600160a01b038381166001600160a01b0319831681178455604051919092169283917f8be0079c531659141344cd1fd0a4f28419497f9722a3daafe3b4186f6b6457e09190a35050565b60008042600260030154610fa091906113c8565b905062278d008110610fb457600a91505090565b62093a808110610fc657603291505090565b606491505090565b634e487b7160e01b600052601160045260246000fd5b80820180821115610ff757610ff7610fce565b92915050565b6000815180845260005b8181101561102357602081850181015186830182015201611007565b506000602082860101526020601f19601f83011685010191505092915050565b6020815261105d6020820183516001600160a01b03169052565b6000602083015161107960408401826001600160a01b03169052565b50604083015160608301526060830151608083015260808301516101608060a08501526110aa610180850183610ffd565b915060a0850151601f198584030160c08601526110c78382610ffd565b92505060c085015160e085015260e08501516101008181870152808701519150506101208181870152808701519150506101406111078187018315159052565b90950151151593019290925250919050565b6001600160a01b038c811682528b166020820152604081018a905260608101899052610160608082018190526000906111548382018b610ffd565b905082810360a0840152611168818a610ffd565b60c0840198909852505060e081019490945261010084019290925215156101208301521515610140909101529695505050505050565b6000602082840312156111b057600080fd5b81356001600160a01b03811681146111c757600080fd5b9392505050565b634e487b7160e01b600052604160045260246000fd5b600082601f8301126111f557600080fd5b813567ffffffffffffffff80821115611210576112106111ce565b604051601f8301601f19908116603f01168101908282118183101715611238576112386111ce565b8160405283815286602085880101111561125157600080fd5b836020870160208301376000602085830101528094505050505092915050565b60008060008060008060c0878903121561128a57600080fd5b8635955060208701359450604087013567ffffffffffffffff808211156112b057600080fd5b6112bc8a838b016111e4565b955060608901359150808211156112d257600080fd5b506112df89828a016111e4565b9350506080870135915060a087013590509295509295509295565b60208082526014908201527313db9b1e48185c9d1a5cdd0818d85b8818d85b1b60621b604082015260600190565b60208082526013908201527210dbdb9d1c9858dd081b9bdd081cda59db9959606a1b604082015260600190565b600181811c9082168061136957607f821691505b60208210810361138957634e487b7160e01b600052602260045260246000fd5b50919050565b8082028115828204841417610ff757610ff7610fce565b6000826113c357634e487b7160e01b600052601260045260246000fd5b500490565b81810381811115610ff757610ff7610fce565b601f82111561142557600081815260208120601f850160051c810160208610156114025750805b601f850160051c820191505b818110156114215782815560010161140e565b5050505b505050565b815167ffffffffffffffff811115611444576114446111ce565b611458816114528454611355565b846113db565b602080601f83116001811461148d57600084156114755750858301515b600019600386901b1c1916600185901b178555611421565b600085815260208120601f198616915b828110156114bc5788860151825594840194600190910190840161149d565b50858210156114da5787850151600019600388901b60f8161c191681555b5050505050600190811b0190555056fea264697066735822122071848d476ddc7dddd6eedfd462f19341b1f62568a00c24337255a9d1fb7b6c9864736f6c63430008130033",
  "linkReferences": {},
  "deployedLinkReferences": {}
}