{
  "_format": "hh-sol-artifact-1",
  "contractName": "EventTicketERC721",
  "sourceName": "contracts/EventTicketERC721.sol",
  "abi": [
    {
      "inputs": [
        {
          "internalType": "address",
          "name": "_xaoReputation",
          "type": "address"
        }
      ],
      "stateMutability": "nonpayable",
      "type": "constructor"
    },
    {
      "anonymous": false,
      "inputs": [
        {
          "indexed": true,
          "internalType": "address",
          "name": "owner",
          "type": "address"
        },
        {
          "indexed": true,
          "internalType": "address",
          "name": "approved",
          "type": "address"
        },
        {
          "indexed": true,
          "internalType": "uint256",
          "name": "tokenId",
          "type": "uint256"
        }
      ],
      "name": "Approval",
      "type": "event"
    },
    {
      "anonymous": false,
      "inputs": [
        {
          "indexed": true,
          "internalType": "address",
          "name": "owner",
          "type": "address"
        },
        {
          "indexed": true,
          "internalType": "address",
          "name": "operator",
          "type": "address"
        },
        {
          "indexed": false,
          "internalType": "bool",
          "name": "approved",
          "type": "bool"
        }
      ],
      "name": "ApprovalForAll",
      "type": "event"
    },
    {
      "anonymous": false,
      "inputs": [
        {
          "indexed": true,
          "internalType": "uint256",
          "name": "ticketId",
          "type": "uint256"
        },
        {
          "indexed": false,
          "internalType": "bool",
          "name": "resellable",
          "type": "bool"
        }
      ],
      "name": "ResaleStatusUpdated",
      "type": "event"
    },
    {
      "anonymous": false,
      "inputs": [
        {
          "indexed": true,
          "internalType": "bytes32",
          "name": "role",
          "type": "bytes32"
        },
        {
          "indexed": true,
          "internalType": "bytes32",
          "name": "previousAdminRole",
          "type": "bytes32"
        },
        {
          "indexed": true,
          "internalType": "bytes32",
          "name": "newAdminRole",
          "type": "bytes32"
        }
      ],
      "name": "RoleAdminChanged",
      "type": "event"
    },
    {
      "anonymous": false,
      "inputs": [
        {
          "indexed": true,
          "internalType": "bytes32",
          "name": "role",
          "type": "bytes32"
        },
        {
          "indexed": true,
          "internalType": "address",
          "name": "account",
          "type": "address"
        },
        {
          "indexed": true,
          "internalType": "address",
          "name": "sender",
          "type": "address"
        }
      ],
      "name": "RoleGranted",
      "type": "event"
    },
    {
      "anonymous": false,
      "inputs": [
        {
          "indexed": true,
          "internalType": "bytes32",
          "name": "role",
          "type": "bytes32"
        },
        {
          "indexed": true,
          "internalType": "address",
          "name": "account",
          "type": "address"
        },
        {
          "indexed": true,
          "internalType": "address",
          "name": "sender",
          "type": "address"
        }
      ],
      "name": "RoleRevoked",
      "type": "event"
    },
    {
      "anonymous": false,
      "inputs": [
        {
          "indexed": false,
          "internalType": "uint96",
          "name": "newPercentage",
          "type": "uint96"
        }
      ],
      "name": "RoyaltyUpdated",
      "type": "event"
    },
    {
      "anonymous": false,
      "inputs": [
        {
          "indexed": true,
          "internalType": "uint256",
          "name": "ticketId",
          "type": "uint256"
        },
        {
          "indexed": true,
          "internalType": "address",
          "name": "to",
          "type": "address"
        },
        {
          "indexed": false,
          "internalType": "uint256",
          "name": "eventId",
          "type": "uint256"
        }
      ],
      "name": "TicketMinted",
      "type": "event"
    },
    {
      "anonymous": false,
      "inputs": [
        {
          "indexed": true,
          "internalType": "address",
          "name": "from",
          "type": "address"
        },
        {
          "indexed": true,
          "internalType": "address",
          "name": "to",
          "type": "address"
        },
        {
          "indexed": true,
          "internalType": "uint256",
          "name": "tokenId",
          "type": "uint256"
        }
      ],
      "name": "Transfer",
      "type": "event"
    },
    {
      "inputs": [],
      "name": "DEFAULT_ADMIN_ROLE",
      "outputs": [
        {
          "internalType": "bytes32",
          "name": "",
          "type": "bytes32"
        }
      ],
      "stateMutability": "view",
      "type": "function"
    },
    {
      "inputs": [],
      "name": "DEFAULT_ROYALTY_PERCENTAGE",
      "outputs": [
        {
          "internalType": "uint96",
          "name": "",
          "type": "uint96"
        }
      ],
      "stateMutability": "view",
      "type": "function"
    },
    {
      "inputs": [],
      "name": "MAX_ROYALTY_PERCENTAGE",
      "outputs": [
        {
          "internalType": "uint96",
          "name": "",
          "type": "uint96"
        }
      ],
      "stateMutability": "view",
      "type": "function"
    },
    {
      "inputs": [],
      "name": "MINTER_ROLE",
      "outputs": [
        {
          "internalType": "bytes32",
          "name": "",
          "type": "bytes32"
        }
      ],
      "stateMutability": "view",
      "type": "function"
    },
    {
      "inputs": [
        {
          "internalType": "address",
          "name": "to",
          "type": "address"
        },
        {
          "internalType": "uint256",
          "name": "tokenId",
          "type": "uint256"
        }
      ],
      "name": "approve",
      "outputs": [],
      "stateMutability": "nonpayable",
      "type": "function"
    },
    {
      "inputs": [
        {
          "internalType": "address",
          "name": "owner",
          "type": "address"
        }
      ],
      "name": "balanceOf",
      "outputs": [
        {
          "internalType": "uint256",
          "name": "",
          "type": "uint256"
        }
      ],
      "stateMutability": "view",
      "type": "function"
    },
    {
      "inputs": [
        {
          "internalType": "uint256",
          "name": "tokenId",
          "type": "uint256"
        }
      ],
      "name": "getApproved",
      "outputs": [
        {
          "internalType": "address",
          "name": "",
          "type": "address"
        }
      ],
      "stateMutability": "view",
      "type": "function"
    },
    {
      "inputs": [
        {
          "internalType": "bytes32",
          "name": "role",
          "type": "bytes32"
        }
      ],
      "name": "getRoleAdmin",
      "outputs": [
        {
          "internalType": "bytes32",
          "name": "",
          "type": "bytes32"
        }
      ],
      "stateMutability": "view",
      "type": "function"
    },
    {
      "inputs": [
        {
          "internalType": "uint256",
          "name": "ticketId",
          "type": "uint256"
        }
      ],
      "name": "getTicketInfo",
      "outputs": [
        {
          "components": [
            {
              "internalType": "uint256",
              "name": "price",
              "type": "uint256"
            },
            {
              "internalType": "uint256",
              "name": "eventId",
              "type": "uint256"
            },
            {
              "internalType": "uint256",
              "name": "seatNumber",
              "type": "uint256"
            },
            {
              "internalType": "bool",
              "name": "resellable",
              "type": "bool"
            },
            {
              "internalType": "address",
              "name": "originalOwner",
              "type": "address"
            }
          ],
          "internalType": "struct IEventTicketERC721.TicketInfo",
          "name": "",
          "type": "tuple"
        }
      ],
      "stateMutability": "view",
      "type": "function"
    },
    {
      "inputs": [
        {
          "internalType": "bytes32",
          "name": "role",
          "type": "bytes32"
        },
        {
          "internalType": "address",
          "name": "account",
          "type": "address"
        }
      ],
      "name": "grantRole",
      "outputs": [],
      "stateMutability": "nonpayable",
      "type": "function"
    },
    {
      "inputs": [
        {
          "internalType": "bytes32",
          "name": "role",
          "type": "bytes32"
        },
        {
          "internalType": "address",
          "name": "account",
          "type": "address"
        }
      ],
      "name": "hasRole",
      "outputs": [
        {
          "internalType": "bool",
          "name": "",
          "type": "bool"
        }
      ],
      "stateMutability": "view",
      "type": "function"
    },
    {
      "inputs": [
        {
          "internalType": "address",
          "name": "owner",
          "type": "address"
        },
        {
          "internalType": "address",
          "name": "operator",
          "type": "address"
        }
      ],
      "name": "isApprovedForAll",
      "outputs": [
        {
          "internalType": "bool",
          "name": "",
          "type": "bool"
        }
      ],
      "stateMutability": "view",
      "type": "function"
    },
    {
      "inputs": [
        {
          "internalType": "uint256",
          "name": "ticketId",
          "type": "uint256"
        }
      ],
      "name": "isResaleAllowed",
      "outputs": [
        {
          "internalType": "bool",
          "name": "",
          "type": "bool"
        }
      ],
      "stateMutability": "view",
      "type": "function"
    },
    {
      "inputs": [
        {
          "internalType": "address",
          "name": "to",
          "type": "address"
        },
        {
          "internalType": "uint256",
          "name": "eventId",
          "type": "uint256"
        },
        {
          "internalType": "uint256",
          "name": "seatNumber",
          "type": "uint256"
        },
        {
          "internalType": "uint256",
          "name": "price",
          "type": "uint256"
        },
        {
          "internalType": "bool",
          "name": "resellable",
          "type": "bool"
        }
      ],
      "name": "mintTicket",
      "outputs": [
        {
          "internalType": "uint256",
          "name": "",
          "type": "uint256"
        }
      ],
      "stateMutability": "nonpayable",
      "type": "function"
    },
    {
      "inputs": [],
      "name": "name",
      "outputs": [
        {
          "internalType": "string",
          "name": "",
          "type": "string"
        }
      ],
      "stateMutability": "view",
      "type": "function"
    },
    {
      "inputs": [
        {
          "internalType": "uint256",
          "name": "tokenId",
          "type": "uint256"
        }
      ],
      "name": "ownerOf",
      "outputs": [
        {
          "internalType": "address",
          "name": "",
          "type": "address"
        }
      ],
      "stateMutability": "view",
      "type": "function"
    },
    {
      "inputs": [
        {
          "internalType": "bytes32",
          "name": "role",
          "type": "bytes32"
        },
        {
          "internalType": "address",
          "name": "account",
          "type": "address"
        }
      ],
      "name": "renounceRole",
      "outputs": [],
      "stateMutability": "nonpayable",
      "type": "function"
    },
    {
      "inputs": [
        {
          "internalType": "bytes32",
          "name": "role",
          "type": "bytes32"
        },
        {
          "internalType": "address",
          "name": "account",
          "type": "address"
        }
      ],
      "name": "revokeRole",
      "outputs": [],
      "stateMutability": "nonpayable",
      "type": "function"
    },
    {
      "inputs": [
        {
          "internalType": "uint256",
          "name": "",
          "type": "uint256"
        },
        {
          "internalType": "uint256",
          "name": "salePrice",
          "type": "uint256"
        }
      ],
      "name": "royaltyInfo",
      "outputs": [
        {
          "internalType": "address",
          "name": "receiver",
          "type": "address"
        },
        {
          "internalType": "uint256",
          "name": "royaltyAmount",
          "type": "uint256"
        }
      ],
      "stateMutability": "view",
      "type": "function"
    },
    {
      "inputs": [
        {
          "internalType": "address",
          "name": "from",
          "type": "address"
        },
        {
          "internalType": "address",
          "name": "to",
          "type": "address"
        },
        {
          "internalType": "uint256",
          "name": "tokenId",
          "type": "uint256"
        }
      ],
      "name": "safeTransferFrom",
      "outputs": [],
      "stateMutability": "nonpayable",
      "type": "function"
    },
    {
      "inputs": [
        {
          "internalType": "address",
          "name": "from",
          "type": "address"
        },
        {
          "internalType": "address",
          "name": "to",
          "type": "address"
        },
        {
          "internalType": "uint256",
          "name": "tokenId",
          "type": "uint256"
        },
        {
          "internalType": "bytes",
          "name": "data",
          "type": "bytes"
        }
      ],
      "name": "safeTransferFrom",
      "outputs": [],
      "stateMutability": "nonpayable",
      "type": "function"
    },
    {
      "inputs": [
        {
          "internalType": "address",
          "name": "operator",
          "type": "address"
        },
        {
          "internalType": "bool",
          "name": "approved",
          "type": "bool"
        }
      ],
      "name": "setApprovalForAll",
      "outputs": [],
      "stateMutability": "nonpayable",
      "type": "function"
    },
    {
      "inputs": [
        {
          "internalType": "uint256",
          "name": "ticketId",
          "type": "uint256"
        },
        {
          "internalType": "bool",
          "name": "resellable",
          "type": "bool"
        }
      ],
      "name": "setResaleStatus",
      "outputs": [],
      "stateMutability": "nonpayable",
      "type": "function"
    },
    {
      "inputs": [
        {
          "internalType": "uint96",
          "name": "percentage",
          "type": "uint96"
        }
      ],
      "name": "setRoyaltyPercentage",
      "outputs": [],
      "stateMutability": "nonpayable",
      "type": "function"
    },
    {
      "inputs": [
        {
          "internalType": "bytes4",
          "name": "interfaceId",
          "type": "bytes4"
        }
      ],
      "name": "supportsInterface",
      "outputs": [
        {
          "internalType": "bool",
          "name": "",
          "type": "bool"
        }
      ],
      "stateMutability": "view",
      "type": "function"
    },
    {
      "inputs": [],
      "name": "symbol",
      "outputs": [
        {
          "internalType": "string",
          "name": "",
          "type": "string"
        }
      ],
      "stateMutability": "view",
      "type": "function"
    },
    {
      "inputs": [
        {
          "internalType": "uint256",
          "name": "tokenId",
          "type": "uint256"
        }
      ],
      "name": "tokenURI",
      "outputs": [
        {
          "internalType": "string",
          "name": "",
          "type": "string"
        }
      ],
      "stateMutability": "view",
      "type": "function"
    },
    {
      "inputs": [
        {
          "internalType": "address",
          "name": "from",
          "type": "address"
        },
        {
          "internalType": "address",
          "name": "to",
          "type": "address"
        },
        {
          "internalType": "uint256",
          "name": "tokenId",
          "type": "uint256"
        }
      ],
      "name": "transferFrom",
      "outputs": [],
      "stateMutability": "nonpayable",
      "type": "function"
    },
    {
      "inputs": [
        {
          "internalType": "address",
          "name": "from",
          "type": "address"
        },
        {
          "internalType": "address",
          "name": "to",
          "type": "address"
        },
        {
          "internalType": "uint256",
          "name": "ticketId",
          "type": "uint256"
        }
      ],
      "name": "validateTransfer",
      "outputs": [
        {
          "internalType": "bool",
          "name": "",
          "type": "bool"
        }
      ],
      "stateMutability": "view",
      "type": "function"
    },
    {
      "inputs": [],
      "name": "xaoReputation",
      "outputs": [
        {
          "internalType": "contract XAOReputation",
          "name": "",
          "type": "address"
        }
      ],
      "stateMutability": "view",
      "type": "function"
    }
  ],
  "bytecode": "0x60806040523480156200001157600080fd5b50604051620026ff380380620026ff8339810160408190526200003491620002c6565b6040518060400160405280601081526020016f161053c8115d995b9d08151a58dad95d60821b815250604051806040016040528060068152602001650b0829ea892b60d31b81525081600090816200008d91906200039d565b5060016200009c82826200039d565b5050600160095550600b80546001600160a01b0319166001600160a01b038316179055620000cc6000336200010d565b620000f87f9f2df0fed2c77648de5860a4cc508cd0818c85b8b8a1ab4ceeef8d981c8956a6336200010d565b62000106336101f46200011d565b5062000469565b62000119828262000222565b5050565b6127106001600160601b0382161115620001915760405162461bcd60e51b815260206004820152602a60248201527f455243323938313a20726f79616c7479206665652077696c6c206578636565646044820152692073616c65507269636560b01b60648201526084015b60405180910390fd5b6001600160a01b038216620001e95760405162461bcd60e51b815260206004820152601960248201527f455243323938313a20696e76616c696420726563656976657200000000000000604482015260640162000188565b604080518082019091526001600160a01b039092168083526001600160601b039091166020909201829052600160a01b90910217600655565b60008281526008602090815260408083206001600160a01b038516845290915290205460ff16620001195760008281526008602090815260408083206001600160a01b03851684529091529020805460ff19166001179055620002823390565b6001600160a01b0316816001600160a01b0316837f2f8788117e7eff1d82e926ec794901d17c78024a50270940304540a733656f0d60405160405180910390a45050565b600060208284031215620002d957600080fd5b81516001600160a01b0381168114620002f157600080fd5b9392505050565b634e487b7160e01b600052604160045260246000fd5b600181811c908216806200032357607f821691505b6020821081036200034457634e487b7160e01b600052602260045260246000fd5b50919050565b601f8211156200039857600081815260208120601f850160051c81016020861015620003735750805b601f850160051c820191505b8181101562000394578281556001016200037f565b5050505b505050565b81516001600160401b03811115620003b957620003b9620002f8565b620003d181620003ca84546200030e565b846200034a565b602080601f831160018114620004095760008415620003f05750858301515b600019600386901b1c1916600185901b17855562000394565b600085815260208120601f198616915b828110156200043a5788860151825594840194600190910190840162000419565b5085821015620004595787850151600019600388901b60f8161c191681555b5050505050600190811b01905550565b61228680620004796000396000f3fe608060405234801561001057600080fd5b50600436106101da5760003560e01c8063905b399511610104578063b88d4fde116100a2578063d547741f11610071578063d547741f1461043d578063e577839914610450578063e985e9c514610463578063ff99a0631461049f57600080fd5b8063b88d4fde146103dd578063c6946a12146103f0578063c87b56dd14610403578063d53913931461041657600080fd5b80639f6d68b0116100de5780639f6d68b0146103a6578063a217fddf146103b9578063a22cb465146103c1578063a9225d1b146103d457600080fd5b8063905b39951461037857806391d148541461038b57806395d89b411461039e57600080fd5b80632a55205a1161017c5780634492555c1161014b5780634492555c1461032c57806350cedbb81461033f5780636352211e1461035257806370a082311461036557600080fd5b80632a55205a146102c15780632f2ff15d146102f357806336568abe1461030657806342842e0e1461031957600080fd5b8063095ea7b3116101b8578063095ea7b31461024757806323b872dd1461025c578063248a9ca31461026f57806328088de3146102a057600080fd5b806301ffc9a7146101df57806306fdde0314610207578063081812fc1461021c575b600080fd5b6101f26101ed366004611be7565b6104fa565b60405190151581526020015b60405180910390f35b61020f610525565b6040516101fe9190611c54565b61022f61022a366004611c67565b6105b7565b6040516001600160a01b0390911681526020016101fe565b61025a610255366004611c9c565b6105de565b005b61025a61026a366004611cc6565b6106f8565b61029261027d366004611c67565b60009081526008602052604090206001015490565b6040519081526020016101fe565b6102a96101f481565b6040516001600160601b0390911681526020016101fe565b6102d46102cf366004611d02565b610729565b604080516001600160a01b0390931683526020830191909152016101fe565b61025a610301366004611d24565b610742565b61025a610314366004611d24565b610767565b61025a610327366004611cc6565b6107e5565b61025a61033a366004611d60565b610800565b61029261034d366004611d83565b61088b565b61022f610360366004611c67565b610a00565b610292610373366004611dd3565b610a60565b6101f2610386366004611c67565b610ae6565b6101f2610399366004611d24565b610b26565b61020f610b51565b61025a6103b4366004611dee565b610b60565b610292600081565b61025a6103cf366004611e17565b610c03565b6102a96103e881565b61025a6103eb366004611e57565b610c0e565b6101f26103fe366004611cc6565b610c46565b61020f610411366004611c67565b610ca5565b6102927f9f2df0fed2c77648de5860a4cc508cd0818c85b8b8a1ab4ceeef8d981c8956a681565b61025a61044b366004611d24565b610d18565b600b5461022f906001600160a01b031681565b6101f2610471366004611f33565b6001600160a01b03918216600090815260056020908152604080832093909416825291909152205460ff1690565b6104b26104ad366004611c67565b610d3d565b6040516101fe91908151815260208083015190820152604080830151908201526060808301511515908201526080918201516001600160a01b03169181019190915260a00190565b60006001600160e01b0319821663152a902d60e11b148061051f575061051f82610dfd565b92915050565b60606000805461053490611f5d565b80601f016020809104026020016040519081016040528092919081815260200182805461056090611f5d565b80156105ad5780601f10610582576101008083540402835291602001916105ad565b820191906000526020600020905b81548152906001019060200180831161059057829003601f168201915b5050505050905090565b60006105c282610e22565b506000908152600460205260409020546001600160a01b031690565b60006105e982610a00565b9050806001600160a01b0316836001600160a01b03160361065b5760405162461bcd60e51b815260206004820152602160248201527f4552433732313a20617070726f76616c20746f2063757272656e74206f776e656044820152603960f91b60648201526084015b60405180910390fd5b336001600160a01b038216148061067757506106778133610471565b6106e95760405162461bcd60e51b815260206004820152603d60248201527f4552433732313a20617070726f76652063616c6c6572206973206e6f7420746f60448201527f6b656e206f776e6572206f7220617070726f76656420666f7220616c6c0000006064820152608401610652565b6106f38383610e75565b505050565b6107023382610ee3565b61071e5760405162461bcd60e51b815260040161065290611f97565b6106f3838383610f62565b6000806107376000846110d3565b909590945092505050565b60008281526008602052604090206001015461075d8161117f565b6106f38383611189565b6001600160a01b03811633146107d75760405162461bcd60e51b815260206004820152602f60248201527f416363657373436f6e74726f6c3a2063616e206f6e6c792072656e6f756e636560448201526e103937b632b9903337b91039b2b63360891b6064820152608401610652565b6107e1828261120f565b5050565b6106f383838360405180602001604052806000815250610c0e565b600061080b8161117f565b61081483611276565b6108305760405162461bcd60e51b815260040161065290611fe4565b6000838152600c6020908152604091829020600301805460ff1916851515908117909155915191825284917faf6e94a8f2aa1968f7ea5f1b0cad7947b8ce7b76d3ac7e3d2f1b192731417cb4910160405180910390a2505050565b60007f9f2df0fed2c77648de5860a4cc508cd0818c85b8b8a1ab4ceeef8d981c8956a66108b78161117f565b6001600160a01b0387166109015760405162461bcd60e51b8152602060048201526011602482015270125b9d985b1a59081c9958da5c1a595b9d607a1b6044820152606401610652565b600061090c600a5490565b905061091c600a80546001019055565b6040805160a08101825286815260208082018a81528284018a8152881515606085019081526001600160a01b03808f16608087019081526000898152600c9096529690942094518555915160018501555160028401555160039092018054935190911661010002610100600160a81b0319921515929092166001600160a81b0319909316929092171790556109b18882611293565b876001600160a01b0316817f5c1c9352d51031acc9a558d7cdcca15b0ce5fe4f46d7315cca355248175b0a37896040516109ed91815260200190565b60405180910390a3979650505050505050565b6000818152600260205260408120546001600160a01b03168061051f5760405162461bcd60e51b8152602060048201526018602482015277115490cdcc8c4e881a5b9d985b1a59081d1bdad95b88125160421b6044820152606401610652565b60006001600160a01b038216610aca5760405162461bcd60e51b815260206004820152602960248201527f4552433732313a2061646472657373207a65726f206973206e6f7420612076616044820152683634b21037bbb732b960b91b6064820152608401610652565b506001600160a01b031660009081526003602052604090205490565b6000610af182611276565b610b0d5760405162461bcd60e51b815260040161065290611fe4565b506000908152600c602052604090206003015460ff1690565b60009182526008602090815260408084206001600160a01b0393909316845291905290205460ff1690565b60606001805461053490611f5d565b6000610b6b8161117f565b6103e86001600160601b0383161115610bb95760405162461bcd60e51b815260206004820152601060248201526f0a4def2c2d8e8f240e8dede40d0d2ced60831b6044820152606401610652565b610bc333836112ad565b6040516001600160601b03831681527f09f652c43a153aad8aeeb134565ec23d0abf6b03738fdf4aa2afbb2561c520279060200160405180910390a15050565b6107e13383836113aa565b610c183383610ee3565b610c345760405162461bcd60e51b815260040161065290611f97565b610c4084848484611478565b50505050565b60006001600160a01b0384161580610c6557506001600160a01b038316155b15610c7257506000610c9e565b610c7b82611276565b610c8757506000610c9e565b506000818152600c602052604090206003015460ff165b9392505050565b6060610cb082610e22565b6000610cc760408051602081019091526000815290565b90506000815111610ce75760405180602001604052806000815250610c9e565b80610cf1846114ab565b604051602001610d02929190612013565b6040516020818303038152906040529392505050565b600082815260086020526040902060010154610d338161117f565b6106f3838361120f565b610d7a6040518060a0016040528060008152602001600081526020016000815260200160001515815260200160006001600160a01b031681525090565b610d8382611276565b610d9f5760405162461bcd60e51b815260040161065290611fe4565b506000908152600c6020908152604091829020825160a0810184528154815260018201549281019290925260028101549282019290925260039091015460ff81161515606083015261010090046001600160a01b0316608082015290565b60006001600160e01b03198216637965db0b60e01b148061051f575061051f8261153e565b610e2b81611276565b610e725760405162461bcd60e51b8152602060048201526018602482015277115490cdcc8c4e881a5b9d985b1a59081d1bdad95b88125160421b6044820152606401610652565b50565b600081815260046020526040902080546001600160a01b0319166001600160a01b0384169081179091558190610eaa82610a00565b6001600160a01b03167f8c5be1e5ebec7d5bd14f71427d1e84f3dd0314c0f7b2291e5b200ac8c7c3b92560405160405180910390a45050565b600080610eef83610a00565b9050806001600160a01b0316846001600160a01b03161480610f3657506001600160a01b0380821660009081526005602090815260408083209388168352929052205460ff165b80610f5a5750836001600160a01b0316610f4f846105b7565b6001600160a01b0316145b949350505050565b826001600160a01b0316610f7582610a00565b6001600160a01b031614610f9b5760405162461bcd60e51b815260040161065290612042565b6001600160a01b038216610ffd5760405162461bcd60e51b8152602060048201526024808201527f4552433732313a207472616e7366657220746f20746865207a65726f206164646044820152637265737360e01b6064820152608401610652565b61100a8383836001611563565b826001600160a01b031661101d82610a00565b6001600160a01b0316146110435760405162461bcd60e51b815260040161065290612042565b600081815260046020908152604080832080546001600160a01b03199081169091556001600160a01b0387811680865260038552838620805460001901905590871680865283862080546001019055868652600290945282852080549092168417909155905184937fddf252ad1be2c89b69c2b068fc378daa952ba7f163c4a11628f55a4df523b3ef91a4505050565b60008281526007602090815260408083208151808301909252546001600160a01b038116808352600160a01b9091046001600160601b03169282019290925282916111485750604080518082019091526006546001600160a01b0381168252600160a01b90046001600160601b031660208201525b602081015160009061271090611167906001600160601b03168761209d565b61117191906120b4565b915196919550909350505050565b610e7281336115f3565b6111938282610b26565b6107e15760008281526008602090815260408083206001600160a01b03851684529091529020805460ff191660011790556111cb3390565b6001600160a01b0316816001600160a01b0316837f2f8788117e7eff1d82e926ec794901d17c78024a50270940304540a733656f0d60405160405180910390a45050565b6112198282610b26565b156107e15760008281526008602090815260408083206001600160a01b0385168085529252808320805460ff1916905551339285917ff6391f5c32d9c69d2a47ea670b442974b53935d1edc7fd64eb21e047a839171b9190a45050565b6000908152600260205260409020546001600160a01b0316151590565b6107e182826040518060200160405280600081525061164c565b6127106001600160601b038216111561131b5760405162461bcd60e51b815260206004820152602a60248201527f455243323938313a20726f79616c7479206665652077696c6c206578636565646044820152692073616c65507269636560b01b6064820152608401610652565b6001600160a01b0382166113715760405162461bcd60e51b815260206004820152601960248201527f455243323938313a20696e76616c6964207265636569766572000000000000006044820152606401610652565b604080518082019091526001600160a01b039092168083526001600160601b039091166020909201829052600160a01b90910217600655565b816001600160a01b0316836001600160a01b03160361140b5760405162461bcd60e51b815260206004820152601960248201527f4552433732313a20617070726f766520746f2063616c6c6572000000000000006044820152606401610652565b6001600160a01b03838116600081815260056020908152604080832094871680845294825291829020805460ff191686151590811790915591519182527f17307eab39ab6107e8899845ad3d59bd9653f200f220920489ca2b5937696c31910160405180910390a3505050565b611483848484610f62565b61148f8484848461167f565b610c405760405162461bcd60e51b8152600401610652906120d6565b606060006114b883611780565b600101905060008167ffffffffffffffff8111156114d8576114d8611e41565b6040519080825280601f01601f191660200182016040528015611502576020820181803683370190505b5090508181016020015b600019016f181899199a1a9b1b9c1cb0b131b232b360811b600a86061a8153600a850494508461150c57509392505050565b60006001600160e01b0319821663152a902d60e11b148061051f575061051f82611858565b6001600160a01b03841615610c405760005b818110156115ec5760006115898285612128565b9050611596868683610c46565b6115d95760405162461bcd60e51b8152602060048201526014602482015273151c985b9cd9995c881b9bdd08185b1b1bddd95960621b6044820152606401610652565b50806115e48161213b565b915050611575565b5050505050565b6115fd8282610b26565b6107e15761160a816118a8565b6116158360206118ba565b604051602001611626929190612154565b60408051601f198184030181529082905262461bcd60e51b825261065291600401611c54565b6116568383611a56565b611663600084848461167f565b6106f35760405162461bcd60e51b8152600401610652906120d6565b60006001600160a01b0384163b1561177557604051630a85bd0160e11b81526001600160a01b0385169063150b7a02906116c39033908990889088906004016121c9565b6020604051808303816000875af19250505080156116fe575060408051601f3d908101601f191682019092526116fb91810190612206565b60015b61175b573d80801561172c576040519150601f19603f3d011682016040523d82523d6000602084013e611731565b606091505b5080516000036117535760405162461bcd60e51b8152600401610652906120d6565b805181602001fd5b6001600160e01b031916630a85bd0160e11b149050610f5a565b506001949350505050565b60008072184f03e93ff9f4daa797ed6e38ed64bf6a1f0160401b83106117bf5772184f03e93ff9f4daa797ed6e38ed64bf6a1f0160401b830492506040015b6d04ee2d6d415b85acef810000000083106117eb576d04ee2d6d415b85acef8100000000830492506020015b662386f26fc10000831061180957662386f26fc10000830492506010015b6305f5e1008310611821576305f5e100830492506008015b612710831061183557612710830492506004015b60648310611847576064830492506002015b600a831061051f5760010192915050565b60006001600160e01b031982166380ac58cd60e01b148061188957506001600160e01b03198216635b5e139f60e01b145b8061051f57506301ffc9a760e01b6001600160e01b031983161461051f565b606061051f6001600160a01b03831660145b606060006118c983600261209d565b6118d4906002612128565b67ffffffffffffffff8111156118ec576118ec611e41565b6040519080825280601f01601f191660200182016040528015611916576020820181803683370190505b509050600360fc1b8160008151811061193157611931612223565b60200101906001600160f81b031916908160001a905350600f60fb1b8160018151811061196057611960612223565b60200101906001600160f81b031916908160001a905350600061198484600261209d565b61198f906001612128565b90505b6001811115611a07576f181899199a1a9b1b9c1cb0b131b232b360811b85600f16601081106119c3576119c3612223565b1a60f81b8282815181106119d9576119d9612223565b60200101906001600160f81b031916908160001a90535060049490941c93611a0081612239565b9050611992565b508315610c9e5760405162461bcd60e51b815260206004820181905260248201527f537472696e67733a20686578206c656e67746820696e73756666696369656e746044820152606401610652565b6001600160a01b038216611aac5760405162461bcd60e51b815260206004820181905260248201527f4552433732313a206d696e7420746f20746865207a65726f20616464726573736044820152606401610652565b611ab581611276565b15611b025760405162461bcd60e51b815260206004820152601c60248201527f4552433732313a20746f6b656e20616c7265616479206d696e746564000000006044820152606401610652565b611b10600083836001611563565b611b1981611276565b15611b665760405162461bcd60e51b815260206004820152601c60248201527f4552433732313a20746f6b656e20616c7265616479206d696e746564000000006044820152606401610652565b6001600160a01b038216600081815260036020908152604080832080546001019055848352600290915280822080546001600160a01b0319168417905551839291907fddf252ad1be2c89b69c2b068fc378daa952ba7f163c4a11628f55a4df523b3ef908290a45050565b6001600160e01b031981168114610e7257600080fd5b600060208284031215611bf957600080fd5b8135610c9e81611bd1565b60005b83811015611c1f578181015183820152602001611c07565b50506000910152565b60008151808452611c40816020860160208601611c04565b601f01601f19169290920160200192915050565b602081526000610c9e6020830184611c28565b600060208284031215611c7957600080fd5b5035919050565b80356001600160a01b0381168114611c9757600080fd5b919050565b60008060408385031215611caf57600080fd5b611cb883611c80565b946020939093013593505050565b600080600060608486031215611cdb57600080fd5b611ce484611c80565b9250611cf260208501611c80565b9150604084013590509250925092565b60008060408385031215611d1557600080fd5b50508035926020909101359150565b60008060408385031215611d3757600080fd5b82359150611d4760208401611c80565b90509250929050565b80358015158114611c9757600080fd5b60008060408385031215611d7357600080fd5b82359150611d4760208401611d50565b600080600080600060a08688031215611d9b57600080fd5b611da486611c80565b9450602086013593506040860135925060608601359150611dc760808701611d50565b90509295509295909350565b600060208284031215611de557600080fd5b610c9e82611c80565b600060208284031215611e0057600080fd5b81356001600160601b0381168114610c9e57600080fd5b60008060408385031215611e2a57600080fd5b611e3383611c80565b9150611d4760208401611d50565b634e487b7160e01b600052604160045260246000fd5b60008060008060808587031215611e6d57600080fd5b611e7685611c80565b9350611e8460208601611c80565b925060408501359150606085013567ffffffffffffffff80821115611ea857600080fd5b818701915087601f830112611ebc57600080fd5b813581811115611ece57611ece611e41565b604051601f8201601f19908116603f01168101908382118183101715611ef657611ef6611e41565b816040528281528a6020848701011115611f0f57600080fd5b82602086016020830137600060208483010152809550505050505092959194509250565b60008060408385031215611f4657600080fd5b611f4f83611c80565b9150611d4760208401611c80565b600181811c90821680611f7157607f821691505b602082108103611f9157634e487b7160e01b600052602260045260246000fd5b50919050565b6020808252602d908201527f4552433732313a2063616c6c6572206973206e6f7420746f6b656e206f776e6560408201526c1c881bdc88185c1c1c9bdd9959609a1b606082015260800190565b602080825260159082015274151a58dad95d08191bd95cc81b9bdd08195e1a5cdd605a1b604082015260600190565b60008351612025818460208801611c04565b835190830190612039818360208801611c04565b01949350505050565b60208082526025908201527f4552433732313a207472616e736665722066726f6d20696e636f72726563742060408201526437bbb732b960d91b606082015260800190565b634e487b7160e01b600052601160045260246000fd5b808202811582820484141761051f5761051f612087565b6000826120d157634e487b7160e01b600052601260045260246000fd5b500490565b60208082526032908201527f4552433732313a207472616e7366657220746f206e6f6e20455243373231526560408201527131b2b4bb32b91034b6b83632b6b2b73a32b960711b606082015260800190565b8082018082111561051f5761051f612087565b60006001820161214d5761214d612087565b5060010190565b7f416363657373436f6e74726f6c3a206163636f756e742000000000000000000081526000835161218c816017850160208801611c04565b7001034b99036b4b9b9b4b733903937b6329607d1b60179184019182015283516121bd816028840160208801611c04565b01602801949350505050565b6001600160a01b03858116825284166020820152604081018390526080606082018190526000906121fc90830184611c28565b9695505050505050565b60006020828403121561221857600080fd5b8151610c9e81611bd1565b634e487b7160e01b600052603260045260246000fd5b60008161224857612248612087565b50600019019056fea264697066735822122020c722a3982cf0229da3c0c4f077498a037ab85ab349796729a77aaaa4951d0564736f6c63430008130033",
  "linkReferences": {},
  "deployedLinkReferences": {}
}