{
  "_format": "hh-sol-artifact-1",
  "contractName": "XAOToken",
  "sourceName": "contracts/XAOToken.sol",
  "abi": [
    {
      "inputs": [],
      "stateMutability": "nonpayable",
      "type": "constructor"
    },
    {
      "inputs": [],
      "name": "InvalidShortString",
      "type": "error"
    },
    {
      "inputs": [
        {
          "internalType": "string",
          "name": "str",
          "type": "string"
        }
      ],
      "name": "StringTooLong",
      "type": "error"
    },
    {
      "anonymous": false,
      "inputs": [
        {
          "indexed": true,
          "internalType": "address",
          "name": "owner",
          "type": "address"
        },
        {
          "indexed": true,
          "internalType": "address",
          "name": "spender",
          "type": "address"
        },
        {
          "indexed": false,
          "internalType": "uint256",
          "name": "value",
          "type": "uint256"
        }
      ],
      "name": "Approval",
      "type": "event"
    },
    {
      "anonymous": false,
      "inputs": [],
      "name": "EIP712DomainChanged",
      "type": "event"
    },
    {
      "anonymous": false,
      "inputs": [
        {
          "indexed": true,
          "internalType": "address",
          "name": "previousOwner",
          "type": "address"
        },
        {
          "indexed": true,
          "internalType": "address",
          "name": "newOwner",
          "type": "address"
        }
      ],
      "name": "OwnershipTransferred",
      "type": "event"
    },
    {
      "anonymous": false,
      "inputs": [
        {
          "indexed": false,
          "internalType": "address",
          "name": "account",
          "type": "address"
        }
      ],
      "name": "Paused",
      "type": "event"
    },
    {
      "anonymous": false,
      "inputs": [
        {
          "indexed": true,
          "internalType": "address",
          "name": "member",
          "type": "address"
        },
        {
          "indexed": false,
          "internalType": "uint256",
          "name": "allocation",
          "type": "uint256"
        }
      ],
      "name": "TeamMemberAdded",
      "type": "event"
    },
    {
      "anonymous": false,
      "inputs": [
        {
          "indexed": true,
          "internalType": "address",
          "name": "member",
          "type": "address"
        },
        {
          "indexed": false,
          "internalType": "uint256",
          "name": "amount",
          "type": "uint256"
        }
      ],
      "name": "TeamTokensClaimed",
      "type": "event"
    },
    {
      "anonymous": false,
      "inputs": [
        {
          "indexed": true,
          "internalType": "address",
          "name": "from",
          "type": "address"
        },
        {
          "indexed": true,
          "internalType": "address",
          "name": "to",
          "type": "address"
        },
        {
          "indexed": false,
          "internalType": "uint256",
          "name": "value",
          "type": "uint256"
        }
      ],
      "name": "Transfer",
      "type": "event"
    },
    {
      "anonymous": false,
      "inputs": [
        {
          "indexed": true,
          "internalType": "address",
          "name": "account",
          "type": "address"
        },
        {
          "indexed": false,
          "internalType": "bool",
          "name": "exempt",
          "type": "bool"
        }
      ],
      "name": "TransferDelayExemptionUpdated",
      "type": "event"
    },
    {
      "anonymous": false,
      "inputs": [
        {
          "indexed": false,
          "internalType": "address",
          "name": "account",
          "type": "address"
        }
      ],
      "name": "Unpaused",
      "type": "event"
    },
    {
      "inputs": [],
      "name": "DOMAIN_SEPARATOR",
      "outputs": [
        {
          "internalType": "bytes32",
          "name": "",
          "type": "bytes32"
        }
      ],
      "stateMutability": "view",
      "type": "function"
    },
    {
      "inputs": [],
      "name": "INITIAL_SUPPLY",
      "outputs": [
        {
          "internalType": "uint256",
          "name": "",
          "type": "uint256"
        }
      ],
      "stateMutability": "view",
      "type": "function"
    },
    {
      "inputs": [],
      "name": "TEAM_ALLOCATION",
      "outputs": [
        {
          "internalType": "uint256",
          "name": "",
          "type": "uint256"
        }
      ],
      "stateMutability": "view",
      "type": "function"
    },
    {
      "inputs": [],
      "name": "TRANSFER_DELAY",
      "outputs": [
        {
          "internalType": "uint256",
          "name": "",
          "type": "uint256"
        }
      ],
      "stateMutability": "view",
      "type": "function"
    },
    {
      "inputs": [],
      "name": "VESTING_CLIFF",
      "outputs": [
        {
          "internalType": "uint256",
          "name": "",
          "type": "uint256"
        }
      ],
      "stateMutability": "view",
      "type": "function"
    },
    {
      "inputs": [],
      "name": "VESTING_DURATION",
      "outputs": [
        {
          "internalType": "uint256",
          "name": "",
          "type": "uint256"
        }
      ],
      "stateMutability": "view",
      "type": "function"
    },
    {
      "inputs": [
        {
          "internalType": "address",
          "name": "member",
          "type": "address"
        },
        {
          "internalType": "uint256",
          "name": "allocation",
          "type": "uint256"
        }
      ],
      "name": "addTeamMember",
      "outputs": [],
      "stateMutability": "nonpayable",
      "type": "function"
    },
    {
      "inputs": [
        {
          "internalType": "address",
          "name": "owner",
          "type": "address"
        },
        {
          "internalType": "address",
          "name": "spender",
          "type": "address"
        }
      ],
      "name": "allowance",
      "outputs": [
        {
          "internalType": "uint256",
          "name": "",
          "type": "uint256"
        }
      ],
      "stateMutability": "view",
      "type": "function"
    },
    {
      "inputs": [
        {
          "internalType": "address",
          "name": "spender",
          "type": "address"
        },
        {
          "internalType": "uint256",
          "name": "amount",
          "type": "uint256"
        }
      ],
      "name": "approve",
      "outputs": [
        {
          "internalType": "bool",
          "name": "",
          "type": "bool"
        }
      ],
      "stateMutability": "nonpayable",
      "type": "function"
    },
    {
      "inputs": [
        {
          "internalType": "address",
          "name": "account",
          "type": "address"
        }
      ],
      "name": "balanceOf",
      "outputs": [
        {
          "internalType": "uint256",
          "name": "",
          "type": "uint256"
        }
      ],
      "stateMutability": "view",
      "type": "function"
    },
    {
      "inputs": [
        {
          "internalType": "address",
          "name": "member",
          "type": "address"
        }
      ],
      "name": "calculateVestedAmount",
      "outputs": [
        {
          "internalType": "uint256",
          "name": "",
          "type": "uint256"
        }
      ],
      "stateMutability": "view",
      "type": "function"
    },
    {
      "inputs": [],
      "name": "claimTeamTokens",
      "outputs": [],
      "stateMutability": "nonpayable",
      "type": "function"
    },
    {
      "inputs": [],
      "name": "decimals",
      "outputs": [
        {
          "internalType": "uint8",
          "name": "",
          "type": "uint8"
        }
      ],
      "stateMutability": "view",
      "type": "function"
    },
    {
      "inputs": [
        {
          "internalType": "address",
          "name": "spender",
          "type": "address"
        },
        {
          "internalType": "uint256",
          "name": "subtractedValue",
          "type": "uint256"
        }
      ],
      "name": "decreaseAllowance",
      "outputs": [
        {
          "internalType": "bool",
          "name": "",
          "type": "bool"
        }
      ],
      "stateMutability": "nonpayable",
      "type": "function"
    },
    {
      "inputs": [],
      "name": "eip712Domain",
      "outputs": [
        {
          "internalType": "bytes1",
          "name": "fields",
          "type": "bytes1"
        },
        {
          "internalType": "string",
          "name": "name",
          "type": "string"
        },
        {
          "internalType": "string",
          "name": "version",
          "type": "string"
        },
        {
          "internalType": "uint256",
          "name": "chainId",
          "type": "uint256"
        },
        {
          "internalType": "address",
          "name": "verifyingContract",
          "type": "address"
        },
        {
          "internalType": "bytes32",
          "name": "salt",
          "type": "bytes32"
        },
        {
          "internalType": "uint256[]",
          "name": "extensions",
          "type": "uint256[]"
        }
      ],
      "stateMutability": "view",
      "type": "function"
    },
    {
      "inputs": [
        {
          "internalType": "address",
          "name": "spender",
          "type": "address"
        },
        {
          "internalType": "uint256",
          "name": "addedValue",
          "type": "uint256"
        }
      ],
      "name": "increaseAllowance",
      "outputs": [
        {
          "internalType": "bool",
          "name": "",
          "type": "bool"
        }
      ],
      "stateMutability": "nonpayable",
      "type": "function"
    },
    {
      "inputs": [
        {
          "internalType": "address",
          "name": "",
          "type": "address"
        }
      ],
      "name": "lastTransferTime",
      "outputs": [
        {
          "internalType": "uint256",
          "name": "",
          "type": "uint256"
        }
      ],
      "stateMutability": "view",
      "type": "function"
    },
    {
      "inputs": [],
      "name": "name",
      "outputs": [
        {
          "internalType": "string",
          "name": "",
          "type": "string"
        }
      ],
      "stateMutability": "view",
      "type": "function"
    },
    {
      "inputs": [
        {
          "internalType": "address",
          "name": "owner",
          "type": "address"
        }
      ],
      "name": "nonces",
      "outputs": [
        {
          "internalType": "uint256",
          "name": "",
          "type": "uint256"
        }
      ],
      "stateMutability": "view",
      "type": "function"
    },
    {
      "inputs": [],
      "name": "owner",
      "outputs": [
        {
          "internalType": "address",
          "name": "",
          "type": "address"
        }
      ],
      "stateMutability": "view",
      "type": "function"
    },
    {
      "inputs": [],
      "name": "pause",
      "outputs": [],
      "stateMutability": "nonpayable",
      "type": "function"
    },
    {
      "inputs": [],
      "name": "paused",
      "outputs": [
        {
          "internalType": "bool",
          "name": "",
          "type": "bool"
        }
      ],
      "stateMutability": "view",
      "type": "function"
    },
    {
      "inputs": [
        {
          "internalType": "address",
          "name": "owner",
          "type": "address"
        },
        {
          "internalType": "address",
          "name": "spender",
          "type": "address"
        },
        {
          "internalType": "uint256",
          "name": "value",
          "type": "uint256"
        },
        {
          "internalType": "uint256",
          "name": "deadline",
          "type": "uint256"
        },
        {
          "internalType": "uint8",
          "name": "v",
          "type": "uint8"
        },
        {
          "internalType": "bytes32",
          "name": "r",
          "type": "bytes32"
        },
        {
          "internalType": "bytes32",
          "name": "s",
          "type": "bytes32"
        }
      ],
      "name": "permit",
      "outputs": [],
      "stateMutability": "nonpayable",
      "type": "function"
    },
    {
      "inputs": [],
      "name": "renounceOwnership",
      "outputs": [],
      "stateMutability": "nonpayable",
      "type": "function"
    },
    {
      "inputs": [
        {
          "internalType": "address",
          "name": "account",
          "type": "address"
        },
        {
          "internalType": "bool",
          "name": "exempt",
          "type": "bool"
        }
      ],
      "name": "setTransferDelayExempt",
      "outputs": [],
      "stateMutability": "nonpayable",
      "type": "function"
    },
    {
      "inputs": [],
      "name": "symbol",
      "outputs": [
        {
          "internalType": "string",
          "name": "",
          "type": "string"
        }
      ],
      "stateMutability": "view",
      "type": "function"
    },
    {
      "inputs": [
        {
          "internalType": "address",
          "name": "",
          "type": "address"
        }
      ],
      "name": "teamMembers",
      "outputs": [
        {
          "internalType": "uint256",
          "name": "allocation",
          "type": "uint256"
        },
        {
          "internalType": "uint256",
          "name": "claimed",
          "type": "uint256"
        },
        {
          "internalType": "uint256",
          "name": "vestingStart",
          "type": "uint256"
        },
        {
          "internalType": "bool",
          "name": "isActive",
          "type": "bool"
        }
      ],
      "stateMutability": "view",
      "type": "function"
    },
    {
      "inputs": [],
      "name": "totalSupply",
      "outputs": [
        {
          "internalType": "uint256",
          "name": "",
          "type": "uint256"
        }
      ],
      "stateMutability": "view",
      "type": "function"
    },
    {
      "inputs": [],
      "name": "totalTeamAllocated",
      "outputs": [
        {
          "internalType": "uint256",
          "name": "",
          "type": "uint256"
        }
      ],
      "stateMutability": "view",
      "type": "function"
    },
    {
      "inputs": [
        {
          "internalType": "address",
          "name": "to",
          "type": "address"
        },
        {
          "internalType": "uint256",
          "name": "amount",
          "type": "uint256"
        }
      ],
      "name": "transfer",
      "outputs": [
        {
          "internalType": "bool",
          "name": "",
          "type": "bool"
        }
      ],
      "stateMutability": "nonpayable",
      "type": "function"
    },
    {
      "inputs": [
        {
          "internalType": "address",
          "name": "",
          "type": "address"
        }
      ],
      "name": "transferDelayExempt",
      "outputs": [
        {
          "internalType": "bool",
          "name": "",
          "type": "bool"
        }
      ],
      "stateMutability": "view",
      "type": "function"
    },
    {
      "inputs": [
        {
          "internalType": "address",
          "name": "from",
          "type": "address"
        },
        {
          "internalType": "address",
          "name": "to",
          "type": "address"
        },
        {
          "internalType": "uint256",
          "name": "amount",
          "type": "uint256"
        }
      ],
      "name": "transferFrom",
      "outputs": [
        {
          "internalType": "bool",
          "name": "",
          "type": "bool"
        }
      ],
      "stateMutability": "nonpayable",
      "type": "function"
    },
    {
      "inputs": [
        {
          "internalType": "address",
          "name": "newOwner",
          "type": "address"
        }
      ],
      "name": "transferOwnership",
      "outputs": [],
      "stateMutability": "nonpayable",
      "type": "function"
    },
    {
      "inputs": [],
      "name": "unpause",
      "outputs": [],
      "stateMutability": "nonpayable",
      "type": "function"
    }
  ],
  "bytecode": "0x6101606040523480156200001257600080fd5b50604051806040016040528060098152602001682c20a7902a37b5b2b760b91b81525080604051806040016040528060018152602001603160f81b815250604051806040016040528060098152602001682c20a7902a37b5b2b760b91b8152506040518060400160405280600381526020016258414f60e81b81525081600390816200009f91906200059e565b506004620000ae82826200059e565b50620000c091508390506005620001ce565b61012052620000d1816006620001ce565b61014052815160208084019190912060e052815190820120610100524660a0526200015f60e05161010051604080517f8b73c3c69bb8fe3d512ecc4cf759cc79239f7b179b0ffacaa9a75d522b39400f60208201529081019290925260608201524660808201523060a082015260009060c00160405160208183030381529060405280519060200120905090565b60805250503060c052506009805460ff191690556200017e3362000207565b620001c833620001c26064620001a26b033b2e3c9fd0803ce8000000601462000680565b620001ae91906200069a565b6b033b2e3c9fd0803ce80000009062000261565b62000276565b6200075e565b6000602083511015620001ee57620001e6836200034b565b905062000201565b81620001fb84826200059e565b5060ff90505b92915050565b600980546001600160a01b03838116610100818102610100600160a81b031985161790945560405193909204169182907f8be0079c531659141344cd1fd0a4f28419497f9722a3daafe3b4186f6b6457e090600090a35050565b60006200026f8284620006bd565b9392505050565b6001600160a01b038216620002d25760405162461bcd60e51b815260206004820152601f60248201527f45524332303a206d696e7420746f20746865207a65726f20616464726573730060448201526064015b60405180910390fd5b620002e0600083836200038e565b8060026000828254620002f49190620006d3565b90915550506001600160a01b038216600081815260208181526040808320805486019055518481527fddf252ad1be2c89b69c2b068fc378daa952ba7f163c4a11628f55a4df523b3ef910160405180910390a35050565b600080829050601f8151111562000379578260405163305a27a960e01b8152600401620002c99190620006e9565b8051620003868262000739565b179392505050565b60095460ff1615620003e35760405162461bcd60e51b815260206004820152601560248201527f546f6b656e207472616e736665722070617573656400000000000000000000006044820152606401620002c9565b6001600160a01b038316158015906200041557506001600160a01b0383166000908152600c602052604090205460ff16155b1562000493576001600160a01b0383166000908152600b60205260409020546200044290610e10620004ec565b421015620004935760405162461bcd60e51b815260206004820152601660248201527f5472616e736665722064656c6179206e6f74206d6574000000000000000000006044820152606401620002c9565b6001600160a01b03831615801590620004c557506001600160a01b0383166000908152600c602052604090205460ff16155b15620004e7576001600160a01b0383166000908152600b602052604090204290555b505050565b60006200026f8284620006d3565b634e487b7160e01b600052604160045260246000fd5b600181811c908216806200052557607f821691505b6020821081036200054657634e487b7160e01b600052602260045260246000fd5b50919050565b601f821115620004e757600081815260208120601f850160051c81016020861015620005755750805b601f850160051c820191505b81811015620005965782815560010162000581565b505050505050565b81516001600160401b03811115620005ba57620005ba620004fa565b620005d281620005cb845462000510565b846200054c565b602080601f8311600181146200060a5760008415620005f15750858301515b600019600386901b1c1916600185901b17855562000596565b600085815260208120601f198616915b828110156200063b578886015182559484019460019091019084016200061a565b50858210156200065a5787850151600019600388901b60f8161c191681555b5050505050600190811b01905550565b634e487b7160e01b600052601160045260246000fd5b80820281158282048414176200020157620002016200066a565b600082620006b857634e487b7160e01b600052601260045260246000fd5b500490565b818103818111156200020157620002016200066a565b808201808211156200020157620002016200066a565b600060208083528351808285015260005b818110156200071857858101830151858201604001528201620006fa565b506000604082860101526040601f19601f8301168501019250505092915050565b80516020808301519190811015620005465760001960209190910360031b1b16919050565b60805160a05160c05160e051610100516101205161014051611db5620007b960003960006107db015260006107b00152600061132f01526000611307015260006112620152600061128c015260006112b60152611db56000f3fe608060405234801561001057600080fd5b50600436106102065760003560e01c806370a082311161011a578063a457c2d7116100ad578063d505accf1161007c578063d505accf14610481578063dd62ed3e14610494578063f2fde38b146104a7578063fd99cbed146104ba578063ffa06b2a146104c257600080fd5b8063a457c2d7146103ee578063a9059cbb14610401578063b3c95fe214610414578063c836292b1461042757600080fd5b806384b0196e116100e957806384b0196e1461038f5780638d13192b146103aa5780638da5cb5b146103bd57806395d89b41146103e657600080fd5b806370a0823114610343578063715018a61461036c5780637ecebe00146103745780638456cb591461038757600080fd5b80632ff2e9dc1161019d578063395093511161016c57806339509351146103085780633f4ba83a1461031b5780634cfc4d30146103235780635c975abb1461032e57806363f3dbe51461033957600080fd5b80632ff2e9dc146102bb578063313ce567146102ce57806334d533f7146102dd5780633644e5151461030057600080fd5b806318160ddd116101d957806318160ddd146102835780631ac3452b1461029557806323b872dd1461029e5780632af5356a146102b157600080fd5b806306fdde031461020b578063095ea7b3146102295780630d2d8a311461024c57806313758b681461027a575b600080fd5b6102136104d5565b6040516102209190611a98565b60405180910390f35b61023c610237366004611ac7565b610567565b6040519015158152602001610220565b61026c61025a366004611af1565b600b6020526000908152604090205481565b604051908152602001610220565b61026c600d5481565b6b033b2e3c9fd0803ce800000061026c565b61026c610e1081565b61023c6102ac366004611b0c565b610581565b6102b96105a5565b005b61026c6b033b2e3c9fd0803ce800000081565b60405160128152602001610220565b61023c6102eb366004611af1565b600c6020526000908152604090205460ff1681565b61026c61071f565b61023c610316366004611ac7565b61072e565b6102b9610750565b61026c6303b5380081565b60095460ff1661023c565b61026c62ed4e0081565b61026c610351366004611af1565b6001600160a01b031660009081526020819052604090205490565b6102b9610762565b61026c610382366004611af1565b610774565b6102b9610792565b6103976107a2565b6040516102209796959493929190611b48565b6102b96103b8366004611ac7565b61082b565b60095461010090046001600160a01b03166040516001600160a01b039091168152602001610220565b610213610a59565b61023c6103fc366004611ac7565b610a68565b61023c61040f366004611ac7565b610ae3565b6102b9610422366004611bde565b610af1565b61045f610435366004611af1565b600a6020526000908152604090208054600182015460028301546003909301549192909160ff1684565b6040805194855260208501939093529183015215156060820152608001610220565b6102b961048f366004611c1a565b610b51565b61026c6104a2366004611c8d565b610cb5565b6102b96104b5366004611af1565b610ce0565b61026c610d59565b61026c6104d0366004611af1565b610d7f565b6060600380546104e490611cc0565b80601f016020809104026020016040519081016040528092919081815260200182805461051090611cc0565b801561055d5780601f106105325761010080835404028352916020019161055d565b820191906000526020600020905b81548152906001019060200180831161054057829003601f168201915b5050505050905090565b600033610575818585610e25565b60019150505b92915050565b60003361058f858285610f49565b61059a858585610fc3565b506001949350505050565b336000908152600a60205260409020600381015460ff166106015760405162461bcd60e51b81526020600482015260116024820152702737ba1030903a32b0b69036b2b6b132b960791b60448201526064015b60405180910390fd5b60028101546106139062ed4e00611172565b42101561065a5760405162461bcd60e51b815260206004820152601560248201527414dd1a5b1b081a5b8818db1a5999881c195c9a5bd9605a1b60448201526064016105f8565b600061066533610d7f565b9050600061068083600101548361117e90919063ffffffff16565b9050600081116106c75760405162461bcd60e51b81526020600482015260126024820152714e6f20746f6b656e7320746f20636c61696d60701b60448201526064016105f8565b60018301546106d69082611172565b60018401556106e5338261118a565b60405181815233907f32a7537ee28ab9e44edfe4f55db5f08bf3a2bc8c09f2b5e0eaf20715d2609eab9060200160405180910390a2505050565b6000610729611255565b905090565b6000336105758185856107418383610cb5565b61074b9190611d0a565b610e25565b610758611380565b6107606113e0565b565b61076a611380565b6107606000611432565b6001600160a01b03811660009081526007602052604081205461057b565b61079a611380565b61076061148c565b6000606080828080836107d67f000000000000000000000000000000000000000000000000000000000000000060056114c9565b6108017f000000000000000000000000000000000000000000000000000000000000000060066114c9565b60408051600080825260208201909252600f60f81b9b939a50919850469750309650945092509050565b610833611380565b6001600160a01b03821661087b5760405162461bcd60e51b815260206004820152600f60248201526e496e76616c6964206164647265737360881b60448201526064016105f8565b6001600160a01b0382166000908152600a602052604090206003015460ff16156108df5760405162461bcd60e51b815260206004820152601560248201527420b63932b0b23c9030903a32b0b69036b2b6b132b960591b60448201526064016105f8565b600081116109245760405162461bcd60e51b815260206004820152601260248201527124b73b30b634b21030b63637b1b0ba34b7b760711b60448201526064016105f8565b606461093d6b033b2e3c9fd0803ce80000006014611d1d565b6109479190611d34565b600d546109549083611172565b11156109a25760405162461bcd60e51b815260206004820152601760248201527f45786365656473207465616d20616c6c6f636174696f6e00000000000000000060448201526064016105f8565b6040805160808101825282815260006020808301828152428486019081526001606086018181526001600160a01b038a168652600a9094529590932093518455519383019390935551600282015590516003909101805460ff1916911515919091179055600d54610a139082611172565b600d556040518181526001600160a01b038316907f3a039d423feae57db865758a88814c0404d53381c45d2caacd35f3991dc16561906020015b60405180910390a25050565b6060600480546104e490611cc0565b60003381610a768286610cb5565b905083811015610ad65760405162461bcd60e51b815260206004820152602560248201527f45524332303a2064656372656173656420616c6c6f77616e63652062656c6f77604482015264207a65726f60d81b60648201526084016105f8565b61059a8286868403610e25565b600033610575818585610fc3565b610af9611380565b6001600160a01b0382166000818152600c6020908152604091829020805460ff191685151590811790915591519182527faa8aa83243031a8b4cddf3ecadd12e4d417b36f774f349ce9f8d1760abc674849101610a4d565b83421115610ba15760405162461bcd60e51b815260206004820152601d60248201527f45524332305065726d69743a206578706972656420646561646c696e6500000060448201526064016105f8565b60007f6e71edae12b1b97f4d1f60370fef10105fa2faae0126114a169c64845d6126c9888888610bd08c611574565b6040805160208101969096526001600160a01b0394851690860152929091166060840152608083015260a082015260c0810186905260e0016040516020818303038152906040528051906020012090506000610c2b8261159c565b90506000610c3b828787876115c9565b9050896001600160a01b0316816001600160a01b031614610c9e5760405162461bcd60e51b815260206004820152601e60248201527f45524332305065726d69743a20696e76616c6964207369676e6174757265000060448201526064016105f8565b610ca98a8a8a610e25565b50505050505050505050565b6001600160a01b03918216600090815260016020908152604080832093909416825291909152205490565b610ce8611380565b6001600160a01b038116610d4d5760405162461bcd60e51b815260206004820152602660248201527f4f776e61626c653a206e6577206f776e657220697320746865207a65726f206160448201526564647265737360d01b60648201526084016105f8565b610d5681611432565b50565b6064610d726b033b2e3c9fd0803ce80000006014611d1d565b610d7c9190611d34565b81565b6001600160a01b0381166000908152600a60205260408120600381015460ff16610dac5750600092915050565b6002810154610dbe9062ed4e00611172565b421015610dce5750600092915050565b6002810154610de1906303b53800611172565b4210610dee575492915050565b610e1e6303b53800610e18610e1084600201544261117e90919063ffffffff16565b8454906115f1565b906115fd565b9392505050565b6001600160a01b038316610e875760405162461bcd60e51b8152602060048201526024808201527f45524332303a20617070726f76652066726f6d20746865207a65726f206164646044820152637265737360e01b60648201526084016105f8565b6001600160a01b038216610ee85760405162461bcd60e51b815260206004820152602260248201527f45524332303a20617070726f766520746f20746865207a65726f206164647265604482015261737360f01b60648201526084016105f8565b6001600160a01b0383811660008181526001602090815260408083209487168084529482529182902085905590518481527f8c5be1e5ebec7d5bd14f71427d1e84f3dd0314c0f7b2291e5b200ac8c7c3b925910160405180910390a3505050565b6000610f558484610cb5565b90506000198114610fbd5781811015610fb05760405162461bcd60e51b815260206004820152601d60248201527f45524332303a20696e73756666696369656e7420616c6c6f77616e636500000060448201526064016105f8565b610fbd8484848403610e25565b50505050565b6001600160a01b0383166110275760405162461bcd60e51b815260206004820152602560248201527f45524332303a207472616e736665722066726f6d20746865207a65726f206164604482015264647265737360d81b60648201526084016105f8565b6001600160a01b0382166110895760405162461bcd60e51b815260206004820152602360248201527f45524332303a207472616e7366657220746f20746865207a65726f206164647260448201526265737360e81b60648201526084016105f8565b611094838383611609565b6001600160a01b0383166000908152602081905260409020548181101561110c5760405162461bcd60e51b815260206004820152602660248201527f45524332303a207472616e7366657220616d6f756e7420657863656564732062604482015265616c616e636560d01b60648201526084016105f8565b6001600160a01b03848116600081815260208181526040808320878703905593871680835291849020805487019055925185815290927fddf252ad1be2c89b69c2b068fc378daa952ba7f163c4a11628f55a4df523b3ef910160405180910390a3610fbd565b6000610e1e8284611d0a565b6000610e1e8284611d56565b6001600160a01b0382166111e05760405162461bcd60e51b815260206004820152601f60248201527f45524332303a206d696e7420746f20746865207a65726f20616464726573730060448201526064016105f8565b6111ec60008383611609565b80600260008282546111fe9190611d0a565b90915550506001600160a01b038216600081815260208181526040808320805486019055518481527fddf252ad1be2c89b69c2b068fc378daa952ba7f163c4a11628f55a4df523b3ef910160405180910390a35050565b6000306001600160a01b037f0000000000000000000000000000000000000000000000000000000000000000161480156112ae57507f000000000000000000000000000000000000000000000000000000000000000046145b156112d857507f000000000000000000000000000000000000000000000000000000000000000090565b610729604080517f8b73c3c69bb8fe3d512ecc4cf759cc79239f7b179b0ffacaa9a75d522b39400f60208201527f0000000000000000000000000000000000000000000000000000000000000000918101919091527f000000000000000000000000000000000000000000000000000000000000000060608201524660808201523060a082015260009060c00160405160208183030381529060405280519060200120905090565b6009546001600160a01b036101009091041633146107605760405162461bcd60e51b815260206004820181905260248201527f4f776e61626c653a2063616c6c6572206973206e6f7420746865206f776e657260448201526064016105f8565b6113e861174e565b6009805460ff191690557f5db9ee0a495bf2e6ff9c91a7834c1ba4fdd244a5e8aa4e537bd38aeae4b073aa335b6040516001600160a01b03909116815260200160405180910390a1565b600980546001600160a01b03838116610100818102610100600160a81b031985161790945560405193909204169182907f8be0079c531659141344cd1fd0a4f28419497f9722a3daafe3b4186f6b6457e090600090a35050565b611494611797565b6009805460ff191660011790557f62e78cea01bee320cd4e420270b5ea74000d11b0c9f74754ebdbfc544b05a2586114153390565b606060ff83146114e3576114dc836117dd565b905061057b565b8180546114ef90611cc0565b80601f016020809104026020016040519081016040528092919081815260200182805461151b90611cc0565b80156115685780601f1061153d57610100808354040283529160200191611568565b820191906000526020600020905b81548152906001019060200180831161154b57829003601f168201915b5050505050905061057b565b6001600160a01b03811660009081526007602052604090208054600181018255905b50919050565b600061057b6115a9611255565b8360405161190160f01b8152600281019290925260228201526042902090565b60008060006115da8787878761181c565b915091506115e7816118e0565b5095945050505050565b6000610e1e8284611d1d565b6000610e1e8284611d34565b60095460ff16156116545760405162461bcd60e51b8152602060048201526015602482015274151bdad95b881d1c985b9cd9995c881c185d5cd959605a1b60448201526064016105f8565b6001600160a01b0383161580159061168557506001600160a01b0383166000908152600c602052604090205460ff16155b156116f7576001600160a01b0383166000908152600b60205260409020546116af90610e10611172565b4210156116f75760405162461bcd60e51b8152602060048201526016602482015275151c985b9cd9995c8819195b185e481b9bdd081b595d60521b60448201526064016105f8565b6001600160a01b0383161580159061172857506001600160a01b0383166000908152600c602052604090205460ff16155b15611749576001600160a01b0383166000908152600b602052604090204290555b505050565b60095460ff166107605760405162461bcd60e51b815260206004820152601460248201527314185d5cd8589b194e881b9bdd081c185d5cd95960621b60448201526064016105f8565b60095460ff16156107605760405162461bcd60e51b815260206004820152601060248201526f14185d5cd8589b194e881c185d5cd95960821b60448201526064016105f8565b606060006117ea83611a2a565b604080516020808252818301909252919250600091906020820181803683375050509182525060208101929092525090565b6000807f7fffffffffffffffffffffffffffffff5d576e7357a4501ddfe92f46681b20a083111561185357506000905060036118d7565b6040805160008082526020820180845289905260ff881692820192909252606081018690526080810185905260019060a0016020604051602081039080840390855afa1580156118a7573d6000803e3d6000fd5b5050604051601f1901519150506001600160a01b0381166118d0576000600192509250506118d7565b9150600090505b94509492505050565b60008160048111156118f4576118f4611d69565b036118fc5750565b600181600481111561191057611910611d69565b0361195d5760405162461bcd60e51b815260206004820152601860248201527f45434453413a20696e76616c6964207369676e6174757265000000000000000060448201526064016105f8565b600281600481111561197157611971611d69565b036119be5760405162461bcd60e51b815260206004820152601f60248201527f45434453413a20696e76616c6964207369676e6174757265206c656e6774680060448201526064016105f8565b60038160048111156119d2576119d2611d69565b03610d565760405162461bcd60e51b815260206004820152602260248201527f45434453413a20696e76616c6964207369676e6174757265202773272076616c604482015261756560f01b60648201526084016105f8565b600060ff8216601f81111561057b57604051632cd44ac360e21b815260040160405180910390fd5b6000815180845260005b81811015611a7857602081850181015186830182015201611a5c565b506000602082860101526020601f19601f83011685010191505092915050565b602081526000610e1e6020830184611a52565b80356001600160a01b0381168114611ac257600080fd5b919050565b60008060408385031215611ada57600080fd5b611ae383611aab565b946020939093013593505050565b600060208284031215611b0357600080fd5b610e1e82611aab565b600080600060608486031215611b2157600080fd5b611b2a84611aab565b9250611b3860208501611aab565b9150604084013590509250925092565b60ff60f81b881681526000602060e081840152611b6860e084018a611a52565b8381036040850152611b7a818a611a52565b606085018990526001600160a01b038816608086015260a0850187905284810360c0860152855180825283870192509083019060005b81811015611bcc57835183529284019291840191600101611bb0565b50909c9b505050505050505050505050565b60008060408385031215611bf157600080fd5b611bfa83611aab565b915060208301358015158114611c0f57600080fd5b809150509250929050565b600080600080600080600060e0888a031215611c3557600080fd5b611c3e88611aab565b9650611c4c60208901611aab565b95506040880135945060608801359350608088013560ff81168114611c7057600080fd5b9699959850939692959460a0840135945060c09093013592915050565b60008060408385031215611ca057600080fd5b611ca983611aab565b9150611cb760208401611aab565b90509250929050565b600181811c90821680611cd457607f821691505b60208210810361159657634e487b7160e01b600052602260045260246000fd5b634e487b7160e01b600052601160045260246000fd5b8082018082111561057b5761057b611cf4565b808202811582820484141761057b5761057b611cf4565b600082611d5157634e487b7160e01b600052601260045260246000fd5b500490565b8181038181111561057b5761057b611cf4565b634e487b7160e01b600052602160045260246000fdfea264697066735822122017dddbf7f75cafa38f1da32106871020c64a94c483511fc505f93e418644599864736f6c63430008130033",
  "linkReferences": {},
  "deployedLinkReferences": {}
}