{
  "_format": "hh-sol-artifact-1",
  "contractName": "XAOTreasury",
  "sourceName": "contracts/XAOTreasury.sol",
  "abi": [
    {
      "inputs": [
        {
          "internalType": "address",
          "name": "_xaoStaking",
          "type": "address"
        },
        {
          "internalType": "address",
          "name": "_xaoGovernance",
          "type": "address"
        },
        {
          "internalType": "address[]",
          "name": "initialSigners",
          "type": "address[]"
        },
        {
          "internalType": "uint256",
          "name": "_minSigners",
          "type": "uint256"
        }
      ],
      "stateMutability": "nonpayable",
      "type": "constructor"
    },
    {
      "anonymous": false,
      "inputs": [
        {
          "indexed": true,
          "internalType": "address",
          "name": "pauser",
          "type": "address"
        }
      ],
      "name": "EmergencyPaused",
      "type": "event"
    },
    {
      "anonymous": false,
      "inputs": [
        {
          "indexed": true,
          "internalType": "address",
          "name": "unpauser",
          "type": "address"
        }
      ],
      "name": "EmergencyUnpaused",
      "type": "event"
    },
    {
      "anonymous": false,
      "inputs": [
        {
          "indexed": false,
          "internalType": "uint256",
          "name": "newMinSigners",
          "type": "uint256"
        }
      ],
      "name": "MinSignersUpdated",
      "type": "event"
    },
    {
      "anonymous": false,
      "inputs": [
        {
          "indexed": true,
          "internalType": "address",
          "name": "previousOwner",
          "type": "address"
        },
        {
          "indexed": true,
          "internalType": "address",
          "name": "newOwner",
          "type": "address"
        }
      ],
      "name": "OwnershipTransferred",
      "type": "event"
    },
    {
      "anonymous": false,
      "inputs": [
        {
          "indexed": false,
          "internalType": "address",
          "name": "account",
          "type": "address"
        }
      ],
      "name": "Paused",
      "type": "event"
    },
    {
      "anonymous": false,
      "inputs": [
        {
          "indexed": false,
          "internalType": "uint256",
          "name": "amount",
          "type": "uint256"
        },
        {
          "indexed": false,
          "internalType": "uint256",
          "name": "timestamp",
          "type": "uint256"
        }
      ],
      "name": "ProfitDistributed",
      "type": "event"
    },
    {
      "anonymous": false,
      "inputs": [
        {
          "indexed": true,
          "internalType": "address",
          "name": "signer",
          "type": "address"
        }
      ],
      "name": "SignerAdded",
      "type": "event"
    },
    {
      "anonymous": false,
      "inputs": [
        {
          "indexed": true,
          "internalType": "address",
          "name": "signer",
          "type": "address"
        }
      ],
      "name": "SignerRemoved",
      "type": "event"
    },
    {
      "anonymous": false,
      "inputs": [
        {
          "indexed": false,
          "internalType": "uint256",
          "name": "threshold",
          "type": "uint256"
        },
        {
          "indexed": false,
          "internalType": "uint256",
          "name": "period",
          "type": "uint256"
        }
      ],
      "name": "TimelockParametersUpdated",
      "type": "event"
    },
    {
      "anonymous": false,
      "inputs": [
        {
          "indexed": true,
          "internalType": "address",
          "name": "token",
          "type": "address"
        },
        {
          "indexed": false,
          "internalType": "uint256",
          "name": "timelockThreshold",
          "type": "uint256"
        }
      ],
      "name": "TokenAdded",
      "type": "event"
    },
    {
      "anonymous": false,
      "inputs": [
        {
          "indexed": true,
          "internalType": "address",
          "name": "token",
          "type": "address"
        }
      ],
      "name": "TokenRemoved",
      "type": "event"
    },
    {
      "anonymous": false,
      "inputs": [
        {
          "indexed": true,
          "internalType": "uint256",
          "name": "txId",
          "type": "uint256"
        }
      ],
      "name": "TransactionCancelled",
      "type": "event"
    },
    {
      "anonymous": false,
      "inputs": [
        {
          "indexed": true,
          "internalType": "uint256",
          "name": "txId",
          "type": "uint256"
        },
        {
          "indexed": true,
          "internalType": "address",
          "name": "signer",
          "type": "address"
        }
      ],
      "name": "TransactionConfirmed",
      "type": "event"
    },
    {
      "anonymous": false,
      "inputs": [
        {
          "indexed": true,
          "internalType": "uint256",
          "name": "txId",
          "type": "uint256"
        }
      ],
      "name": "TransactionExecuted",
      "type": "event"
    },
    {
      "anonymous": false,
      "inputs": [
        {
          "indexed": true,
          "internalType": "uint256",
          "name": "txId",
          "type": "uint256"
        },
        {
          "indexed": true,
          "internalType": "address",
          "name": "proposer",
          "type": "address"
        },
        {
          "indexed": true,
          "internalType": "address",
          "name": "target",
          "type": "address"
        },
        {
          "indexed": false,
          "internalType": "uint256",
          "name": "value",
          "type": "uint256"
        },
        {
          "indexed": false,
          "internalType": "bytes",
          "name": "data",
          "type": "bytes"
        }
      ],
      "name": "TransactionProposed",
      "type": "event"
    },
    {
      "anonymous": false,
      "inputs": [
        {
          "indexed": true,
          "internalType": "uint256",
          "name": "txId",
          "type": "uint256"
        },
        {
          "indexed": false,
          "internalType": "uint256",
          "name": "executionTime",
          "type": "uint256"
        }
      ],
      "name": "TransactionTimelocked",
      "type": "event"
    },
    {
      "anonymous": false,
      "inputs": [
        {
          "indexed": false,
          "internalType": "address",
          "name": "account",
          "type": "address"
        }
      ],
      "name": "Unpaused",
      "type": "event"
    },
    {
      "inputs": [],
      "name": "MAX_SIGNERS",
      "outputs": [
        {
          "internalType": "uint256",
          "name": "",
          "type": "uint256"
        }
      ],
      "stateMutability": "view",
      "type": "function"
    },
    {
      "inputs": [],
      "name": "MAX_TIMELOCK",
      "outputs": [
        {
          "internalType": "uint256",
          "name": "",
          "type": "uint256"
        }
      ],
      "stateMutability": "view",
      "type": "function"
    },
    {
      "inputs": [],
      "name": "MIN_SIGNERS_REQUIRED",
      "outputs": [
        {
          "internalType": "uint256",
          "name": "",
          "type": "uint256"
        }
      ],
      "stateMutability": "view",
      "type": "function"
    },
    {
      "inputs": [],
      "name": "MIN_TIMELOCK",
      "outputs": [
        {
          "internalType": "uint256",
          "name": "",
          "type": "uint256"
        }
      ],
      "stateMutability": "view",
      "type": "function"
    },
    {
      "inputs": [
        {
          "internalType": "address",
          "name": "newSigner",
          "type": "address"
        }
      ],
      "name": "addSigner",
      "outputs": [],
      "stateMutability": "nonpayable",
      "type": "function"
    },
    {
      "inputs": [
        {
          "internalType": "address",
          "name": "token",
          "type": "address"
        },
        {
          "internalType": "uint256",
          "name": "_timelockThreshold",
          "type": "uint256"
        }
      ],
      "name": "addSupportedToken",
      "outputs": [],
      "stateMutability": "nonpayable",
      "type": "function"
    },
    {
      "inputs": [
        {
          "internalType": "uint256",
          "name": "txId",
          "type": "uint256"
        }
      ],
      "name": "cancelTransaction",
      "outputs": [],
      "stateMutability": "nonpayable",
      "type": "function"
    },
    {
      "inputs": [
        {
          "internalType": "uint256",
          "name": "txId",
          "type": "uint256"
        }
      ],
      "name": "confirmTransaction",
      "outputs": [],
      "stateMutability": "nonpayable",
      "type": "function"
    },
    {
      "inputs": [],
      "name": "distributeProfit",
      "outputs": [],
      "stateMutability": "nonpayable",
      "type": "function"
    },
    {
      "inputs": [
        {
          "internalType": "uint256",
          "name": "txId",
          "type": "uint256"
        }
      ],
      "name": "executeTransaction",
      "outputs": [],
      "stateMutability": "nonpayable",
      "type": "function"
    },
    {
      "inputs": [],
      "name": "getMinSigners",
      "outputs": [
        {
          "internalType": "uint256",
          "name": "",
          "type": "uint256"
        }
      ],
      "stateMutability": "view",
      "type": "function"
    },
    {
      "inputs": [],
      "name": "getPendingTransactions",
      "outputs": [
        {
          "internalType": "uint256[]",
          "name": "",
          "type": "uint256[]"
        }
      ],
      "stateMutability": "view",
      "type": "function"
    },
    {
      "inputs": [],
      "name": "getSigners",
      "outputs": [
        {
          "internalType": "address[]",
          "name": "",
          "type": "address[]"
        }
      ],
      "stateMutability": "view",
      "type": "function"
    },
    {
      "inputs": [
        {
          "internalType": "uint256",
          "name": "txId",
          "type": "uint256"
        }
      ],
      "name": "getTransaction",
      "outputs": [
        {
          "internalType": "address",
          "name": "proposer",
          "type": "address"
        },
        {
          "internalType": "address",
          "name": "target",
          "type": "address"
        },
        {
          "internalType": "uint256",
          "name": "value",
          "type": "uint256"
        },
        {
          "internalType": "bytes",
          "name": "data",
          "type": "bytes"
        },
        {
          "internalType": "bool",
          "name": "executed",
          "type": "bool"
        },
        {
          "internalType": "uint256",
          "name": "numConfirmations",
          "type": "uint256"
        }
      ],
      "stateMutability": "view",
      "type": "function"
    },
    {
      "inputs": [
        {
          "internalType": "address",
          "name": "staker",
          "type": "address"
        }
      ],
      "name": "getUnclaimedShare",
      "outputs": [
        {
          "internalType": "uint256",
          "name": "",
          "type": "uint256"
        }
      ],
      "stateMutability": "view",
      "type": "function"
    },
    {
      "inputs": [
        {
          "internalType": "uint256",
          "name": "txId",
          "type": "uint256"
        },
        {
          "internalType": "address",
          "name": "signer",
          "type": "address"
        }
      ],
      "name": "isConfirmedBySigner",
      "outputs": [
        {
          "internalType": "bool",
          "name": "",
          "type": "bool"
        }
      ],
      "stateMutability": "view",
      "type": "function"
    },
    {
      "inputs": [
        {
          "internalType": "address",
          "name": "",
          "type": "address"
        }
      ],
      "name": "isValidSigner",
      "outputs": [
        {
          "internalType": "bool",
          "name": "",
          "type": "bool"
        }
      ],
      "stateMutability": "view",
      "type": "function"
    },
    {
      "inputs": [],
      "name": "minSigners",
      "outputs": [
        {
          "internalType": "uint256",
          "name": "",
          "type": "uint256"
        }
      ],
      "stateMutability": "view",
      "type": "function"
    },
    {
      "inputs": [],
      "name": "owner",
      "outputs": [
        {
          "internalType": "address",
          "name": "",
          "type": "address"
        }
      ],
      "stateMutability": "view",
      "type": "function"
    },
    {
      "inputs": [],
      "name": "pause",
      "outputs": [],
      "stateMutability": "nonpayable",
      "type": "function"
    },
    {
      "inputs": [],
      "name": "paused",
      "outputs": [
        {
          "internalType": "bool",
          "name": "",
          "type": "bool"
        }
      ],
      "stateMutability": "view",
      "type": "function"
    },
    {
      "inputs": [],
      "name": "profitDistributionCount",
      "outputs": [
        {
          "internalType": "uint256",
          "name": "",
          "type": "uint256"
        }
      ],
      "stateMutability": "view",
      "type": "function"
    },
    {
      "inputs": [
        {
          "internalType": "uint256",
          "name": "",
          "type": "uint256"
        }
      ],
      "name": "profitShares",
      "outputs": [
        {
          "internalType": "uint256",
          "name": "totalAmount",
          "type": "uint256"
        },
        {
          "internalType": "uint256",
          "name": "perStakeAmount",
          "type": "uint256"
        }
      ],
      "stateMutability": "view",
      "type": "function"
    },
    {
      "inputs": [
        {
          "internalType": "address",
          "name": "target",
          "type": "address"
        },
        {
          "internalType": "uint256",
          "name": "value",
          "type": "uint256"
        },
        {
          "internalType": "bytes",
          "name": "data",
          "type": "bytes"
        },
        {
          "internalType": "address",
          "name": "token",
          "type": "address"
        },
        {
          "internalType": "uint256",
          "name": "tokenAmount",
          "type": "uint256"
        }
      ],
      "name": "proposeTransaction",
      "outputs": [
        {
          "internalType": "uint256",
          "name": "",
          "type": "uint256"
        }
      ],
      "stateMutability": "nonpayable",
      "type": "function"
    },
    {
      "inputs": [
        {
          "internalType": "address",
          "name": "signer",
          "type": "address"
        }
      ],
      "name": "removeSigner",
      "outputs": [],
      "stateMutability": "nonpayable",
      "type": "function"
    },
    {
      "inputs": [
        {
          "internalType": "address",
          "name": "token",
          "type": "address"
        }
      ],
      "name": "removeSupportedToken",
      "outputs": [],
      "stateMutability": "nonpayable",
      "type": "function"
    },
    {
      "inputs": [],
      "name": "renounceOwnership",
      "outputs": [],
      "stateMutability": "nonpayable",
      "type": "function"
    },
    {
      "inputs": [
        {
          "internalType": "uint256",
          "name": "",
          "type": "uint256"
        }
      ],
      "name": "signers",
      "outputs": [
        {
          "internalType": "address",
          "name": "",
          "type": "address"
        }
      ],
      "stateMutability": "view",
      "type": "function"
    },
    {
      "inputs": [
        {
          "internalType": "address",
          "name": "",
          "type": "address"
        }
      ],
      "name": "supportedTokens",
      "outputs": [
        {
          "internalType": "bool",
          "name": "isSupported",
          "type": "bool"
        },
        {
          "internalType": "uint256",
          "name": "timelockThreshold",
          "type": "uint256"
        }
      ],
      "stateMutability": "view",
      "type": "function"
    },
    {
      "inputs": [],
      "name": "timelockPeriod",
      "outputs": [
        {
          "internalType": "uint256",
          "name": "",
          "type": "uint256"
        }
      ],
      "stateMutability": "view",
      "type": "function"
    },
    {
      "inputs": [],
      "name": "timelockThreshold",
      "outputs": [
        {
          "internalType": "uint256",
          "name": "",
          "type": "uint256"
        }
      ],
      "stateMutability": "view",
      "type": "function"
    },
    {
      "inputs": [],
      "name": "transactionCount",
      "outputs": [
        {
          "internalType": "uint256",
          "name": "",
          "type": "uint256"
        }
      ],
      "stateMutability": "view",
      "type": "function"
    },
    {
      "inputs": [
        {
          "internalType": "uint256",
          "name": "",
          "type": "uint256"
        }
      ],
      "name": "transactions",
      "outputs": [
        {
          "internalType": "address",
          "name": "proposer",
          "type": "address"
        },
        {
          "internalType": "address",
          "name": "target",
          "type": "address"
        },
        {
          "internalType": "uint256",
          "name": "value",
          "type": "uint256"
        },
        {
          "internalType": "bytes",
          "name": "data",
          "type": "bytes"
        },
        {
          "internalType": "bool",
          "name": "executed",
          "type": "bool"
        },
        {
          "internalType": "uint256",
          "name": "numConfirmations",
          "type": "uint256"
        },
        {
          "internalType": "uint256",
          "name": "proposedTime",
          "type": "uint256"
        },
        {
          "internalType": "bool",
          "name": "isTimelocked",
          "type": "bool"
        },
        {
          "internalType": "address",
          "name": "token",
          "type": "address"
        },
        {
          "internalType": "uint256",
          "name": "tokenAmount",
          "type": "uint256"
        }
      ],
      "stateMutability": "view",
      "type": "function"
    },
    {
      "inputs": [
        {
          "internalType": "address",
          "name": "newOwner",
          "type": "address"
        }
      ],
      "name": "transferOwnership",
      "outputs": [],
      "stateMutability": "nonpayable",
      "type": "function"
    },
    {
      "inputs": [],
      "name": "unpause",
      "outputs": [],
      "stateMutability": "nonpayable",
      "type": "function"
    },
    {
      "inputs": [
        {
          "internalType": "uint256",
          "name": "newMinSigners",
          "type": "uint256"
        }
      ],
      "name": "updateMinSigners",
      "outputs": [],
      "stateMutability": "nonpayable",
      "type": "function"
    },
    {
      "inputs": [
        {
          "internalType": "uint256",
          "name": "newThreshold",
          "type": "uint256"
        },
        {
          "internalType": "uint256",
          "name": "newPeriod",
          "type": "uint256"
        }
      ],
      "name": "updateTimelockParameters",
      "outputs": [],
      "stateMutability": "nonpayable",
      "type": "function"
    },
    {
      "inputs": [
        {
          "internalType": "address",
          "name": "signer",
          "type": "address"
        }
      ],
      "name": "validateSigner",
      "outputs": [
        {
          "internalType": "bool",
          "name": "",
          "type": "bool"
        }
      ],
      "stateMutability": "view",
      "type": "function"
    },
    {
      "inputs": [],
      "name": "withdrawShare",
      "outputs": [],
      "stateMutability": "nonpayable",
      "type": "function"
    },
    {
      "inputs": [],
      "name": "xaoGovernance",
      "outputs": [
        {
          "internalType": "contract XAOGovernance",
          "name": "",
          "type": "address"
        }
      ],
      "stateMutability": "view",
      "type": "function"
    },
    {
      "inputs": [],
      "name": "xaoStaking",
      "outputs": [
        {
          "internalType": "contract XAOStaking",
          "name": "",
          "type": "address"
        }
      ],
      "stateMutability": "view",
      "type": "function"
    },
    {
      "stateMutability": "payable",
      "type": "receive"
    }
  ],
  "bytecode": "0x60806040523480156200001157600080fd5b50604051620035673803806200356783398101604081905262000034916200047e565b6200003f33620003fb565b600180556002805460ff191690556001600160a01b038416620000a95760405162461bcd60e51b815260206004820152601760248201527f496e76616c6964207374616b696e67206164647265737300000000000000000060448201526064015b60405180910390fd5b6001600160a01b038316620001015760405162461bcd60e51b815260206004820152601a60248201527f496e76616c696420676f7665726e616e636520616464726573730000000000006044820152606401620000a0565b600282511015620001555760405162461bcd60e51b815260206004820152601c60248201527f496e73756666696369656e7420696e697469616c207369676e657273000000006044820152606401620000a0565b600a82511115620001a95760405162461bcd60e51b815260206004820152601460248201527f4d6178207369676e6572732065786365656465640000000000000000000000006044820152606401620000a0565b60028110158015620001bc575081518111155b6200020a5760405162461bcd60e51b815260206004820152601360248201527f496e76616c6964206d696e207369676e657273000000000000000000000000006044820152606401620000a0565b60028054610100600160a81b0319166101006001600160a01b038781169190910291909117909155600380546001600160a01b0319169185169190911790556004819055670de0b6b3a76400006007556201518060085560005b8251811015620003f05760008382815181106200028557620002856200057e565b6020026020010151905060006001600160a01b0316816001600160a01b031603620002f35760405162461bcd60e51b815260206004820152601660248201527f496e76616c6964207369676e65722061646472657373000000000000000000006044820152606401620000a0565b6001600160a01b0381166000908152600b602052604090205460ff1615620003515760405162461bcd60e51b815260206004820152601060248201526f223ab83634b1b0ba329039b4b3b732b960811b6044820152606401620000a0565b6001600160a01b0381166000818152600b6020526040808220805460ff19166001908117909155600d8054918201815583527fd7b6990105719101dabeb77144f2a3385c8033acd3af97e9423a695e81ad1eb50180546001600160a01b03191684179055517f47d1c22a25bb3a5d4e481b9b1e6944c2eade3181a0a20b495ed61d35b5323f249190a25080620003e78162000594565b91505062000264565b5050505050620005bc565b600080546001600160a01b038381166001600160a01b0319831681178455604051919092169283917f8be0079c531659141344cd1fd0a4f28419497f9722a3daafe3b4186f6b6457e09190a35050565b80516001600160a01b03811681146200046357600080fd5b919050565b634e487b7160e01b600052604160045260246000fd5b600080600080608085870312156200049557600080fd5b620004a0856200044b565b93506020620004b18187016200044b565b60408701519094506001600160401b0380821115620004cf57600080fd5b818801915088601f830112620004e457600080fd5b815181811115620004f957620004f962000468565b8060051b604051601f19603f8301168101818110858211171562000521576200052162000468565b60405291825284820192508381018501918b8311156200054057600080fd5b938501935b82851015620005695762000559856200044b565b8452938501939285019262000545565b60609a909a0151989b979a5050505050505050565b634e487b7160e01b600052603260045260246000fd5b600060018201620005b557634e487b7160e01b600052601160045260246000fd5b5060010190565b612f9b80620005cc6000396000f3fe60806040526004361061024a5760003560e01c80638456cb5911610139578063b70f7e84116100b6578063d5f505821161007a578063d5f50582146106d1578063eb12d61e14610701578063ee22610b14610721578063f2008f0a14610741578063f2fde38b1461078a578063fb0c7549146107aa57600080fd5b8063b70f7e841461062a578063b77bf60014610640578063c01a8c8414610656578063d11db83f14610676578063d2bac2f11461069857600080fd5b806394cf795e116100fd57806394cf795e1461058157806394f1825b146105a357806395b144e4146105ba5780639ace38c2146105df5780639b71a1611461061557600080fd5b80638456cb59146104f957806384da41e81461050e5780638a160b541461052e5780638a5714a1146105435780638da5cb5b1461056357600080fd5b80633f4ba83a116101c75780635c975abb1161018b5780635c975abb1461044557806368c4ac261461045d578063710b2b1a146104ae578063715018a6146104c457806376319190146104d957600080fd5b80633f4ba83a146103ab57806343bfe300146103c05780634d8e3d3b146103e057806359ecd657146104005780635b33b0891461041557600080fd5b8063243496711161020e57806324349671146103195780632ecaf6751461032e5780632f0e03b6146103445780633380c0d81461035957806333ea3dc81461037957600080fd5b806304ee788a146102565780630e316ab7146102785780631a5697c0146102985780631b232d1a146102b85780632079fb9a146102e157600080fd5b3661025157005b600080fd5b34801561026257600080fd5b5061027661027136600461283f565b6107c1565b005b34801561028457600080fd5b50610276610293366004612874565b6108ec565b3480156102a457600080fd5b506102766102b336600461288f565b610b82565b3480156102c457600080fd5b506102ce60065481565b6040519081526020015b60405180910390f35b3480156102ed57600080fd5b506103016102fc36600461283f565b610cc5565b6040516001600160a01b0390911681526020016102d8565b34801561032557600080fd5b50610276610cef565b34801561033a57600080fd5b506102ce60085481565b34801561035057600080fd5b506102ce600281565b34801561036557600080fd5b5061027661037436600461283f565b610e1b565b34801561038557600080fd5b5061039961039436600461283f565b610f47565b6040516102d896959493929190612901565b3480156103b757600080fd5b50610276611037565b3480156103cc57600080fd5b506102ce6103db366004612874565b6110ed565b3480156103ec57600080fd5b506102766103fb366004612949565b6111fa565b34801561040c57600080fd5b506102ce600a81565b34801561042157600080fd5b50610435610430366004612973565b6113c7565b60405190151581526020016102d8565b34801561045157600080fd5b5060025460ff16610435565b34801561046957600080fd5b50610497610478366004612874565b600c602052600090815260409020805460019091015460ff9091169082565b6040805192151583526020830191909152016102d8565b3480156104ba57600080fd5b506102ce60075481565b3480156104d057600080fd5b506102766113f6565b3480156104e557600080fd5b506102766104f4366004612874565b611408565b34801561050557600080fd5b5061027661154c565b34801561051a57600080fd5b506102ce61052936600461299f565b611602565b34801561053a57600080fd5b5061027661189d565b34801561054f57600080fd5b50600354610301906001600160a01b031681565b34801561056f57600080fd5b506000546001600160a01b0316610301565b34801561058d57600080fd5b50610596611a61565b6040516102d89190612a45565b3480156105af57600080fd5b506102ce62093a8081565b3480156105c657600080fd5b506002546103019061010090046001600160a01b031681565b3480156105eb57600080fd5b506105ff6105fa36600461283f565b611ac3565b6040516102d89a99989796959493929190612a92565b34801561062157600080fd5b506004546102ce565b34801561063657600080fd5b506102ce60045481565b34801561064c57600080fd5b506102ce60055481565b34801561066257600080fd5b5061027661067136600461283f565b611bb9565b34801561068257600080fd5b5061068b611d12565b6040516102d89190612aff565b3480156106a457600080fd5b506104356106b3366004612874565b6001600160a01b03166000908152600b602052604090205460ff1690565b3480156106dd57600080fd5b506104356106ec366004612874565b600b6020526000908152604090205460ff1681565b34801561070d57600080fd5b5061027661071c366004612874565b611dca565b34801561072d57600080fd5b5061027661073c36600461283f565b611fe0565b34801561074d57600080fd5b5061077561075c36600461283f565b600a602052600090815260409020805460019091015482565b604080519283526020830191909152016102d8565b34801561079657600080fd5b506102766107a5366004612874565b612281565b3480156107b657600080fd5b506102ce6201518081565b336000908152600b602052604090205460ff166107f95760405162461bcd60e51b81526004016107f090612b37565b60405180910390fd5b6002811015801561080c5750600d548111155b61084e5760405162461bcd60e51b8152602060048201526013602482015272496e76616c6964206d696e207369676e65727360681b60448201526064016107f0565b61089533308360405160240161086691815260200190565b60408051601f198184030181529190526020810180516001600160e01b03166302773c4560e11b1790526122fa565b6108b15760405162461bcd60e51b81526004016107f090612b63565b60048190556040518181527fb2de2538215f642da7c7b51ae4d6c2ba3002f22cbe9cd8266fa72ebd4442d7179060200160405180910390a150565b336000908152600b602052604090205460ff1661091b5760405162461bcd60e51b81526004016107f090612b37565b6001600160a01b0381166000908152600b602052604090205460ff166109725760405162461bcd60e51b815260206004820152600c60248201526b2737ba10309039b4b3b732b960a11b60448201526064016107f0565b600454600d54116109bc5760405162461bcd60e51b815260206004820152601460248201527321b0b73737ba103932b6b7bb329039b4b3b732b960611b60448201526064016107f0565b6040516001600160a01b0382166024820152610a08903390309060440160408051601f198184030181529190526020810180516001600160e01b0316630e316ab760e01b1790526122fa565b610a245760405162461bcd60e51b81526004016107f090612b63565b6001600160a01b0381166000908152600b60205260408120805460ff191690555b600d54811015610b4a57816001600160a01b0316600d8281548110610a6c57610a6c612b9a565b6000918252602090912001546001600160a01b031603610b3857600d8054610a9690600190612bc6565b81548110610aa657610aa6612b9a565b600091825260209091200154600d80546001600160a01b039092169183908110610ad257610ad2612b9a565b9060005260206000200160006101000a8154816001600160a01b0302191690836001600160a01b03160217905550600d805480610b1157610b11612bd9565b600082815260209020810160001990810180546001600160a01b0319169055019055610b4a565b80610b4281612bef565b915050610a45565b506040516001600160a01b038216907f3525e22824a8a7df2c9a6029941c824cf95b6447f1e13d5128fd3826d35afe8b90600090a250565b336000908152600b602052604090205460ff16610bb15760405162461bcd60e51b81526004016107f090612b37565b610c0033308484604051602401610bd2929190918252602082015260400190565b60408051601f198184030181529190526020810180516001600160e01b031662695a5f60e61b1790526122fa565b610c1c5760405162461bcd60e51b81526004016107f090612b63565b620151808110158015610c32575062093a808111155b610c7e5760405162461bcd60e51b815260206004820152601760248201527f496e76616c69642074696d656c6f636b20706572696f6400000000000000000060448201526064016107f0565b6007829055600881905560408051838152602081018390527ff34f31be15ce75a78c425f3d14d8bdb1a86184efb3d9f3ef8c1147c1f4f98dac910160405180910390a15050565b600d8181548110610cd557600080fd5b6000918252602090912001546001600160a01b0316905081565b610cf761239d565b6000610d02336110ed565b905060008111610d495760405162461bcd60e51b81526020600482015260126024820152714e6f20756e636c61696d656420736861726560701b60448201526064016107f0565b600654600090610d5a9060016123f6565b6000818152600a602090815260408083203380855260028201909352818420805460ff1916600117905590519394509285908381818185875af1925050503d8060008114610dc4576040519150601f19603f3d011682016040523d82523d6000602084013e610dc9565b606091505b5050905080610e0c5760405162461bcd60e51b815260206004820152600f60248201526e151c985b9cd9995c8819985a5b1959608a1b60448201526064016107f0565b50505050610e1960018055565b565b336000908152600b602052604090205460ff16610e4a5760405162461bcd60e51b81526004016107f090612b37565b806005548110610e6c5760405162461bcd60e51b81526004016107f090612c08565b600082815260096020526040902060040154829060ff1615610ea05760405162461bcd60e51b81526004016107f090612c3f565b600083815260096020526040902080546001600160a01b03163314610f075760405162461bcd60e51b815260206004820152601860248201527f4f6e6c792070726f706f7365722063616e2063616e63656c000000000000000060448201526064016107f0565b60048101805460ff1916600117905560405184907f956fb32199d8b882b2039a14e1be35ab14f7a80b9089fc223f14b43937173e6090600090a250505050565b600081815260096020526040812080546001820154600283015460048401546005850154600386018054889788976060978997889793966001600160a01b03938416969390921694909360ff1691908390610fa190612c76565b80601f0160208091040260200160405190810160405280929190818152602001828054610fcd90612c76565b801561101a5780601f10610fef5761010080835404028352916020019161101a565b820191906000526020600020905b815481529060010190602001808311610ffd57829003601f168201915b505050505092509650965096509650965096505091939550919395565b336000908152600b602052604090205460ff166110665760405162461bcd60e51b81526004016107f090612b37565b6040805160048152602481019091526020810180516001600160e01b0316631fa5d41d60e11b17905261109c90339030906122fa565b6110b85760405162461bcd60e51b81526004016107f090612b63565b6110c0612402565b60405133907ff5cbf596165cc457b2cd92e8d8450827ee314968160a5696402d75766fc52caf90600090a2565b600060065460000361110157506000919050565b6006546000906111129060016123f6565b6000818152600a602090815260408083206001600160a01b038816845260028101909252909120549192509060ff1615611150575060009392505050565b60025460405163c345315360e01b81526001600160a01b0386811660048301526000926101009004169063c345315390602401606060405180830381865afa1580156111a0573d6000803e3d6000fd5b505050506040513d601f19601f820116820180604052508101906111c49190612cb0565b505090506111f1670de0b6b3a76400006111eb84600101548461245490919063ffffffff16565b90612460565b95945050505050565b336000908152600b602052604090205460ff166112295760405162461bcd60e51b81526004016107f090612b37565b6001600160a01b0382166112775760405162461bcd60e51b8152602060048201526015602482015274496e76616c696420746f6b656e206164647265737360581b60448201526064016107f0565b6001600160a01b0382166000908152600c602052604090205460ff16156112e05760405162461bcd60e51b815260206004820152601760248201527f546f6b656e20616c726561647920737570706f7274656400000000000000000060448201526064016107f0565b6040516001600160a01b038316602482015260448101829052611333903390309060640160408051601f198184030181529190526020810180516001600160e01b0316634d8e3d3b60e01b1790526122fa565b61134f5760405162461bcd60e51b81526004016107f090612b63565b604080518082018252600180825260208083018581526001600160a01b0387166000818152600c84528690209451855460ff19169015151785559051939092019290925591518381527ff4c563a3ea86ff1f4275e8c207df0375a51963f2b831b7bf4da8be938d92876c910160405180910390a25050565b60008281526009602081815260408084206001600160a01b0386168552909201905290205460ff165b92915050565b6113fe61246c565b610e1960006124c6565b336000908152600b602052604090205460ff166114375760405162461bcd60e51b81526004016107f090612b37565b6001600160a01b0381166000908152600c602052604090205460ff166114955760405162461bcd60e51b8152602060048201526013602482015272151bdad95b881b9bdd081cdd5c1c1bdc9d1959606a1b60448201526064016107f0565b6040516001600160a01b03821660248201526114e1903390309060440160408051601f198184030181529190526020810180516001600160e01b0316630763191960e41b1790526122fa565b6114fd5760405162461bcd60e51b81526004016107f090612b63565b6001600160a01b0381166000818152600c6020526040808220805460ff19168155600101829055517f4c910b69fe65a61f7531b9c5042b2329ca7179c77290aa7e2eb3afa3c8511fd39190a250565b336000908152600b602052604090205460ff1661157b5760405162461bcd60e51b81526004016107f090612b37565b6040805160048152602481019091526020810180516001600160e01b0316638456cb5960e01b1790526115b190339030906122fa565b6115cd5760405162461bcd60e51b81526004016107f090612b63565b6115d5612516565b60405133907fb8fad2fa0ed7a383e747c309ef2c4391d7b65592a48893e57ccc1fab7079145690600090a2565b600061160c612553565b336000908152600b602052604090205460ff1661163b5760405162461bcd60e51b81526004016107f090612b37565b6001600160a01b03871661168a5760405162461bcd60e51b8152602060048201526016602482015275496e76616c696420746172676574206164647265737360501b60448201526064016107f0565b6001600160a01b038316156116f7576001600160a01b0383166000908152600c602052604090205460ff166116f75760405162461bcd60e51b8152602060048201526013602482015272151bdad95b881b9bdd081cdd5c1c1bdc9d1959606a1b60448201526064016107f0565b60055460008181526009602052604090208054336001600160a01b03199182161782556001820180549091166001600160a01b038b161790556002810188905560038101611746878983612d42565b5060048101805460ff1916905560006005820155426006820155600781018054610100600160a81b0319166101006001600160a01b0388169081029190911790915560088201859055156117c9576001600160a01b0385166000908152600c602052604090206001015460078201805460ff1916918610159190911790556117e1565b60078054908201805460ff1916918a10159190911790555b6005546117ef906001612599565b600555600781015460ff161561184157817ffcfbdf6c694799bdf480e55c904909527806b69f3d7a7a99bc06560a43ce90cf6008544261182f9190612e03565b60405190815260200160405180910390a25b886001600160a01b0316336001600160a01b0316837ff13a7a4144a3232fd093fca16be52a8223bad74cee86d5fa8966c7061e75bfd38b8b8b60405161188993929190612e16565b60405180910390a450979650505050505050565b336000908152600b602052604090205460ff166118cc5760405162461bcd60e51b81526004016107f090612b37565b6118d461239d565b47806119225760405162461bcd60e51b815260206004820152601760248201527f4e6f2070726f66697420746f206469737472696275746500000000000000000060448201526064016107f0565b6000600260019054906101000a90046001600160a01b03166001600160a01b031663817b1cd26040518163ffffffff1660e01b8152600401602060405180830381865afa158015611977573d6000803e3d6000fd5b505050506040513d601f19601f8201168201806040525081019061199b9190612e4c565b9050600081116119da5760405162461bcd60e51b815260206004820152600a6024820152694e6f207374616b65727360b01b60448201526064016107f0565b6006546000818152600a60205260409020838155611a04836111eb86670de0b6b3a7640000612454565b600180830191909155600654611a1991612599565b600655604080518581524260208201527f5fa156a16c825edd8ad1c2bd96f4bc48d9844e12f14d69d8b4a9e72ffb62e8eb910160405180910390a150505050610e1960018055565b6060600d805480602002602001604051908101604052809291908181526020018280548015611ab957602002820191906000526020600020905b81546001600160a01b03168152600190910190602001808311611a9b575b5050505050905090565b60096020526000908152604090208054600182015460028301546003840180546001600160a01b039485169594909316939192611aff90612c76565b80601f0160208091040260200160405190810160405280929190818152602001828054611b2b90612c76565b8015611b785780601f10611b4d57610100808354040283529160200191611b78565b820191906000526020600020905b815481529060010190602001808311611b5b57829003601f168201915b505050506004830154600584015460068501546007860154600890960154949560ff9384169592945090928116916101009091046001600160a01b0316908a565b336000908152600b602052604090205460ff16611be85760405162461bcd60e51b81526004016107f090612b37565b806005548110611c0a5760405162461bcd60e51b81526004016107f090612c08565b600082815260096020526040902060040154829060ff1615611c3e5760405162461bcd60e51b81526004016107f090612c3f565b60008381526009602081815260408084203385529092019052902054839060ff1615611ca05760405162461bcd60e51b8152602060048201526011602482015270105b1c9958591e4818dbdb999a5c9b5959607a1b60448201526064016107f0565b6000848152600960208181526040808420338552928301909152909120805460ff191660019081179091556005820154611cd991612599565b6005820155604051339086907f15c2f311c9e0f53b50388279894aeff029a3457884a6601e924fca879e12adcc90600090a35050505050565b6060600060055467ffffffffffffffff811115611d3157611d31612cde565b604051908082528060200260200182016040528015611d5a578160200160208202803683370190505b5090506000805b600554811015611dc25760008181526009602052604090206004015460ff16611db05780838381518110611d9757611d97612b9a565b602090810291909101015281611dac81612bef565b9250505b80611dba81612bef565b915050611d61565b508152919050565b336000908152600b602052604090205460ff16611df95760405162461bcd60e51b81526004016107f090612b37565b6001600160a01b038116611e485760405162461bcd60e51b8152602060048201526016602482015275496e76616c6964207369676e6572206164647265737360501b60448201526064016107f0565b6001600160a01b0381166000908152600b602052604090205460ff1615611ea45760405162461bcd60e51b815260206004820152601060248201526f20b63932b0b23c90309039b4b3b732b960811b60448201526064016107f0565b600d54600a11611eec5760405162461bcd60e51b815260206004820152601360248201527213585e081cda59db995c9cc81c995858da1959606a1b60448201526064016107f0565b6040516001600160a01b0382166024820152611f38903390309060440160408051601f198184030181529190526020810180516001600160e01b03166375896b0f60e11b1790526122fa565b611f545760405162461bcd60e51b81526004016107f090612b63565b6001600160a01b0381166000818152600b6020526040808220805460ff19166001908117909155600d8054918201815583527fd7b6990105719101dabeb77144f2a3385c8033acd3af97e9423a695e81ad1eb50180546001600160a01b03191684179055517f47d1c22a25bb3a5d4e481b9b1e6944c2eade3181a0a20b495ed61d35b5323f249190a250565b611fe8612553565b336000908152600b602052604090205460ff166120175760405162461bcd60e51b81526004016107f090612b37565b8060055481106120395760405162461bcd60e51b81526004016107f090612c08565b600082815260096020526040902060040154829060ff161561206d5760405162461bcd60e51b81526004016107f090612c3f565b6000838152600960205260409020600454600582015410156120d15760405162461bcd60e51b815260206004820152601a60248201527f496e73756666696369656e7420636f6e6669726d6174696f6e7300000000000060448201526064016107f0565b600781015460ff161561213f5760085481600601546120f09190612e03565b42101561213f5760405162461bcd60e51b815260206004820152601b60248201527f54696d656c6f636b20706572696f64206e6f7420656c6170736564000000000060448201526064016107f0565b60048101805460ff19166001179055600781015461010090046001600160a01b03161561219257600181015460088201546007830154612192926001600160a01b036101009092048216929116906125a5565b60028101541561225057600181015460028201546040516000926001600160a01b031691906121c5906003860190612e65565b60006040518083038185875af1925050503d8060008114612202576040519150601f19603f3d011682016040523d82523d6000602084013e612207565b606091505b505090508061224e5760405162461bcd60e51b8152602060048201526013602482015272115512081d1c985b9cd9995c8819985a5b1959606a1b60448201526064016107f0565b505b60405184907f15ed165a284872ea7017f03df402a0cadfbfab588320ffaf83f160c2f82781c790600090a250505050565b61228961246c565b6001600160a01b0381166122ee5760405162461bcd60e51b815260206004820152602660248201527f4f776e61626c653a206e6577206f776e657220697320746865207a65726f206160448201526564647265737360d01b60648201526084016107f0565b6122f7816124c6565b50565b600354604051632474521560e21b81527fa49807205ce4d355092ef5a8a18f56e8913cf4a201fbe287825b095693c2177560048201526001600160a01b03858116602483015260009216906391d1485490604401602060405180830381865afa925050508015612387575060408051601f3d908101601f1916820190925261238491810190612edb565b60015b61239357506000612396565b90505b9392505050565b6002600154036123ef5760405162461bcd60e51b815260206004820152601f60248201527f5265656e7472616e637947756172643a207265656e7472616e742063616c6c0060448201526064016107f0565b6002600155565b60006123968284612bc6565b61240a6125fc565b6002805460ff191690557f5db9ee0a495bf2e6ff9c91a7834c1ba4fdd244a5e8aa4e537bd38aeae4b073aa335b6040516001600160a01b03909116815260200160405180910390a1565b60006123968284612efd565b60006123968284612f14565b6000546001600160a01b03163314610e195760405162461bcd60e51b815260206004820181905260248201527f4f776e61626c653a2063616c6c6572206973206e6f7420746865206f776e657260448201526064016107f0565b600080546001600160a01b038381166001600160a01b0319831681178455604051919092169283917f8be0079c531659141344cd1fd0a4f28419497f9722a3daafe3b4186f6b6457e09190a35050565b61251e612553565b6002805460ff191660011790557f62e78cea01bee320cd4e420270b5ea74000d11b0c9f74754ebdbfc544b05a2586124373390565b60025460ff1615610e195760405162461bcd60e51b815260206004820152601060248201526f14185d5cd8589b194e881c185d5cd95960821b60448201526064016107f0565b60006123968284612e03565b604080516001600160a01b038416602482015260448082018490528251808303909101815260649091019091526020810180516001600160e01b031663a9059cbb60e01b1790526125f7908490612645565b505050565b60025460ff16610e195760405162461bcd60e51b815260206004820152601460248201527314185d5cd8589b194e881b9bdd081c185d5cd95960621b60448201526064016107f0565b600061269a826040518060400160405280602081526020017f5361666545524332303a206c6f772d6c6576656c2063616c6c206661696c6564815250856001600160a01b031661271a9092919063ffffffff16565b90508051600014806126bb5750808060200190518101906126bb9190612edb565b6125f75760405162461bcd60e51b815260206004820152602a60248201527f5361666545524332303a204552433230206f7065726174696f6e20646964206e6044820152691bdd081cdd58d8d9595960b21b60648201526084016107f0565b6060612393848460008585600080866001600160a01b031685876040516127419190612f36565b60006040518083038185875af1925050503d806000811461277e576040519150601f19603f3d011682016040523d82523d6000602084013e612783565b606091505b5091509150612794878383876127a1565b925050505b949350505050565b60608315612810578251600003612809576001600160a01b0385163b6128095760405162461bcd60e51b815260206004820152601d60248201527f416464726573733a2063616c6c20746f206e6f6e2d636f6e747261637400000060448201526064016107f0565b5081612799565b61279983838151156128255781518083602001fd5b8060405162461bcd60e51b81526004016107f09190612f52565b60006020828403121561285157600080fd5b5035919050565b80356001600160a01b038116811461286f57600080fd5b919050565b60006020828403121561288657600080fd5b61239682612858565b600080604083850312156128a257600080fd5b50508035926020909101359150565b60005b838110156128cc5781810151838201526020016128b4565b50506000910152565b600081518084526128ed8160208601602086016128b1565b601f01601f19169290920160200192915050565b6001600160a01b038781168252861660208201526040810185905260c060608201819052600090612934908301866128d5565b93151560808301525060a00152949350505050565b6000806040838503121561295c57600080fd5b61296583612858565b946020939093013593505050565b6000806040838503121561298657600080fd5b8235915061299660208401612858565b90509250929050565b60008060008060008060a087890312156129b857600080fd5b6129c187612858565b955060208701359450604087013567ffffffffffffffff808211156129e557600080fd5b818901915089601f8301126129f957600080fd5b813581811115612a0857600080fd5b8a6020828501011115612a1a57600080fd5b602083019650809550505050612a3260608801612858565b9150608087013590509295509295509295565b6020808252825182820181905260009190848201906040850190845b81811015612a865783516001600160a01b031683529284019291840191600101612a61565b50909695505050505050565b6001600160a01b038b811682528a81166020830152604082018a905261014060608301819052600091612ac78483018c6128d5565b991515608085015260a0840198909852505060c081019490945291151560e08401529092166101008201526101200152949350505050565b6020808252825182820181905260009190848201906040850190845b81811015612a8657835183529284019291840191600101612b1b565b6020808252601290820152712737ba1030903b30b634b21039b4b3b732b960711b604082015260600190565b6020808252601a908201527f4e6f7420617070726f76656420627920676f7665726e616e6365000000000000604082015260600190565b634e487b7160e01b600052603260045260246000fd5b634e487b7160e01b600052601160045260246000fd5b818103818111156113f0576113f0612bb0565b634e487b7160e01b600052603160045260246000fd5b600060018201612c0157612c01612bb0565b5060010190565b6020808252601a908201527f5472616e73616374696f6e20646f6573206e6f74206578697374000000000000604082015260600190565b6020808252601c908201527f5472616e73616374696f6e20616c726561647920657865637574656400000000604082015260600190565b600181811c90821680612c8a57607f821691505b602082108103612caa57634e487b7160e01b600052602260045260246000fd5b50919050565b600080600060608486031215612cc557600080fd5b8351925060208401519150604084015190509250925092565b634e487b7160e01b600052604160045260246000fd5b601f8211156125f757600081815260208120601f850160051c81016020861015612d1b5750805b601f850160051c820191505b81811015612d3a57828155600101612d27565b505050505050565b67ffffffffffffffff831115612d5a57612d5a612cde565b612d6e83612d688354612c76565b83612cf4565b6000601f841160018114612da25760008515612d8a5750838201355b600019600387901b1c1916600186901b178355612dfc565b600083815260209020601f19861690835b82811015612dd35786850135825560209485019460019092019101612db3565b5086821015612df05760001960f88860031b161c19848701351681555b505060018560011b0183555b5050505050565b808201808211156113f0576113f0612bb0565b83815260406020820152816040820152818360608301376000818301606090810191909152601f909201601f1916010192915050565b600060208284031215612e5e57600080fd5b5051919050565b6000808354612e7381612c76565b60018281168015612e8b5760018114612ea057612ecf565b60ff1984168752821515830287019450612ecf565b8760005260208060002060005b85811015612ec65781548a820152908401908201612ead565b50505082870194505b50929695505050505050565b600060208284031215612eed57600080fd5b8151801515811461239657600080fd5b80820281158282048414176113f0576113f0612bb0565b600082612f3157634e487b7160e01b600052601260045260246000fd5b500490565b60008251612f488184602087016128b1565b9190910192915050565b60208152600061239660208301846128d556fea26469706673582212200534422558f795aaf875d4da992d244cc7f8aa101461e39e6dd632dbbd9ee87164736f6c63430008130033",
  "linkReferences": {},
  "deployedLinkReferences": {}
}