{
  "_format": "hh-sol-artifact-1",
  "contractName": "XAOReputation",
  "sourceName": "contracts/XAOReputation.sol",
  "abi": [
    {
      "inputs": [
        {
          "internalType": "address",
          "name": "_xaoGovernance",
          "type": "address"
        }
      ],
      "stateMutability": "nonpayable",
      "type": "constructor"
    },
    {
      "anonymous": false,
      "inputs": [
        {
          "indexed": true,
          "internalType": "address",
          "name": "user",
          "type": "address"
        },
        {
          "indexed": false,
          "internalType": "enum XAOReputation.Domain",
          "name": "domain",
          "type": "uint8"
        },
        {
          "indexed": false,
          "internalType": "uint256",
          "name": "oldScore",
          "type": "uint256"
        },
        {
          "indexed": false,
          "internalType": "uint256",
          "name": "newScore",
          "type": "uint256"
        }
      ],
      "name": "ReputationDecayed",
      "type": "event"
    },
    {
      "anonymous": false,
      "inputs": [
        {
          "indexed": true,
          "internalType": "address",
          "name": "account",
          "type": "address"
        }
      ],
      "name": "ReputationManagerGranted",
      "type": "event"
    },
    {
      "anonymous": false,
      "inputs": [
        {
          "indexed": true,
          "internalType": "address",
          "name": "account",
          "type": "address"
        }
      ],
      "name": "ReputationManagerRevoked",
      "type": "event"
    },
    {
      "anonymous": false,
      "inputs": [
        {
          "indexed": true,
          "internalType": "address",
          "name": "user",
          "type": "address"
        },
        {
          "indexed": false,
          "internalType": "enum XAOReputation.Domain",
          "name": "domain",
          "type": "uint8"
        },
        {
          "indexed": false,
          "internalType": "uint256",
          "name": "newScore",
          "type": "uint256"
        },
        {
          "indexed": false,
          "internalType": "uint256",
          "name": "timestamp",
          "type": "uint256"
        }
      ],
      "name": "ReputationUpdated",
      "type": "event"
    },
    {
      "anonymous": false,
      "inputs": [
        {
          "indexed": true,
          "internalType": "bytes32",
          "name": "role",
          "type": "bytes32"
        },
        {
          "indexed": true,
          "internalType": "bytes32",
          "name": "previousAdminRole",
          "type": "bytes32"
        },
        {
          "indexed": true,
          "internalType": "bytes32",
          "name": "newAdminRole",
          "type": "bytes32"
        }
      ],
      "name": "RoleAdminChanged",
      "type": "event"
    },
    {
      "anonymous": false,
      "inputs": [
        {
          "indexed": true,
          "internalType": "bytes32",
          "name": "role",
          "type": "bytes32"
        },
        {
          "indexed": true,
          "internalType": "address",
          "name": "account",
          "type": "address"
        },
        {
          "indexed": true,
          "internalType": "address",
          "name": "sender",
          "type": "address"
        }
      ],
      "name": "RoleGranted",
      "type": "event"
    },
    {
      "anonymous": false,
      "inputs": [
        {
          "indexed": true,
          "internalType": "bytes32",
          "name": "role",
          "type": "bytes32"
        },
        {
          "indexed": true,
          "internalType": "address",
          "name": "account",
          "type": "address"
        },
        {
          "indexed": true,
          "internalType": "address",
          "name": "sender",
          "type": "address"
        }
      ],
      "name": "RoleRevoked",
      "type": "event"
    },
    {
      "inputs": [],
      "name": "DECAY_PERIOD",
      "outputs": [
        {
          "internalType": "uint256",
          "name": "",
          "type": "uint256"
        }
      ],
      "stateMutability": "view",
      "type": "function"
    },
    {
      "inputs": [],
      "name": "DEFAULT_ADMIN_ROLE",
      "outputs": [
        {
          "internalType": "bytes32",
          "name": "",
          "type": "bytes32"
        }
      ],
      "stateMutability": "view",
      "type": "function"
    },
    {
      "inputs": [],
      "name": "MAX_SCORE",
      "outputs": [
        {
          "internalType": "uint256",
          "name": "",
          "type": "uint256"
        }
      ],
      "stateMutability": "view",
      "type": "function"
    },
    {
      "inputs": [],
      "name": "MONTHLY_DECAY_RATE",
      "outputs": [
        {
          "internalType": "uint256",
          "name": "",
          "type": "uint256"
        }
      ],
      "stateMutability": "view",
      "type": "function"
    },
    {
      "inputs": [],
      "name": "REPUTATION_MANAGER_ROLE",
      "outputs": [
        {
          "internalType": "bytes32",
          "name": "",
          "type": "bytes32"
        }
      ],
      "stateMutability": "view",
      "type": "function"
    },
    {
      "inputs": [],
      "name": "SCALE_FACTOR",
      "outputs": [
        {
          "internalType": "uint256",
          "name": "",
          "type": "uint256"
        }
      ],
      "stateMutability": "view",
      "type": "function"
    },
    {
      "inputs": [
        {
          "internalType": "address[]",
          "name": "users",
          "type": "address[]"
        },
        {
          "internalType": "enum XAOReputation.Domain[]",
          "name": "domains",
          "type": "uint8[]"
        },
        {
          "internalType": "uint256[]",
          "name": "scores",
          "type": "uint256[]"
        }
      ],
      "name": "batchUpdateReputation",
      "outputs": [],
      "stateMutability": "nonpayable",
      "type": "function"
    },
    {
      "inputs": [
        {
          "internalType": "address",
          "name": "user",
          "type": "address"
        },
        {
          "internalType": "enum XAOReputation.Domain",
          "name": "domain",
          "type": "uint8"
        }
      ],
      "name": "getReputation",
      "outputs": [
        {
          "internalType": "uint256",
          "name": "",
          "type": "uint256"
        }
      ],
      "stateMutability": "view",
      "type": "function"
    },
    {
      "inputs": [
        {
          "internalType": "bytes32",
          "name": "role",
          "type": "bytes32"
        }
      ],
      "name": "getRoleAdmin",
      "outputs": [
        {
          "internalType": "bytes32",
          "name": "",
          "type": "bytes32"
        }
      ],
      "stateMutability": "view",
      "type": "function"
    },
    {
      "inputs": [
        {
          "internalType": "address",
          "name": "account",
          "type": "address"
        }
      ],
      "name": "grantReputationManager",
      "outputs": [],
      "stateMutability": "nonpayable",
      "type": "function"
    },
    {
      "inputs": [
        {
          "internalType": "bytes32",
          "name": "role",
          "type": "bytes32"
        },
        {
          "internalType": "address",
          "name": "account",
          "type": "address"
        }
      ],
      "name": "grantRole",
      "outputs": [],
      "stateMutability": "nonpayable",
      "type": "function"
    },
    {
      "inputs": [
        {
          "internalType": "bytes32",
          "name": "role",
          "type": "bytes32"
        },
        {
          "internalType": "address",
          "name": "account",
          "type": "address"
        }
      ],
      "name": "hasRole",
      "outputs": [
        {
          "internalType": "bool",
          "name": "",
          "type": "bool"
        }
      ],
      "stateMutability": "view",
      "type": "function"
    },
    {
      "inputs": [
        {
          "internalType": "bytes32",
          "name": "role",
          "type": "bytes32"
        },
        {
          "internalType": "address",
          "name": "account",
          "type": "address"
        }
      ],
      "name": "renounceRole",
      "outputs": [],
      "stateMutability": "nonpayable",
      "type": "function"
    },
    {
      "inputs": [
        {
          "internalType": "address",
          "name": "",
          "type": "address"
        },
        {
          "internalType": "enum XAOReputation.Domain",
          "name": "",
          "type": "uint8"
        }
      ],
      "name": "reputationScores",
      "outputs": [
        {
          "internalType": "uint256",
          "name": "score",
          "type": "uint256"
        },
        {
          "internalType": "uint256",
          "name": "lastUpdateTime",
          "type": "uint256"
        },
        {
          "internalType": "bool",
          "name": "initialized",
          "type": "bool"
        }
      ],
      "stateMutability": "view",
      "type": "function"
    },
    {
      "inputs": [
        {
          "internalType": "address",
          "name": "account",
          "type": "address"
        }
      ],
      "name": "revokeReputationManager",
      "outputs": [],
      "stateMutability": "nonpayable",
      "type": "function"
    },
    {
      "inputs": [
        {
          "internalType": "bytes32",
          "name": "role",
          "type": "bytes32"
        },
        {
          "internalType": "address",
          "name": "account",
          "type": "address"
        }
      ],
      "name": "revokeRole",
      "outputs": [],
      "stateMutability": "nonpayable",
      "type": "function"
    },
    {
      "inputs": [
        {
          "internalType": "bytes4",
          "name": "interfaceId",
          "type": "bytes4"
        }
      ],
      "name": "supportsInterface",
      "outputs": [
        {
          "internalType": "bool",
          "name": "",
          "type": "bool"
        }
      ],
      "stateMutability": "view",
      "type": "function"
    },
    {
      "inputs": [
        {
          "internalType": "address",
          "name": "user",
          "type": "address"
        },
        {
          "internalType": "enum XAOReputation.Domain",
          "name": "domain",
          "type": "uint8"
        },
        {
          "internalType": "uint256",
          "name": "newScore",
          "type": "uint256"
        }
      ],
      "name": "updateReputation",
      "outputs": [],
      "stateMutability": "nonpayable",
      "type": "function"
    },
    {
      "inputs": [],
      "name": "xaoGovernance",
      "outputs": [
        {
          "internalType": "contract XAOGovernance",
          "name": "",
          "type": "address"
        }
      ],
      "stateMutability": "view",
      "type": "function"
    }
  ],
  "bytecode": "0x60806040523480156200001157600080fd5b506040516200133c3803806200133c83398101604081905262000034916200019e565b600180556001600160a01b038116620000935760405162461bcd60e51b815260206004820152601a60248201527f496e76616c696420676f7665726e616e63652061646472657373000000000000604482015260640160405180910390fd5b600280546001600160a01b0319166001600160a01b038316179055620000bb600033620000ee565b620000e77fa5df84d05f94c8e589750a34f9631c6df369aabc0811ccbbd233872ff60aec6633620000ee565b50620001d0565b620000fa8282620000fe565b5050565b6000828152602081815260408083206001600160a01b038516845290915290205460ff16620000fa576000828152602081815260408083206001600160a01b03851684529091529020805460ff191660011790556200015a3390565b6001600160a01b0316816001600160a01b0316837f2f8788117e7eff1d82e926ec794901d17c78024a50270940304540a733656f0d60405160405180910390a45050565b600060208284031215620001b157600080fd5b81516001600160a01b0381168114620001c957600080fd5b9392505050565b61115c80620001e06000396000f3fe608060405234801561001057600080fd5b50600436106101215760003560e01c80638a5714a1116100ad578063cc08a96611610071578063cc08a966146102a6578063ce4b5bbe146102b9578063d547741f146102c1578063eb0fd86a146102d4578063f2a8e4ce146102e957600080fd5b80638a5714a1146101f357806391d148541461021e578063a217fddf14610231578063b2dd3c8e14610239578063c5ae4e101461024c57600080fd5b806324f79d01116100f457806324f79d011461019e57806327ff6223146101b15780632f2ff15d146101ba57806336568abe146101cd5780635fe3b94f146101e057600080fd5b806301ffc9a714610126578063022814a01461014e5780631e9d490414610163578063248a9ca31461017b575b600080fd5b610139610134366004610cbf565b6102f1565b60405190151581526020015b60405180910390f35b61016161015c366004610d05565b610328565b005b61016d62278d0081565b604051908152602001610145565b61016d610189366004610d20565b60009081526020819052604090206001015490565b61016d6101ac366004610d48565b610383565b61016d61271081565b6101616101c8366004610d7b565b610476565b6101616101db366004610d7b565b6104a0565b6101616101ee366004610dea565b610523565b600254610206906001600160a01b031681565b6040516001600160a01b039091168152602001610145565b61013961022c366004610d7b565b61063f565b61016d600081565b610161610247366004610d05565b610668565b61028961025a366004610d48565b600360209081526000928352604080842090915290825290208054600182015460029092015490919060ff1683565b604080519384526020840192909252151590820152606001610145565b6101616102b4366004610e84565b6106c3565b61016d606481565b6101616102cf366004610d7b565b610861565b61016d60008051602061110783398151915281565b61016d600581565b60006001600160e01b03198216637965db0b60e01b148061032257506301ffc9a760e01b6001600160e01b03198316145b92915050565b600061033381610886565b61034b60008051602061110783398151915283610476565b6040516001600160a01b038316907fd7511647c6ecd3d190a205f4d59b8a43bfe3c8bcd4b3b0deaf923b61e12db87e90600090a25050565b6001600160a01b038216600090815260036020819052604082208291829085908111156103b2576103b2610ec0565b60038111156103c3576103c3610ec0565b81526020810191909152604001600020600281015490915060ff166103ec576000915050610322565b600061040582600101544261089390919063ffffffff16565b905060006104168262278d006108a6565b90508060000361042a575050549050610322565b825460005b8281101561046b57610457606461045161044a826005610893565b85906108b2565b906108a6565b91508061046381610eec565b91505061042f565b509695505050505050565b60008281526020819052604090206001015461049181610886565b61049b83836108be565b505050565b6001600160a01b03811633146105155760405162461bcd60e51b815260206004820152602f60248201527f416363657373436f6e74726f6c3a2063616e206f6e6c792072656e6f756e636560448201526e103937b632b9903337b91039b2b63360891b60648201526084015b60405180910390fd5b61051f8282610942565b5050565b61053b6000805160206111078339815191523361063f565b6105575760405162461bcd60e51b815260040161050c90610f05565b848314801561056557508281145b6105aa5760405162461bcd60e51b8152602060048201526016602482015275082e4e4c2f240d8cadccee8d0e640dad2e6dac2e8c6d60531b604482015260640161050c565b60005b85811015610636576106248787838181106105ca576105ca610f47565b90506020020160208101906105df9190610d05565b8686848181106105f1576105f1610f47565b90506020020160208101906106069190610f5d565b85858581811061061857610618610f47565b905060200201356106c3565b8061062e81610eec565b9150506105ad565b50505050505050565b6000918252602082815260408084206001600160a01b0393909316845291905290205460ff1690565b600061067381610886565b61068b60008051602061110783398151915283610861565b6040516001600160a01b038316907f9f7a4671472e86731126eb009159aaf6d53835a2ea97ce1d1ccb6896f0f61ac290600090a25050565b6106db6000805160206111078339815191523361063f565b6106f75760405162461bcd60e51b815260040161050c90610f05565b6001600160a01b0383166107445760405162461bcd60e51b8152602060048201526014602482015273496e76616c69642075736572206164647265737360601b604482015260640161050c565b61271081111561078e5760405162461bcd60e51b815260206004820152601560248201527453636f72652065786365656473206d6178696d756d60581b604482015260640161050c565b6001600160a01b0383166000908152600360208190526040822090829085908111156107bc576107bc610ec0565b60038111156107cd576107cd610ec0565b81526020810191909152604001600020600281015490915060ff166108005760028101805460ff1916600117905561080a565b61080a84846109a7565b81815542600182018190556040516001600160a01b038616917f8c7c5e89600470a73904d7c2579587cd21c1d54193069485cb0b75f58448864291610853918791879190610f78565b60405180910390a250505050565b60008281526020819052604090206001015461087c81610886565b61049b8383610942565b6108908133610ab8565b50565b600061089f8284610fae565b9392505050565b600061089f8284610fc1565b600061089f8284610fe3565b6108c8828261063f565b61051f576000828152602081815260408083206001600160a01b03851684529091529020805460ff191660011790556108fe3390565b6001600160a01b0316816001600160a01b0316837f2f8788117e7eff1d82e926ec794901d17c78024a50270940304540a733656f0d60405160405180910390a45050565b61094c828261063f565b1561051f576000828152602081815260408083206001600160a01b0385168085529252808320805460ff1916905551339285917ff6391f5c32d9c69d2a47ea670b442974b53935d1edc7fd64eb21e047a839171b9190a45050565b6001600160a01b0382166000908152600360208190526040822090829084908111156109d5576109d5610ec0565b60038111156109e6576109e6610ec0565b815260200190815260200160002090506000610a0f82600101544261089390919063ffffffff16565b90506000610a208262278d006108a6565b90508015610ab15782548060005b83811015610a5d57610a49606461045161044a826005610893565b915080610a5581610eec565b915050610a2e565b508085554260018601556040516001600160a01b038816907f419c12fba0acd5cfd17e1760150949b4149fb94823357ae8af734ea06d5f11fe90610aa690899086908690610f78565b60405180910390a250505b5050505050565b610ac2828261063f565b61051f57610acf81610b11565b610ada836020610b23565b604051602001610aeb92919061101e565b60408051601f198184030181529082905262461bcd60e51b825261050c91600401611093565b60606103226001600160a01b03831660145b60606000610b32836002610fe3565b610b3d9060026110c6565b67ffffffffffffffff811115610b5557610b556110d9565b6040519080825280601f01601f191660200182016040528015610b7f576020820181803683370190505b509050600360fc1b81600081518110610b9a57610b9a610f47565b60200101906001600160f81b031916908160001a905350600f60fb1b81600181518110610bc957610bc9610f47565b60200101906001600160f81b031916908160001a9053506000610bed846002610fe3565b610bf89060016110c6565b90505b6001811115610c70576f181899199a1a9b1b9c1cb0b131b232b360811b85600f1660108110610c2c57610c2c610f47565b1a60f81b828281518110610c4257610c42610f47565b60200101906001600160f81b031916908160001a90535060049490941c93610c69816110ef565b9050610bfb565b50831561089f5760405162461bcd60e51b815260206004820181905260248201527f537472696e67733a20686578206c656e67746820696e73756666696369656e74604482015260640161050c565b600060208284031215610cd157600080fd5b81356001600160e01b03198116811461089f57600080fd5b80356001600160a01b0381168114610d0057600080fd5b919050565b600060208284031215610d1757600080fd5b61089f82610ce9565b600060208284031215610d3257600080fd5b5035919050565b803560048110610d0057600080fd5b60008060408385031215610d5b57600080fd5b610d6483610ce9565b9150610d7260208401610d39565b90509250929050565b60008060408385031215610d8e57600080fd5b82359150610d7260208401610ce9565b60008083601f840112610db057600080fd5b50813567ffffffffffffffff811115610dc857600080fd5b6020830191508360208260051b8501011115610de357600080fd5b9250929050565b60008060008060008060608789031215610e0357600080fd5b863567ffffffffffffffff80821115610e1b57600080fd5b610e278a838b01610d9e565b90985096506020890135915080821115610e4057600080fd5b610e4c8a838b01610d9e565b90965094506040890135915080821115610e6557600080fd5b50610e7289828a01610d9e565b979a9699509497509295939492505050565b600080600060608486031215610e9957600080fd5b610ea284610ce9565b9250610eb060208501610d39565b9150604084013590509250925092565b634e487b7160e01b600052602160045260246000fd5b634e487b7160e01b600052601160045260246000fd5b600060018201610efe57610efe610ed6565b5060010190565b60208082526022908201527f43616c6c6572206973206e6f7420612072657075746174696f6e206d616e616760408201526132b960f11b606082015260800190565b634e487b7160e01b600052603260045260246000fd5b600060208284031215610f6f57600080fd5b61089f82610d39565b6060810160048510610f9a57634e487b7160e01b600052602160045260246000fd5b938152602081019290925260409091015290565b8181038181111561032257610322610ed6565b600082610fde57634e487b7160e01b600052601260045260246000fd5b500490565b808202811582820484141761032257610322610ed6565b60005b83811015611015578181015183820152602001610ffd565b50506000910152565b7f416363657373436f6e74726f6c3a206163636f756e7420000000000000000000815260008351611056816017850160208801610ffa565b7001034b99036b4b9b9b4b733903937b6329607d1b6017918401918201528351611087816028840160208801610ffa565b01602801949350505050565b60208152600082518060208401526110b2816040850160208701610ffa565b601f01601f19169190910160400192915050565b8082018082111561032257610322610ed6565b634e487b7160e01b600052604160045260246000fd5b6000816110fe576110fe610ed6565b50600019019056fea5df84d05f94c8e589750a34f9631c6df369aabc0811ccbbd233872ff60aec66a264697066735822122090cb4727cde710f4a1cbea67dc09c47a44e7229b5ed8ca8a8935a39d2d5b8d3764736f6c63430008130033",
  "linkReferences": {},
  "deployedLinkReferences": {}
}