{
  "_format": "hh-sol-artifact-1",
  "contractName": "ParentEventContract",
  "sourceName": "contracts/ParentEventContract.sol",
  "abi": [
    {
      "inputs": [
        {
          "internalType": "address",
          "name": "_allowedArtistFactory",
          "type": "address"
        }
      ],
      "stateMutability": "nonpayable",
      "type": "constructor"
    },
    {
      "anonymous": false,
      "inputs": [
        {
          "indexed": true,
          "internalType": "address",
          "name": "owner",
          "type": "address"
        },
        {
          "indexed": true,
          "internalType": "address",
          "name": "approved",
          "type": "address"
        },
        {
          "indexed": true,
          "internalType": "uint256",
          "name": "tokenId",
          "type": "uint256"
        }
      ],
      "name": "Approval",
      "type": "event"
    },
    {
      "anonymous": false,
      "inputs": [
        {
          "indexed": true,
          "internalType": "address",
          "name": "owner",
          "type": "address"
        },
        {
          "indexed": true,
          "internalType": "address",
          "name": "operator",
          "type": "address"
        },
        {
          "indexed": false,
          "internalType": "bool",
          "name": "approved",
          "type": "bool"
        }
      ],
      "name": "ApprovalForAll",
      "type": "event"
    },
    {
      "anonymous": false,
      "inputs": [
        {
          "indexed": false,
          "internalType": "address",
          "name": "artistContract",
          "type": "address"
        }
      ],
      "name": "ArtistContractLinked",
      "type": "event"
    },
    {
      "anonymous": false,
      "inputs": [
        {
          "indexed": false,
          "internalType": "address",
          "name": "oldArtist",
          "type": "address"
        },
        {
          "indexed": false,
          "internalType": "address",
          "name": "newArtist",
          "type": "address"
        }
      ],
      "name": "ArtistReplaced",
      "type": "event"
    },
    {
      "anonymous": false,
      "inputs": [
        {
          "indexed": false,
          "internalType": "uint256",
          "name": "startTokenId",
          "type": "uint256"
        },
        {
          "indexed": false,
          "internalType": "uint256",
          "name": "endTokenId",
          "type": "uint256"
        },
        {
          "indexed": false,
          "internalType": "uint256",
          "name": "totalRefunded",
          "type": "uint256"
        }
      ],
      "name": "BatchRefundProcessed",
      "type": "event"
    },
    {
      "anonymous": false,
      "inputs": [
        {
          "indexed": false,
          "internalType": "uint256",
          "name": "penaltyAmount",
          "type": "uint256"
        },
        {
          "indexed": false,
          "internalType": "uint256",
          "name": "penaltyPercentage",
          "type": "uint256"
        }
      ],
      "name": "CancellationPenalty",
      "type": "event"
    },
    {
      "anonymous": false,
      "inputs": [
        {
          "indexed": false,
          "internalType": "uint256",
          "name": "eventDate",
          "type": "uint256"
        },
        {
          "indexed": false,
          "internalType": "uint256",
          "name": "totalRevenue",
          "type": "uint256"
        },
        {
          "indexed": false,
          "internalType": "bool",
          "name": "isActive",
          "type": "bool"
        },
        {
          "indexed": false,
          "internalType": "address",
          "name": "owner",
          "type": "address"
        },
        {
          "indexed": false,
          "internalType": "string",
          "name": "message",
          "type": "string"
        }
      ],
      "name": "DebugState",
      "type": "event"
    },
    {
      "anonymous": false,
      "inputs": [
        {
          "indexed": false,
          "internalType": "uint256",
          "name": "basePrice",
          "type": "uint256"
        },
        {
          "indexed": false,
          "internalType": "uint256",
          "name": "maxPrice",
          "type": "uint256"
        },
        {
          "indexed": false,
          "internalType": "uint256",
          "name": "minPrice",
          "type": "uint256"
        }
      ],
      "name": "DynamicPricingConfigured",
      "type": "event"
    },
    {
      "anonymous": false,
      "inputs": [],
      "name": "EventCancelled",
      "type": "event"
    },
    {
      "anonymous": false,
      "inputs": [
        {
          "indexed": false,
          "internalType": "string",
          "name": "eventName",
          "type": "string"
        },
        {
          "indexed": false,
          "internalType": "uint256",
          "name": "eventDate",
          "type": "uint256"
        }
      ],
      "name": "EventDetailsSet",
      "type": "event"
    },
    {
      "anonymous": false,
      "inputs": [
        {
          "indexed": true,
          "internalType": "address",
          "name": "previousOwner",
          "type": "address"
        },
        {
          "indexed": true,
          "internalType": "address",
          "name": "newOwner",
          "type": "address"
        }
      ],
      "name": "OwnershipTransferred",
      "type": "event"
    },
    {
      "anonymous": false,
      "inputs": [
        {
          "indexed": false,
          "internalType": "address",
          "name": "recipient",
          "type": "address"
        },
        {
          "indexed": false,
          "internalType": "uint256",
          "name": "amount",
          "type": "uint256"
        }
      ],
      "name": "PaymentProcessed",
      "type": "event"
    },
    {
      "anonymous": false,
      "inputs": [
        {
          "indexed": false,
          "internalType": "uint256",
          "name": "newPrice",
          "type": "uint256"
        }
      ],
      "name": "PriceUpdated",
      "type": "event"
    },
    {
      "anonymous": false,
      "inputs": [
        {
          "indexed": false,
          "internalType": "address",
          "name": "to",
          "type": "address"
        },
        {
          "indexed": false,
          "internalType": "uint256",
          "name": "tokenId",
          "type": "uint256"
        }
      ],
      "name": "TicketMinted",
      "type": "event"
    },
    {
      "anonymous": false,
      "inputs": [
        {
          "indexed": true,
          "internalType": "uint256",
          "name": "tokenId",
          "type": "uint256"
        },
        {
          "indexed": true,
          "internalType": "address",
          "name": "holder",
          "type": "address"
        },
        {
          "indexed": false,
          "internalType": "uint256",
          "name": "amount",
          "type": "uint256"
        }
      ],
      "name": "TicketRefunded",
      "type": "event"
    },
    {
      "anonymous": false,
      "inputs": [
        {
          "indexed": false,
          "internalType": "uint256",
          "name": "tierId",
          "type": "uint256"
        },
        {
          "indexed": false,
          "internalType": "uint256",
          "name": "maxTickets",
          "type": "uint256"
        },
        {
          "indexed": false,
          "internalType": "uint256",
          "name": "price",
          "type": "uint256"
        }
      ],
      "name": "TierAdded",
      "type": "event"
    },
    {
      "anonymous": false,
      "inputs": [
        {
          "indexed": true,
          "internalType": "address",
          "name": "from",
          "type": "address"
        },
        {
          "indexed": true,
          "internalType": "address",
          "name": "to",
          "type": "address"
        },
        {
          "indexed": true,
          "internalType": "uint256",
          "name": "tokenId",
          "type": "uint256"
        }
      ],
      "name": "Transfer",
      "type": "event"
    },
    {
      "inputs": [],
      "name": "EARLY_CANCEL_PENALTY",
      "outputs": [
        {
          "internalType": "uint256",
          "name": "",
          "type": "uint256"
        }
      ],
      "stateMutability": "view",
      "type": "function"
    },
    {
      "inputs": [],
      "name": "EARLY_CANCEL_WINDOW",
      "outputs": [
        {
          "internalType": "uint256",
          "name": "",
          "type": "uint256"
        }
      ],
      "stateMutability": "view",
      "type": "function"
    },
    {
      "inputs": [],
      "name": "LATE_CANCEL_PENALTY",
      "outputs": [
        {
          "internalType": "uint256",
          "name": "",
          "type": "uint256"
        }
      ],
      "stateMutability": "view",
      "type": "function"
    },
    {
      "inputs": [],
      "name": "LATE_CANCEL_WINDOW",
      "outputs": [
        {
          "internalType": "uint256",
          "name": "",
          "type": "uint256"
        }
      ],
      "stateMutability": "view",
      "type": "function"
    },
    {
      "inputs": [],
      "name": "VERY_LATE_CANCEL_PENALTY",
      "outputs": [
        {
          "internalType": "uint256",
          "name": "",
          "type": "uint256"
        }
      ],
      "stateMutability": "view",
      "type": "function"
    },
    {
      "inputs": [
        {
          "internalType": "uint256",
          "name": "maxTickets",
          "type": "uint256"
        },
        {
          "internalType": "uint256",
          "name": "price",
          "type": "uint256"
        }
      ],
      "name": "addPricingTier",
      "outputs": [],
      "stateMutability": "nonpayable",
      "type": "function"
    },
    {
      "inputs": [],
      "name": "allowedArtistFactory",
      "outputs": [
        {
          "internalType": "address",
          "name": "",
          "type": "address"
        }
      ],
      "stateMutability": "view",
      "type": "function"
    },
    {
      "inputs": [
        {
          "internalType": "address",
          "name": "to",
          "type": "address"
        },
        {
          "internalType": "uint256",
          "name": "tokenId",
          "type": "uint256"
        }
      ],
      "name": "approve",
      "outputs": [],
      "stateMutability": "nonpayable",
      "type": "function"
    },
    {
      "inputs": [
        {
          "internalType": "address",
          "name": "owner",
          "type": "address"
        }
      ],
      "name": "balanceOf",
      "outputs": [
        {
          "internalType": "uint256",
          "name": "",
          "type": "uint256"
        }
      ],
      "stateMutability": "view",
      "type": "function"
    },
    {
      "inputs": [],
      "name": "calculateCurrentPrice",
      "outputs": [
        {
          "internalType": "uint256",
          "name": "",
          "type": "uint256"
        }
      ],
      "stateMutability": "view",
      "type": "function"
    },
    {
      "inputs": [],
      "name": "cancelEvent",
      "outputs": [],
      "stateMutability": "nonpayable",
      "type": "function"
    },
    {
      "inputs": [],
      "name": "depositGuarantee",
      "outputs": [],
      "stateMutability": "payable",
      "type": "function"
    },
    {
      "inputs": [
        {
          "internalType": "uint256",
          "name": "tokenId",
          "type": "uint256"
        }
      ],
      "name": "getApproved",
      "outputs": [
        {
          "internalType": "address",
          "name": "",
          "type": "address"
        }
      ],
      "stateMutability": "view",
      "type": "function"
    },
    {
      "inputs": [],
      "name": "getEventSummary",
      "outputs": [
        {
          "internalType": "string",
          "name": "eventName",
          "type": "string"
        },
        {
          "internalType": "string",
          "name": "eventAddress",
          "type": "string"
        },
        {
          "internalType": "string",
          "name": "venueName",
          "type": "string"
        },
        {
          "internalType": "uint256",
          "name": "eventDate",
          "type": "uint256"
        },
        {
          "internalType": "uint256",
          "name": "eventStartTime",
          "type": "uint256"
        },
        {
          "internalType": "uint256",
          "name": "eventEndTime",
          "type": "uint256"
        },
        {
          "internalType": "string",
          "name": "legalText",
          "type": "string"
        },
        {
          "internalType": "uint256",
          "name": "ticketSupply",
          "type": "uint256"
        },
        {
          "internalType": "uint256",
          "name": "currentPrice",
          "type": "uint256"
        },
        {
          "internalType": "bool",
          "name": "dynamicPricingEnabled",
          "type": "bool"
        },
        {
          "internalType": "uint256",
          "name": "totalRevenue",
          "type": "uint256"
        }
      ],
      "stateMutability": "view",
      "type": "function"
    },
    {
      "inputs": [
        {
          "internalType": "uint256",
          "name": "tokenId",
          "type": "uint256"
        }
      ],
      "name": "getPurchasePrice",
      "outputs": [
        {
          "internalType": "uint256",
          "name": "",
          "type": "uint256"
        }
      ],
      "stateMutability": "view",
      "type": "function"
    },
    {
      "inputs": [],
      "name": "getTicketingDetails",
      "outputs": [
        {
          "internalType": "uint256",
          "name": "supply",
          "type": "uint256"
        },
        {
          "internalType": "uint256",
          "name": "price",
          "type": "uint256"
        },
        {
          "internalType": "bool",
          "name": "dynamicEnabled",
          "type": "bool"
        }
      ],
      "stateMutability": "view",
      "type": "function"
    },
    {
      "inputs": [
        {
          "internalType": "address",
          "name": "owner",
          "type": "address"
        },
        {
          "internalType": "address",
          "name": "operator",
          "type": "address"
        }
      ],
      "name": "isApprovedForAll",
      "outputs": [
        {
          "internalType": "bool",
          "name": "",
          "type": "bool"
        }
      ],
      "stateMutability": "view",
      "type": "function"
    },
    {
      "inputs": [
        {
          "internalType": "address",
          "name": "artistContract",
          "type": "address"
        }
      ],
      "name": "isArtistLinked",
      "outputs": [
        {
          "internalType": "bool",
          "name": "",
          "type": "bool"
        }
      ],
      "stateMutability": "view",
      "type": "function"
    },
    {
      "inputs": [],
      "name": "isEventActive",
      "outputs": [
        {
          "internalType": "bool",
          "name": "",
          "type": "bool"
        }
      ],
      "stateMutability": "view",
      "type": "function"
    },
    {
      "inputs": [
        {
          "internalType": "uint256",
          "name": "tokenId",
          "type": "uint256"
        }
      ],
      "name": "isTicketRefunded",
      "outputs": [
        {
          "internalType": "bool",
          "name": "",
          "type": "bool"
        }
      ],
      "stateMutability": "view",
      "type": "function"
    },
    {
      "inputs": [
        {
          "internalType": "address",
          "name": "artistContract",
          "type": "address"
        }
      ],
      "name": "linkArtistContract",
      "outputs": [],
      "stateMutability": "nonpayable",
      "type": "function"
    },
    {
      "inputs": [
        {
          "internalType": "address",
          "name": "",
          "type": "address"
        }
      ],
      "name": "linkedArtists",
      "outputs": [
        {
          "internalType": "bool",
          "name": "",
          "type": "bool"
        }
      ],
      "stateMutability": "view",
      "type": "function"
    },
    {
      "inputs": [
        {
          "internalType": "address",
          "name": "to",
          "type": "address"
        }
      ],
      "name": "mintTicket",
      "outputs": [
        {
          "internalType": "uint256",
          "name": "",
          "type": "uint256"
        }
      ],
      "stateMutability": "payable",
      "type": "function"
    },
    {
      "inputs": [],
      "name": "name",
      "outputs": [
        {
          "internalType": "string",
          "name": "",
          "type": "string"
        }
      ],
      "stateMutability": "view",
      "type": "function"
    },
    {
      "inputs": [],
      "name": "owner",
      "outputs": [
        {
          "internalType": "address",
          "name": "",
          "type": "address"
        }
      ],
      "stateMutability": "view",
      "type": "function"
    },
    {
      "inputs": [
        {
          "internalType": "uint256",
          "name": "tokenId",
          "type": "uint256"
        }
      ],
      "name": "ownerOf",
      "outputs": [
        {
          "internalType": "address",
          "name": "",
          "type": "address"
        }
      ],
      "stateMutability": "view",
      "type": "function"
    },
    {
      "inputs": [
        {
          "internalType": "address payable",
          "name": "recipient",
          "type": "address"
        },
        {
          "internalType": "uint256",
          "name": "amount",
          "type": "uint256"
        }
      ],
      "name": "processPayment",
      "outputs": [],
      "stateMutability": "nonpayable",
      "type": "function"
    },
    {
      "inputs": [
        {
          "internalType": "uint256[]",
          "name": "tokenIds",
          "type": "uint256[]"
        }
      ],
      "name": "processTicketRefunds",
      "outputs": [
        {
          "internalType": "uint256",
          "name": "totalRefunded",
          "type": "uint256"
        }
      ],
      "stateMutability": "nonpayable",
      "type": "function"
    },
    {
      "inputs": [],
      "name": "renounceOwnership",
      "outputs": [],
      "stateMutability": "nonpayable",
      "type": "function"
    },
    {
      "inputs": [
        {
          "internalType": "address",
          "name": "from",
          "type": "address"
        },
        {
          "internalType": "address",
          "name": "to",
          "type": "address"
        },
        {
          "internalType": "uint256",
          "name": "tokenId",
          "type": "uint256"
        }
      ],
      "name": "safeTransferFrom",
      "outputs": [],
      "stateMutability": "nonpayable",
      "type": "function"
    },
    {
      "inputs": [
        {
          "internalType": "address",
          "name": "from",
          "type": "address"
        },
        {
          "internalType": "address",
          "name": "to",
          "type": "address"
        },
        {
          "internalType": "uint256",
          "name": "tokenId",
          "type": "uint256"
        },
        {
          "internalType": "bytes",
          "name": "data",
          "type": "bytes"
        }
      ],
      "name": "safeTransferFrom",
      "outputs": [],
      "stateMutability": "nonpayable",
      "type": "function"
    },
    {
      "inputs": [
        {
          "internalType": "address",
          "name": "operator",
          "type": "address"
        },
        {
          "internalType": "bool",
          "name": "approved",
          "type": "bool"
        }
      ],
      "name": "setApprovalForAll",
      "outputs": [],
      "stateMutability": "nonpayable",
      "type": "function"
    },
    {
      "inputs": [
        {
          "internalType": "uint256",
          "name": "_basePrice",
          "type": "uint256"
        },
        {
          "internalType": "uint256",
          "name": "_maxPrice",
          "type": "uint256"
        },
        {
          "internalType": "uint256",
          "name": "_minPrice",
          "type": "uint256"
        },
        {
          "internalType": "uint256",
          "name": "_earlyBirdDiscount",
          "type": "uint256"
        },
        {
          "internalType": "uint256",
          "name": "_earlyBirdEndTime",
          "type": "uint256"
        },
        {
          "internalType": "uint256",
          "name": "_demandMultiplier",
          "type": "uint256"
        }
      ],
      "name": "setDynamicPricing",
      "outputs": [],
      "stateMutability": "nonpayable",
      "type": "function"
    },
    {
      "inputs": [
        {
          "internalType": "string",
          "name": "_eventName",
          "type": "string"
        },
        {
          "internalType": "string",
          "name": "_eventAddress",
          "type": "string"
        },
        {
          "internalType": "string",
          "name": "_venueName",
          "type": "string"
        },
        {
          "internalType": "uint256",
          "name": "_eventDate",
          "type": "uint256"
        },
        {
          "internalType": "uint256",
          "name": "_eventStartTime",
          "type": "uint256"
        },
        {
          "internalType": "uint256",
          "name": "_eventEndTime",
          "type": "uint256"
        },
        {
          "internalType": "string",
          "name": "_legalText",
          "type": "string"
        }
      ],
      "name": "setEventDetails",
      "outputs": [],
      "stateMutability": "nonpayable",
      "type": "function"
    },
    {
      "inputs": [
        {
          "internalType": "uint256",
          "name": "_ticketSupply",
          "type": "uint256"
        },
        {
          "internalType": "uint256",
          "name": "_ticketPrice",
          "type": "uint256"
        },
        {
          "internalType": "bool",
          "name": "_dynamicPricingEnabled",
          "type": "bool"
        }
      ],
      "name": "setTicketingDetails",
      "outputs": [],
      "stateMutability": "nonpayable",
      "type": "function"
    },
    {
      "inputs": [
        {
          "internalType": "bytes4",
          "name": "interfaceId",
          "type": "bytes4"
        }
      ],
      "name": "supportsInterface",
      "outputs": [
        {
          "internalType": "bool",
          "name": "",
          "type": "bool"
        }
      ],
      "stateMutability": "view",
      "type": "function"
    },
    {
      "inputs": [],
      "name": "symbol",
      "outputs": [
        {
          "internalType": "string",
          "name": "",
          "type": "string"
        }
      ],
      "stateMutability": "view",
      "type": "function"
    },
    {
      "inputs": [
        {
          "internalType": "uint256",
          "name": "tokenId",
          "type": "uint256"
        }
      ],
      "name": "tokenURI",
      "outputs": [
        {
          "internalType": "string",
          "name": "",
          "type": "string"
        }
      ],
      "stateMutability": "view",
      "type": "function"
    },
    {
      "inputs": [
        {
          "internalType": "address",
          "name": "from",
          "type": "address"
        },
        {
          "internalType": "address",
          "name": "to",
          "type": "address"
        },
        {
          "internalType": "uint256",
          "name": "tokenId",
          "type": "uint256"
        }
      ],
      "name": "transferFrom",
      "outputs": [],
      "stateMutability": "nonpayable",
      "type": "function"
    },
    {
      "inputs": [
        {
          "internalType": "address",
          "name": "newOwner",
          "type": "address"
        }
      ],
      "name": "transferOwnership",
      "outputs": [],
      "stateMutability": "nonpayable",
      "type": "function"
    }
  ],
  "bytecode": "0x60a06040523480156200001157600080fd5b5060405162003c2e38038062003c2e833981016040819052620000349162000210565b6040518060400160405280600c81526020016b115d995b9d08151a58dad95d60a21b815250604051806040016040528060048152602001631510d2d560e21b8152508160009081620000879190620002e7565b506001620000968282620002e7565b505050620000b3620000ad620001ba60201b60201c565b620001be565b60016007556001600160a01b038116620001135760405162461bcd60e51b815260206004820152601760248201527f496e76616c696420666163746f72792061646472657373000000000000000000604482015260640160405180910390fd5b6001600160a01b0381166080526021805460ff191660011790556200013833620001be565b604080516000808252602082015260018183015233606082015260a0608082018190526014908201527f436f6e747261637420696e697469616c697a656400000000000000000000000060c082015290517fef1db5e9aa6982a9d5e46d9461d6114866bb057305d4b3555b368ef13525bec69181900360e00190a150620003b3565b3390565b600680546001600160a01b038381166001600160a01b0319831681179093556040519116919082907f8be0079c531659141344cd1fd0a4f28419497f9722a3daafe3b4186f6b6457e090600090a35050565b6000602082840312156200022357600080fd5b81516001600160a01b03811681146200023b57600080fd5b9392505050565b634e487b7160e01b600052604160045260246000fd5b600181811c908216806200026d57607f821691505b6020821081036200028e57634e487b7160e01b600052602260045260246000fd5b50919050565b601f821115620002e257600081815260208120601f850160051c81016020861015620002bd5750805b601f850160051c820191505b81811015620002de57828155600101620002c9565b5050505b505050565b81516001600160401b0381111562000303576200030362000242565b6200031b8162000314845462000258565b8462000294565b602080601f8311600181146200035357600084156200033a5750858301515b600019600386901b1c1916600185901b178555620002de565b600085815260208120601f198616915b82811015620003845788860151825594840194600190910190840162000363565b5085821015620003a35787850151600019600388901b60f8161c191681555b5050505050600190811b01905550565b60805161385f620003cf6000396000610505015261385f6000f3fe60806040526004361061023b5760003560e01c80637c44fb9c1161012e578063b88d4fde116100ab578063ccfb9dbe1161006f578063ccfb9dbe146106d1578063e985e9c5146106f1578063eabcb0be1461073a578063f2fde38b14610742578063fb6c95371461076257600080fd5b8063b88d4fde14610637578063c59d563314610657578063c87b56dd14610677578063ca7607f114610697578063cc54bcf2146106b757600080fd5b806395d89b41116100f257806395d89b41146105ac578063a22cb465146105c1578063a25a8bc3146105e1578063b03fb479146105f6578063b7fbf6911461062257600080fd5b80637c44fb9c146104f35780638b4d019e146105275780638da5cb5b146105595780638fb14b4f1461057757806391862a211461059757600080fd5b80632a4a4015116101bc5780636352211e116101805780636352211e1461044e57806370a082311461046e578063715018a61461048e57806375347f15146104a357806378cfc3ea146104c357600080fd5b80632a4a4015146103a95780633d8413f8146103c057806342842e0e146103f95780634d31c57a1461041957806357da53ac1461042e57600080fd5b80630b63fe95116102035780630b63fe951461031257806312fcd2521461033257806323b872dd1461035257806326aba2001461037257806326ede2931461038957600080fd5b806301ffc9a71461024057806306fdde0314610275578063081812fc1461029757806308e9bd26146102cf578063095ea7b3146102f0575b600080fd5b34801561024c57600080fd5b5061026061025b366004612f15565b610777565b60405190151581526020015b60405180910390f35b34801561028157600080fd5b5061028a6107c9565b60405161026c9190612f82565b3480156102a357600080fd5b506102b76102b2366004612f95565b61085b565b6040516001600160a01b03909116815260200161026c565b6102e26102dd366004612fc3565b610882565b60405190815260200161026c565b3480156102fc57600080fd5b5061031061030b366004612fe0565b610bdc565b005b34801561031e57600080fd5b5061031061032d366004612fe0565b610cf1565b34801561033e57600080fd5b506102e261034d36600461300c565b610e46565b34801561035e57600080fd5b5061031061036d366004613081565b611129565b34801561037e57600080fd5b506102e262278d0081565b34801561039557600080fd5b506103106103a436600461316e565b61115a565b3480156103b557600080fd5b506102e262093a8081565b3480156103cc57600080fd5b506102606103db366004612fc3565b6001600160a01b03166000908152601f602052604090205460ff1690565b34801561040557600080fd5b50610310610414366004613081565b611466565b34801561042557600080fd5b506102e2611481565b34801561043a57600080fd5b50610310610449366004613238565b611598565b34801561045a57600080fd5b506102b7610469366004612f95565b6116a8565b34801561047a57600080fd5b506102e2610489366004612fc3565b611708565b34801561049a57600080fd5b5061031061178e565b3480156104af57600080fd5b506102606104be366004612f95565b6117a2565b3480156104cf57600080fd5b506102606104de366004612fc3565b601f6020526000908152604090205460ff1681565b3480156104ff57600080fd5b506102b77f000000000000000000000000000000000000000000000000000000000000000081565b34801561053357600080fd5b5061053c6117df565b60408051938452602084019290925215159082015260600161026c565b34801561056557600080fd5b506006546001600160a01b03166102b7565b34801561058357600080fd5b50610310610592366004612fc3565b611805565b3480156105a357600080fd5b506102e2600f81565b3480156105b857600080fd5b5061028a611916565b3480156105cd57600080fd5b506103106105dc36600461326a565b611925565b3480156105ed57600080fd5b506102e2600581565b34801561060257600080fd5b5061060b611930565b60405161026c9b9a9998979695949392919061329f565b34801561062e57600080fd5b506102e2601e81565b34801561064357600080fd5b5061031061065236600461332f565b611bd6565b34801561066357600080fd5b506102e2610672366004612f95565b611c0e565b34801561068357600080fd5b5061028a610692366004612f95565b611c48565b3480156106a357600080fd5b506103106106b23660046133af565b611cbb565b3480156106c357600080fd5b506021546102609060ff1681565b3480156106dd57600080fd5b506103106106ec3660046133e4565b611dea565b3480156106fd57600080fd5b5061026061070c366004613427565b6001600160a01b03918216600090815260056020908152604080832093909416825291909152205460ff1690565b610310611f3c565b34801561074e57600080fd5b5061031061075d366004612fc3565b611f56565b34801561076e57600080fd5b50610310611fcf565b60006001600160e01b031982166380ac58cd60e01b14806107a857506001600160e01b03198216635b5e139f60e01b145b806107c357506301ffc9a760e01b6001600160e01b03198316145b92915050565b6060600080546107d890613460565b80601f016020809104026020016040519081016040528092919081815260200182805461080490613460565b80156108515780601f1061082657610100808354040283529160200191610851565b820191906000526020600020905b81548152906001019060200180831161083457829003601f168201915b5050505050905090565b600061086682612365565b506000908152600460205260409020546001600160a01b031690565b60215460009060ff166108d25760405162461bcd60e51b81526020600482015260136024820152724576656e74206973206e6f742061637469766560681b60448201526064015b60405180910390fd5b600f546020541061091a5760405162461bcd60e51b8152602060048201526012602482015271105b1b081d1a58dad95d1cc81b5a5b9d195960721b60448201526064016108c9565b6001600160a01b0382166109625760405162461bcd60e51b815260206004820152600f60248201526e496e76616c6964206164647265737360881b60448201526064016108c9565b6010546109a85760405162461bcd60e51b8152602060048201526014602482015273151a58dad95d081c1c9a58d9481b9bdd081cd95d60621b60448201526064016108c9565b6109b0611481565b3410156109f65760405162461bcd60e51b8152602060048201526014602482015273125b9cdd59999a58da595b9d081c185e5b595b9d60621b60448201526064016108c9565b6020546000610a03611481565b9050610a0f84836123b5565b602054610a1d9060016123cf565b602055601254610a2d90826123cf565b60129081556000838152602260205260409020829055600b54905460215460008051602061380a83398151915292919060ff16610a726006546001600160a01b031690565b604080519485526020850193909352901515838301526001600160a01b0316606083015260a060808301819052600d908301526c151a58dad95d081b5a5b9d1959609a1b60c0830152519081900360e00190a180341115610b5e57600033610ada34846123db565b604051600081818185875af1925050503d8060008114610b16576040519150601f19603f3d011682016040523d82523d6000602084013e610b1b565b606091505b5050905080610b5c5760405162461bcd60e51b815260206004820152600d60248201526c1499599d5b990819985a5b1959609a1b60448201526064016108c9565b505b604080516001600160a01b0386168152602081018490527fe3bc6f5972e89b7adec47f0277204f27cd981570e200dd4d408093535c9e8e69910160405180910390a16040518181527f66cbca4f3c64fecf1dcb9ce094abcf7f68c3450a1d4e3a8e917dd621edb4ebe09060200160405180910390a15090505b919050565b6000610be7826116a8565b9050806001600160a01b0316836001600160a01b031603610c545760405162461bcd60e51b815260206004820152602160248201527f4552433732313a20617070726f76616c20746f2063757272656e74206f776e656044820152603960f91b60648201526084016108c9565b336001600160a01b0382161480610c705750610c70813361070c565b610ce25760405162461bcd60e51b815260206004820152603d60248201527f4552433732313a20617070726f76652063616c6c6572206973206e6f7420746f60448201527f6b656e206f776e6572206f7220617070726f76656420666f7220616c6c00000060648201526084016108c9565b610cec83836123e7565b505050565b610cf9612455565b610d016124af565b601354811115610d535760405162461bcd60e51b815260206004820152601b60248201527f496e73756666696369656e7420657363726f772062616c616e6365000000000060448201526064016108c9565b601354610d6090826123db565b6013556040516000906001600160a01b0384169083908381818185875af1925050503d8060008114610dae576040519150601f19603f3d011682016040523d82523d6000602084013e610db3565b606091505b5050905080610df55760405162461bcd60e51b815260206004820152600e60248201526d14185e5b595b9d0819985a5b195960921b60448201526064016108c9565b604080516001600160a01b0385168152602081018490527fa5957fefb5b0f981554450d4d8dde003083cd202e3d5a2992e09c88ad1f0d791910160405180910390a150610e426001600755565b5050565b6000610e506124af565b6006546001600160a01b0316331480610e785750336000908152601f602052604090205460ff165b610ec45760405162461bcd60e51b815260206004820152601b60248201527f556e617574686f72697a656420726566756e642072657175657374000000000060448201526064016108c9565b506000805b8281101561109e576000848483818110610ee557610ee561349a565b905060200201359050610ef781612508565b610f135760405162461bcd60e51b81526004016108c9906134b0565b60008181526023602052604090205460ff1615610f655760405162461bcd60e51b815260206004820152601060248201526f105b1c9958591e481c99599d5b99195960821b60448201526064016108c9565b6000610f70826116a8565b6000838152602260209081526040808320546023909252808320805460ff1916600117905551929350916001600160a01b0384169083908381818185875af1925050503d8060008114610fdf576040519150601f19603f3d011682016040523d82523d6000602084013e610fe4565b606091505b505090508061102e5760405162461bcd60e51b81526020600482015260166024820152751499599d5b99081d1c985b9cd9995c8819985a5b195960521b60448201526064016108c9565b61103882876134f4565b9550826001600160a01b0316847f8c8fd3da31954f4657d981e2a89ea3421ef5d7bfa0998012eaff5f24a61a867a8460405161107691815260200190565b60405180910390a361108784612525565b50505050808061109690613507565b915050610ec9565b507fb801c71601b94a8a72a919f7aabdea4bb161c6fca208286129e3cdf747504675838360008181106110d3576110d361349a565b6020029190910135905084846110ea600182613520565b8181106110f9576110f961349a565b60408051948552602091820293909301359084015250810183905260600160405180910390a16107c36001600755565b61113333826125c8565b61114f5760405162461bcd60e51b81526004016108c990613533565b610cec838383612647565b611162612455565b60008751116111b35760405162461bcd60e51b815260206004820152601a60248201527f4576656e74206e616d652063616e6e6f7420626520656d70747900000000000060448201526064016108c9565b60008651116112045760405162461bcd60e51b815260206004820152601d60248201527f4576656e7420616464726573732063616e6e6f7420626520656d70747900000060448201526064016108c9565b60008551116112555760405162461bcd60e51b815260206004820152601a60248201527f56656e7565206e616d652063616e6e6f7420626520656d70747900000000000060448201526064016108c9565b4284116112995760405162461bcd60e51b8152602060048201526012602482015271496e76616c6964206576656e74206461746560701b60448201526064016108c9565b8383116112f45760405162461bcd60e51b815260206004820152602360248201527f53746172742074696d65206d757374206265206166746572206576656e74206460448201526261746560e81b60648201526084016108c9565b82821161134d5760405162461bcd60e51b815260206004820152602160248201527f456e642074696d65206d7573742062652061667465722073746172742074696d6044820152606560f81b60648201526084016108c9565b600861135988826135ce565b50600961136687826135ce565b50600a61137386826135ce565b50600b849055600c839055600d829055600e61138f82826135ce565b50601c805460ff191690556040517f311b755ec793db1f5a30690dd7760421bcac1a4bc53702edcfb72b37a9795b93906113cc908990879061368e565b60405180910390a160125460215460008051602061380a83398151915291869160ff166114016006546001600160a01b031690565b604080519485526020850193909352901515918301919091526001600160a01b0316606082015260a06080820181905260119082015270115d995b9d0819195d185a5b1cc81cd95d607a1b60c082015260e0015b60405180910390a150505050505050565b610cec83838360405180602001604052806000815250611bd6565b60115460009060ff16611495575060105490565b600f546020546000916114b3916114ad9060646127b8565b906127c4565b60168054601a5492935090914210156114f45760006114e460646114ad8560030154856127b890919063ffffffff16565b90506114f082826123db565b9150505b605f831061150757506001015492915050565b600f546115159060026127c4565b602054111561156b57600061152b8460326123db565b9050600061155a6127106114ad84611554886005015489600001546127b890919063ffffffff16565b906127b8565b905061156683826123cf565b925050505b816001015481111561157e575060018101545b8160020154811015611591575060028101545b9392505050565b6115a0612455565b600082116115e75760405162461bcd60e51b8152602060048201526014602482015273125b9d985b1a59081d1a58dad95d0818dbdd5b9d60621b60448201526064016108c9565b600081116116275760405162461bcd60e51b815260206004820152600d60248201526c496e76616c696420707269636560981b60448201526064016108c9565b6015546116358160016123cf565b601555600081815260146020908152604091829020858155600180820186905560028201805460ff1916909117905582518481529182018690529181018490527f8a68dd5ddbfcc5467b08bb78844d64853315ada46e7fcfe61e44f1a011ccc0d29060600160405180910390a150505050565b6000818152600260205260408120546001600160a01b0316806107c35760405162461bcd60e51b8152602060048201526018602482015277115490cdcc8c4e881a5b9d985b1a59081d1bdad95b88125160421b60448201526064016108c9565b60006001600160a01b0382166117725760405162461bcd60e51b815260206004820152602960248201527f4552433732313a2061646472657373207a65726f206973206e6f7420612076616044820152683634b21037bbb732b960b91b60648201526084016108c9565b506001600160a01b031660009081526003602052604090205490565b611796612455565b6117a060006127d0565b565b60006117ad82612508565b6117c95760405162461bcd60e51b81526004016108c9906134b0565b5060009081526023602052604090205460ff1690565b60008060006008600701546117f2611481565b601154919590945060ff90911692509050565b6001600160a01b03811661185b5760405162461bcd60e51b815260206004820152601760248201527f496e76616c69642061727469737420636f6e747261637400000000000000000060448201526064016108c9565b6001600160a01b0381166000908152601f602052604090205460ff16156118bc5760405162461bcd60e51b8152602060048201526015602482015274105c9d1a5cdd08185b1c9958591e481b1a5b9ad959605a1b60448201526064016108c9565b6001600160a01b0381166000818152601f6020908152604091829020805460ff1916600117905590519182527fb65447de4eed122b9c1579b007fe916f72a595ff8f9395d6720dd8e80c3806ca910160405180910390a150565b6060600180546107d890613460565b610e42338383612822565b6060806060600080600060606000806000806008600001600860010160086002016008600301546008600401546008600501546008600601600860070154611976611481565b6011546012548a5460ff909216918b9061198f90613460565b80601f01602080910402602001604051908101604052809291908181526020018280546119bb90613460565b8015611a085780601f106119dd57610100808354040283529160200191611a08565b820191906000526020600020905b8154815290600101906020018083116119eb57829003601f168201915b50505050509a50898054611a1b90613460565b80601f0160208091040260200160405190810160405280929190818152602001828054611a4790613460565b8015611a945780601f10611a6957610100808354040283529160200191611a94565b820191906000526020600020905b815481529060010190602001808311611a7757829003601f168201915b50505050509950888054611aa790613460565b80601f0160208091040260200160405190810160405280929190818152602001828054611ad390613460565b8015611b205780601f10611af557610100808354040283529160200191611b20565b820191906000526020600020905b815481529060010190602001808311611b0357829003601f168201915b50505050509850848054611b3390613460565b80601f0160208091040260200160405190810160405280929190818152602001828054611b5f90613460565b8015611bac5780601f10611b8157610100808354040283529160200191611bac565b820191906000526020600020905b815481529060010190602001808311611b8f57829003601f168201915b505050505094509a509a509a509a509a509a509a509a509a509a509a50909192939495969798999a565b611be033836125c8565b611bfc5760405162461bcd60e51b81526004016108c990613533565b611c08848484846128f0565b50505050565b6000611c1982612508565b611c355760405162461bcd60e51b81526004016108c9906134b0565b5060009081526022602052604090205490565b6060611c5382612365565b6000611c6a60408051602081019091526000815290565b90506000815111611c8a5760405180602001604052806000815250611591565b80611c9484612923565b604051602001611ca59291906136b0565b6040516020818303038152906040529392505050565b611cc3612455565b60008311611d0b5760405162461bcd60e51b8152602060048201526015602482015274496e76616c6964207469636b657420737570706c7960581b60448201526064016108c9565b60008211611d525760405162461bcd60e51b8152602060048201526014602482015273496e76616c6964207469636b657420707269636560601b60448201526064016108c9565b600f83905560108290556011805460ff1916821515179055600b5460125460215460065460408051948552602085019390935260ff9091161515838301526001600160a01b0316606083015260a06080830181905260159083015274151a58dad95d1a5b99c819195d185a5b1cc81cd95d605a1b60c08301525160008051602061380a8339815191529160e0908290030190a1505050565b611df2612455565b8585118015611e0057508386115b611e425760405162461bcd60e51b8152602060048201526013602482015272496e76616c69642070726963652072616e676560681b60448201526064016108c9565b6032831115611e895760405162461bcd60e51b81526020600482015260136024820152724d617820646973636f756e742069732035302560681b60448201526064016108c9565b60c8811115611ed35760405162461bcd60e51b81526020600482015260166024820152754d6178206d756c7469706c696572206973203230302560501b60448201526064016108c9565b6016868155601786905560188590556019849055601a839055601b8290556011805460ff1916600117905560408051888152602081018890529081018690527f1d70f1d6a6acdab45f714678efde4892988a3a98043b521fb00199f81c6729f990606001611455565b611f44612455565b601354611f5190346123cf565b601355565b611f5e612455565b6001600160a01b038116611fc35760405162461bcd60e51b815260206004820152602660248201527f4f776e61626c653a206e6577206f776e657220697320746865207a65726f206160448201526564647265737360d01b60648201526084016108c9565b611fcc816127d0565b50565b611fd7612455565b600b5460125460215460008051602061380a83398151915292919060ff166120076006546001600160a01b031690565b604080519485526020850193909352901515838301526001600160a01b0316606083015260a0608083018190526010908301526f5072652d63616e63656c20636865636b60801b60c0830152519081900360e00190a1601c5460ff16156120a45760405162461bcd60e51b8152602060048201526011602482015270105b1c9958591e4818d85b98d95b1b1959607a1b60448201526064016108c9565b336120b76006546001600160a01b031690565b6001600160a01b0316146121225760405162461bcd60e51b815260206004820152602c60248201527f4f6e6c7920636f6e7472616374206f776e65722063616e2063616e63656c205b60448201526b6f776e657220636865636b5d60a01b60648201526084016108c9565b600b546121715760405162461bcd60e51b815260206004820181905260248201527f4576656e742064617465206e6f7420736574205b63616e63656c4576656e745d60448201526064016108c9565b600b5442106121ce5760405162461bcd60e51b8152602060048201526024808201527f4576656e7420616c7265616479206f63637572726564205b63616e63656c4576604482015263656e745d60e01b60648201526084016108c9565b6012546122335760405162461bcd60e51b815260206004820152602d60248201527f4e6f20726576656e756520746f2063616c63756c6174652070656e616c74792060448201526c5b63616e63656c4576656e745d60981b60648201526084016108c9565b600061223d6129b6565b9050600061225e60646114ad846008600a01546127b890919063ffffffff16565b6021805460ff19908116909155601c805490911660011790556040519091507fc423524f667a9459893f10159c8a95981a43fb77edd414f6325d8439604ad41890600090a160408051828152602081018490527ff2b8058f2eb33b87760eeeb3c3dde3ea780b35c4cc94cc5a73e6dd1efcdaa5cc910160405180910390a1600b5460125460215460008051602061380a83398151915292919060ff1661230c6006546001600160a01b031690565b604080519485526020850193909352901515838301526001600160a01b0316606083015260a060808301819052600f908301526e115d995b9d0818d85b98d95b1b1959608a1b60c0830152519081900360e00190a15050565b61236e81612508565b611fcc5760405162461bcd60e51b8152602060048201526018602482015277115490cdcc8c4e881a5b9d985b1a59081d1bdad95b88125160421b60448201526064016108c9565b610e42828260405180602001604052806000815250612b21565b600061159182846134f4565b60006115918284613520565b600081815260046020526040902080546001600160a01b0319166001600160a01b038416908117909155819061241c826116a8565b6001600160a01b03167f8c5be1e5ebec7d5bd14f71427d1e84f3dd0314c0f7b2291e5b200ac8c7c3b92560405160405180910390a45050565b6006546001600160a01b031633146117a05760405162461bcd60e51b815260206004820181905260248201527f4f776e61626c653a2063616c6c6572206973206e6f7420746865206f776e657260448201526064016108c9565b6002600754036125015760405162461bcd60e51b815260206004820152601f60248201527f5265656e7472616e637947756172643a207265656e7472616e742063616c6c0060448201526064016108c9565b6002600755565b6000908152600260205260409020546001600160a01b0316151590565b6000612530826116a8565b9050612540816000846001612b54565b612549826116a8565b600083815260046020908152604080832080546001600160a01b03199081169091556001600160a01b0385168085526003845282852080546000190190558785526002909352818420805490911690555192935084927fddf252ad1be2c89b69c2b068fc378daa952ba7f163c4a11628f55a4df523b3ef908390a45050565b6000806125d4836116a8565b9050806001600160a01b0316846001600160a01b0316148061261b57506001600160a01b0380821660009081526005602090815260408083209388168352929052205460ff165b8061263f5750836001600160a01b03166126348461085b565b6001600160a01b0316145b949350505050565b826001600160a01b031661265a826116a8565b6001600160a01b0316146126805760405162461bcd60e51b81526004016108c9906136df565b6001600160a01b0382166126e25760405162461bcd60e51b8152602060048201526024808201527f4552433732313a207472616e7366657220746f20746865207a65726f206164646044820152637265737360e01b60648201526084016108c9565b6126ef8383836001612b54565b826001600160a01b0316612702826116a8565b6001600160a01b0316146127285760405162461bcd60e51b81526004016108c9906136df565b600081815260046020908152604080832080546001600160a01b03199081169091556001600160a01b0387811680865260038552838620805460001901905590871680865283862080546001019055868652600290945282852080549092168417909155905184937fddf252ad1be2c89b69c2b068fc378daa952ba7f163c4a11628f55a4df523b3ef91a4505050565b60006115918284613724565b6000611591828461373b565b600680546001600160a01b038381166001600160a01b0319831681179093556040519116919082907f8be0079c531659141344cd1fd0a4f28419497f9722a3daafe3b4186f6b6457e090600090a35050565b816001600160a01b0316836001600160a01b0316036128835760405162461bcd60e51b815260206004820152601960248201527f4552433732313a20617070726f766520746f2063616c6c65720000000000000060448201526064016108c9565b6001600160a01b03838116600081815260056020908152604080832094871680845294825291829020805460ff191686151590811790915591519182527f17307eab39ab6107e8899845ad3d59bd9653f200f220920489ca2b5937696c31910160405180910390a3505050565b6128fb848484612647565b61290784848484612bab565b611c085760405162461bcd60e51b81526004016108c99061375d565b6060600061293083612cac565b600101905060008167ffffffffffffffff811115612950576129506130c2565b6040519080825280601f01601f19166020018201604052801561297a576020820181803683370190505b5090508181016020015b600019016f181899199a1a9b1b9c1cb0b131b232b360811b600a86061a8153600a850494508461298457509392505050565b600b54600090612a165760405162461bcd60e51b815260206004820152602560248201527f4576656e742064617465206e6f7420736574205b63616c63756c61746550656e604482015264616c74795d60d81b60648201526084016108c9565b600b544210612a795760405162461bcd60e51b815260206004820152602960248201527f4576656e7420616c7265616479206f63637572726564205b63616c63756c61746044820152686550656e616c74795d60b81b60648201526084016108c9565b601254612ae35760405162461bcd60e51b815260206004820152603260248201527f4e6f20726576656e756520746f2063616c63756c6174652070656e616c7479206044820152715b63616c63756c61746550656e616c74795d60701b60648201526084016108c9565b600b54600090612af390426123db565b905062278d008110612b0757600591505090565b62093a808110612b1957600f91505090565b601e91505090565b612b2b8383612d84565b612b386000848484612bab565b610cec5760405162461bcd60e51b81526004016108c99061375d565b6001600160a01b03831615611c085760215460ff16611c085760405162461bcd60e51b81526020600482015260136024820152724576656e74206973206e6f742061637469766560681b60448201526064016108c9565b60006001600160a01b0384163b15612ca157604051630a85bd0160e11b81526001600160a01b0385169063150b7a0290612bef9033908990889088906004016137af565b6020604051808303816000875af1925050508015612c2a575060408051601f3d908101601f19168201909252612c27918101906137ec565b60015b612c87573d808015612c58576040519150601f19603f3d011682016040523d82523d6000602084013e612c5d565b606091505b508051600003612c7f5760405162461bcd60e51b81526004016108c99061375d565b805181602001fd5b6001600160e01b031916630a85bd0160e11b14905061263f565b506001949350505050565b60008072184f03e93ff9f4daa797ed6e38ed64bf6a1f0160401b8310612ceb5772184f03e93ff9f4daa797ed6e38ed64bf6a1f0160401b830492506040015b6d04ee2d6d415b85acef81000000008310612d17576d04ee2d6d415b85acef8100000000830492506020015b662386f26fc100008310612d3557662386f26fc10000830492506010015b6305f5e1008310612d4d576305f5e100830492506008015b6127108310612d6157612710830492506004015b60648310612d73576064830492506002015b600a83106107c35760010192915050565b6001600160a01b038216612dda5760405162461bcd60e51b815260206004820181905260248201527f4552433732313a206d696e7420746f20746865207a65726f206164647265737360448201526064016108c9565b612de381612508565b15612e305760405162461bcd60e51b815260206004820152601c60248201527f4552433732313a20746f6b656e20616c7265616479206d696e7465640000000060448201526064016108c9565b612e3e600083836001612b54565b612e4781612508565b15612e945760405162461bcd60e51b815260206004820152601c60248201527f4552433732313a20746f6b656e20616c7265616479206d696e7465640000000060448201526064016108c9565b6001600160a01b038216600081815260036020908152604080832080546001019055848352600290915280822080546001600160a01b0319168417905551839291907fddf252ad1be2c89b69c2b068fc378daa952ba7f163c4a11628f55a4df523b3ef908290a45050565b6001600160e01b031981168114611fcc57600080fd5b600060208284031215612f2757600080fd5b813561159181612eff565b60005b83811015612f4d578181015183820152602001612f35565b50506000910152565b60008151808452612f6e816020860160208601612f32565b601f01601f19169290920160200192915050565b6020815260006115916020830184612f56565b600060208284031215612fa757600080fd5b5035919050565b6001600160a01b0381168114611fcc57600080fd5b600060208284031215612fd557600080fd5b813561159181612fae565b60008060408385031215612ff357600080fd5b8235612ffe81612fae565b946020939093013593505050565b6000806020838503121561301f57600080fd5b823567ffffffffffffffff8082111561303757600080fd5b818501915085601f83011261304b57600080fd5b81358181111561305a57600080fd5b8660208260051b850101111561306f57600080fd5b60209290920196919550909350505050565b60008060006060848603121561309657600080fd5b83356130a181612fae565b925060208401356130b181612fae565b929592945050506040919091013590565b634e487b7160e01b600052604160045260246000fd5b600067ffffffffffffffff808411156130f3576130f36130c2565b604051601f8501601f19908116603f0116810190828211818310171561311b5761311b6130c2565b8160405280935085815286868601111561313457600080fd5b858560208301376000602087830101525050509392505050565b600082601f83011261315f57600080fd5b611591838335602085016130d8565b600080600080600080600060e0888a03121561318957600080fd5b873567ffffffffffffffff808211156131a157600080fd5b6131ad8b838c0161314e565b985060208a01359150808211156131c357600080fd5b6131cf8b838c0161314e565b975060408a01359150808211156131e557600080fd5b6131f18b838c0161314e565b965060608a0135955060808a0135945060a08a0135935060c08a013591508082111561321c57600080fd5b506132298a828b0161314e565b91505092959891949750929550565b6000806040838503121561324b57600080fd5b50508035926020909101359150565b80358015158114610bd757600080fd5b6000806040838503121561327d57600080fd5b823561328881612fae565b91506132966020840161325a565b90509250929050565b60006101608083526132b38184018f612f56565b905082810360208401526132c7818e612f56565b905082810360408401526132db818d612f56565b90508a60608401528960808401528860a084015282810360c08401526133018189612f56565b60e0840197909752505061010081019390935290151561012083015261014090910152979650505050505050565b6000806000806080858703121561334557600080fd5b843561335081612fae565b9350602085013561336081612fae565b925060408501359150606085013567ffffffffffffffff81111561338357600080fd5b8501601f8101871361339457600080fd5b6133a3878235602084016130d8565b91505092959194509250565b6000806000606084860312156133c457600080fd5b83359250602084013591506133db6040850161325a565b90509250925092565b60008060008060008060c087890312156133fd57600080fd5b505084359660208601359650604086013595606081013595506080810135945060a0013592509050565b6000806040838503121561343a57600080fd5b823561344581612fae565b9150602083013561345581612fae565b809150509250929050565b600181811c9082168061347457607f821691505b60208210810361349457634e487b7160e01b600052602260045260246000fd5b50919050565b634e487b7160e01b600052603260045260246000fd5b602080825260149082015273151bdad95b88191bd95cc81b9bdd08195e1a5cdd60621b604082015260600190565b634e487b7160e01b600052601160045260246000fd5b808201808211156107c3576107c36134de565b600060018201613519576135196134de565b5060010190565b818103818111156107c3576107c36134de565b6020808252602d908201527f4552433732313a2063616c6c6572206973206e6f7420746f6b656e206f776e6560408201526c1c881bdc88185c1c1c9bdd9959609a1b606082015260800190565b601f821115610cec57600081815260208120601f850160051c810160208610156135a75750805b601f850160051c820191505b818110156135c6578281556001016135b3565b505050505050565b815167ffffffffffffffff8111156135e8576135e86130c2565b6135fc816135f68454613460565b84613580565b602080601f83116001811461363157600084156136195750858301515b600019600386901b1c1916600185901b1785556135c6565b600085815260208120601f198616915b8281101561366057888601518255948401946001909101908401613641565b508582101561367e5787850151600019600388901b60f8161c191681555b5050505050600190811b01905550565b6040815260006136a16040830185612f56565b90508260208301529392505050565b600083516136c2818460208801612f32565b8351908301906136d6818360208801612f32565b01949350505050565b60208082526025908201527f4552433732313a207472616e736665722066726f6d20696e636f72726563742060408201526437bbb732b960d91b606082015260800190565b80820281158282048414176107c3576107c36134de565b60008261375857634e487b7160e01b600052601260045260246000fd5b500490565b60208082526032908201527f4552433732313a207472616e7366657220746f206e6f6e20455243373231526560408201527131b2b4bb32b91034b6b83632b6b2b73a32b960711b606082015260800190565b6001600160a01b03858116825284166020820152604081018390526080606082018190526000906137e290830184612f56565b9695505050505050565b6000602082840312156137fe57600080fd5b815161159181612eff56feef1db5e9aa6982a9d5e46d9461d6114866bb057305d4b3555b368ef13525bec6a26469706673582212201e3bb447d51ad27788dd229bb544da747154ec0c628fd65790e08cb2191b630a64736f6c63430008130033",
  "linkReferences": {},
  "deployedLinkReferences": {}
}