{
  "_format": "hh-sol-artifact-1",
  "contractName": "XAOGovernance",
  "sourceName": "contracts/XAOGovernance.sol",
  "abi": [
    {
      "inputs": [
        {
          "internalType": "address",
          "name": "_xaoToken",
          "type": "address"
        },
        {
          "internalType": "address",
          "name": "_xaoStaking",
          "type": "address"
        }
      ],
      "stateMutability": "nonpayable",
      "type": "constructor"
    },
    {
      "anonymous": false,
      "inputs": [
        {
          "indexed": true,
          "internalType": "uint256",
          "name": "proposalId",
          "type": "uint256"
        },
        {
          "indexed": true,
          "internalType": "address",
          "name": "proposer",
          "type": "address"
        },
        {
          "indexed": false,
          "internalType": "enum XAOGovernance.Domain",
          "name": "domain",
          "type": "uint8"
        }
      ],
      "name": "ProposalCreated",
      "type": "event"
    },
    {
      "anonymous": false,
      "inputs": [
        {
          "indexed": true,
          "internalType": "uint256",
          "name": "proposalId",
          "type": "uint256"
        }
      ],
      "name": "ProposalExecuted",
      "type": "event"
    },
    {
      "anonymous": false,
      "inputs": [
        {
          "indexed": true,
          "internalType": "address",
          "name": "user",
          "type": "address"
        },
        {
          "indexed": false,
          "internalType": "enum XAOGovernance.Domain",
          "name": "domain",
          "type": "uint8"
        },
        {
          "indexed": false,
          "internalType": "uint256",
          "name": "newReputation",
          "type": "uint256"
        }
      ],
      "name": "ReputationUpdated",
      "type": "event"
    },
    {
      "anonymous": false,
      "inputs": [
        {
          "indexed": true,
          "internalType": "bytes32",
          "name": "role",
          "type": "bytes32"
        },
        {
          "indexed": true,
          "internalType": "bytes32",
          "name": "previousAdminRole",
          "type": "bytes32"
        },
        {
          "indexed": true,
          "internalType": "bytes32",
          "name": "newAdminRole",
          "type": "bytes32"
        }
      ],
      "name": "RoleAdminChanged",
      "type": "event"
    },
    {
      "anonymous": false,
      "inputs": [
        {
          "indexed": true,
          "internalType": "bytes32",
          "name": "role",
          "type": "bytes32"
        },
        {
          "indexed": true,
          "internalType": "address",
          "name": "account",
          "type": "address"
        },
        {
          "indexed": true,
          "internalType": "address",
          "name": "sender",
          "type": "address"
        }
      ],
      "name": "RoleGranted",
      "type": "event"
    },
    {
      "anonymous": false,
      "inputs": [
        {
          "indexed": true,
          "internalType": "bytes32",
          "name": "role",
          "type": "bytes32"
        },
        {
          "indexed": true,
          "internalType": "address",
          "name": "account",
          "type": "address"
        },
        {
          "indexed": true,
          "internalType": "address",
          "name": "sender",
          "type": "address"
        }
      ],
      "name": "RoleRevoked",
      "type": "event"
    },
    {
      "anonymous": false,
      "inputs": [
        {
          "indexed": true,
          "internalType": "uint256",
          "name": "proposalId",
          "type": "uint256"
        },
        {
          "indexed": true,
          "internalType": "address",
          "name": "voter",
          "type": "address"
        },
        {
          "indexed": false,
          "internalType": "bool",
          "name": "support",
          "type": "bool"
        },
        {
          "indexed": false,
          "internalType": "uint256",
          "name": "weight",
          "type": "uint256"
        }
      ],
      "name": "VoteCast",
      "type": "event"
    },
    {
      "inputs": [],
      "name": "ADMIN_ROLE",
      "outputs": [
        {
          "internalType": "bytes32",
          "name": "",
          "type": "bytes32"
        }
      ],
      "stateMutability": "view",
      "type": "function"
    },
    {
      "inputs": [],
      "name": "DEFAULT_ADMIN_ROLE",
      "outputs": [
        {
          "internalType": "bytes32",
          "name": "",
          "type": "bytes32"
        }
      ],
      "stateMutability": "view",
      "type": "function"
    },
    {
      "inputs": [],
      "name": "DOMAIN_BONUS_MULTIPLIER",
      "outputs": [
        {
          "internalType": "uint256",
          "name": "",
          "type": "uint256"
        }
      ],
      "stateMutability": "view",
      "type": "function"
    },
    {
      "inputs": [],
      "name": "EXECUTOR_ROLE",
      "outputs": [
        {
          "internalType": "bytes32",
          "name": "",
          "type": "bytes32"
        }
      ],
      "stateMutability": "view",
      "type": "function"
    },
    {
      "inputs": [],
      "name": "MIN_PROPOSAL_STAKE",
      "outputs": [
        {
          "internalType": "uint256",
          "name": "",
          "type": "uint256"
        }
      ],
      "stateMutability": "view",
      "type": "function"
    },
    {
      "inputs": [],
      "name": "PROPOSER_ROLE",
      "outputs": [
        {
          "internalType": "bytes32",
          "name": "",
          "type": "bytes32"
        }
      ],
      "stateMutability": "view",
      "type": "function"
    },
    {
      "inputs": [],
      "name": "TREASURY_ROLE",
      "outputs": [
        {
          "internalType": "bytes32",
          "name": "",
          "type": "bytes32"
        }
      ],
      "stateMutability": "view",
      "type": "function"
    },
    {
      "inputs": [],
      "name": "VOTING_PERIOD",
      "outputs": [
        {
          "internalType": "uint256",
          "name": "",
          "type": "uint256"
        }
      ],
      "stateMutability": "view",
      "type": "function"
    },
    {
      "inputs": [
        {
          "internalType": "uint256",
          "name": "proposalId",
          "type": "uint256"
        },
        {
          "internalType": "bool",
          "name": "support",
          "type": "bool"
        }
      ],
      "name": "castVote",
      "outputs": [],
      "stateMutability": "nonpayable",
      "type": "function"
    },
    {
      "inputs": [
        {
          "internalType": "string",
          "name": "description",
          "type": "string"
        },
        {
          "internalType": "enum XAOGovernance.Domain",
          "name": "domain",
          "type": "uint8"
        }
      ],
      "name": "createProposal",
      "outputs": [
        {
          "internalType": "uint256",
          "name": "",
          "type": "uint256"
        }
      ],
      "stateMutability": "nonpayable",
      "type": "function"
    },
    {
      "inputs": [
        {
          "internalType": "address",
          "name": "",
          "type": "address"
        },
        {
          "internalType": "enum XAOGovernance.Domain",
          "name": "",
          "type": "uint8"
        }
      ],
      "name": "domainReputation",
      "outputs": [
        {
          "internalType": "uint256",
          "name": "",
          "type": "uint256"
        }
      ],
      "stateMutability": "view",
      "type": "function"
    },
    {
      "inputs": [
        {
          "internalType": "uint256",
          "name": "proposalId",
          "type": "uint256"
        }
      ],
      "name": "executeProposal",
      "outputs": [],
      "stateMutability": "nonpayable",
      "type": "function"
    },
    {
      "inputs": [
        {
          "internalType": "uint256",
          "name": "proposalId",
          "type": "uint256"
        }
      ],
      "name": "getProposal",
      "outputs": [
        {
          "internalType": "string",
          "name": "description",
          "type": "string"
        },
        {
          "internalType": "uint256",
          "name": "votingEnds",
          "type": "uint256"
        },
        {
          "internalType": "address",
          "name": "proposer",
          "type": "address"
        },
        {
          "internalType": "enum XAOGovernance.Domain",
          "name": "domain",
          "type": "uint8"
        },
        {
          "internalType": "uint256",
          "name": "forVotes",
          "type": "uint256"
        },
        {
          "internalType": "uint256",
          "name": "againstVotes",
          "type": "uint256"
        },
        {
          "internalType": "bool",
          "name": "executed",
          "type": "bool"
        }
      ],
      "stateMutability": "view",
      "type": "function"
    },
    {
      "inputs": [
        {
          "internalType": "bytes32",
          "name": "role",
          "type": "bytes32"
        }
      ],
      "name": "getRoleAdmin",
      "outputs": [
        {
          "internalType": "bytes32",
          "name": "",
          "type": "bytes32"
        }
      ],
      "stateMutability": "view",
      "type": "function"
    },
    {
      "inputs": [
        {
          "internalType": "bytes32",
          "name": "role",
          "type": "bytes32"
        },
        {
          "internalType": "address",
          "name": "account",
          "type": "address"
        }
      ],
      "name": "grantRole",
      "outputs": [],
      "stateMutability": "nonpayable",
      "type": "function"
    },
    {
      "inputs": [
        {
          "internalType": "bytes32",
          "name": "role",
          "type": "bytes32"
        },
        {
          "internalType": "address",
          "name": "account",
          "type": "address"
        }
      ],
      "name": "hasRole",
      "outputs": [
        {
          "internalType": "bool",
          "name": "",
          "type": "bool"
        }
      ],
      "stateMutability": "view",
      "type": "function"
    },
    {
      "inputs": [],
      "name": "proposalCount",
      "outputs": [
        {
          "internalType": "uint256",
          "name": "",
          "type": "uint256"
        }
      ],
      "stateMutability": "view",
      "type": "function"
    },
    {
      "inputs": [
        {
          "internalType": "uint256",
          "name": "",
          "type": "uint256"
        }
      ],
      "name": "proposals",
      "outputs": [
        {
          "internalType": "string",
          "name": "description",
          "type": "string"
        },
        {
          "internalType": "uint256",
          "name": "proposalDate",
          "type": "uint256"
        },
        {
          "internalType": "uint256",
          "name": "votingEnds",
          "type": "uint256"
        },
        {
          "internalType": "address",
          "name": "proposer",
          "type": "address"
        },
        {
          "internalType": "enum XAOGovernance.Domain",
          "name": "domain",
          "type": "uint8"
        },
        {
          "internalType": "uint256",
          "name": "requiredStake",
          "type": "uint256"
        },
        {
          "internalType": "uint256",
          "name": "forVotes",
          "type": "uint256"
        },
        {
          "internalType": "uint256",
          "name": "againstVotes",
          "type": "uint256"
        },
        {
          "internalType": "bool",
          "name": "executed",
          "type": "bool"
        }
      ],
      "stateMutability": "view",
      "type": "function"
    },
    {
      "inputs": [
        {
          "internalType": "bytes32",
          "name": "role",
          "type": "bytes32"
        },
        {
          "internalType": "address",
          "name": "account",
          "type": "address"
        }
      ],
      "name": "renounceRole",
      "outputs": [],
      "stateMutability": "nonpayable",
      "type": "function"
    },
    {
      "inputs": [
        {
          "internalType": "bytes32",
          "name": "role",
          "type": "bytes32"
        },
        {
          "internalType": "address",
          "name": "account",
          "type": "address"
        }
      ],
      "name": "revokeRole",
      "outputs": [],
      "stateMutability": "nonpayable",
      "type": "function"
    },
    {
      "inputs": [
        {
          "internalType": "bytes4",
          "name": "interfaceId",
          "type": "bytes4"
        }
      ],
      "name": "supportsInterface",
      "outputs": [
        {
          "internalType": "bool",
          "name": "",
          "type": "bool"
        }
      ],
      "stateMutability": "view",
      "type": "function"
    },
    {
      "inputs": [
        {
          "internalType": "address",
          "name": "user",
          "type": "address"
        },
        {
          "internalType": "enum XAOGovernance.Domain",
          "name": "domain",
          "type": "uint8"
        },
        {
          "internalType": "uint256",
          "name": "amount",
          "type": "uint256"
        }
      ],
      "name": "updateDomainReputation",
      "outputs": [],
      "stateMutability": "nonpayable",
      "type": "function"
    },
    {
      "inputs": [],
      "name": "xaoStaking",
      "outputs": [
        {
          "internalType": "contract XAOStaking",
          "name": "",
          "type": "address"
        }
      ],
      "stateMutability": "view",
      "type": "function"
    },
    {
      "inputs": [],
      "name": "xaoToken",
      "outputs": [
        {
          "internalType": "contract XAOToken",
          "name": "",
          "type": "address"
        }
      ],
      "stateMutability": "view",
      "type": "function"
    }
  ],
  "bytecode": "0x60806040523480156200001157600080fd5b5060405162001b7138038062001b71833981016040819052620000349162000261565b60018055600280546001600160a01b038085166001600160a01b03199283161790925560038054928416929091169190911790556200007560003362000149565b6200009060008051602062001b518339815191523362000149565b620000cb7fb09aa5aeb3702cfd50b6b62bc4532604938f21248a27a1d5ca736082b6819cc160008051602062001b5183398151915262000159565b620001067fd8aa0f3194971a2a116679f7c2090f6939c8d4e01a2a8d7e41d55e5351469e6360008051602062001b5183398151915262000159565b620001417fe1dcbdb91df27212a29bc27177c840cf2f819ecf2187432e1fac86c2dd5dfca960008051602062001b5183398151915262000159565b505062000299565b620001558282620001a4565b5050565b600082815260208190526040808220600101805490849055905190918391839186917fbd79b86ffe0ab8e8776151514217cd7cacd52c909f66475c3af44e129f0b00ff9190a4505050565b6000828152602081815260408083206001600160a01b038516845290915290205460ff1662000155576000828152602081815260408083206001600160a01b03851684529091529020805460ff19166001179055620002003390565b6001600160a01b0316816001600160a01b0316837f2f8788117e7eff1d82e926ec794901d17c78024a50270940304540a733656f0d60405160405180910390a45050565b80516001600160a01b03811681146200025c57600080fd5b919050565b600080604083850312156200027557600080fd5b620002808362000244565b9150620002906020840162000244565b90509250929050565b6118a880620002a96000396000f3fe608060405234801561001057600080fd5b50600436106101585760003560e01c80637cb008c0116100c3578063b1610d7e1161007c578063b1610d7e14610354578063c7f758a81461035e578063d11a57ec14610384578063d1c29a29146103ab578063d547741f146103be578063da35c664146103d157600080fd5b80637cb008c0146102cc5780638f61f4f5146102f757806391d148541461031e57806395b144e414610331578063a217fddf14610344578063a4d52dd51461034c57600080fd5b80632f2ff15d116101155780632f2ff15d1461023157806336568abe146102445780633ffc7cff146102575780636e6a62631461026a5780636f9169501461027a57806375b238fc146102a557600080fd5b8063013cf08b1461015d57806301ffc9a71461018e57806307bd0265146101b15780630d61b519146101e657806315373e3d146101fb578063248a9ca31461020e575b600080fd5b61017061016b366004611230565b6103da565b604051610185999897969594939291906112d1565b60405180910390f35b6101a161019c36600461133c565b6104bd565b6040519015158152602001610185565b6101d87fd8aa0f3194971a2a116679f7c2090f6939c8d4e01a2a8d7e41d55e5351469e6381565b604051908152602001610185565b6101f96101f4366004611230565b6104f4565b005b6101f9610209366004611374565b61070d565b6101d861021c366004611230565b60009081526020819052604090206001015490565b6101f961023f3660046113c0565b6108ad565b6101f96102523660046113c0565b6108d7565b6101f96102653660046113fb565b610955565b6101d8683635c9adc5dea0000081565b6101d8610288366004611437565b600660209081526000928352604080842090915290825290205481565b6101d87fa49807205ce4d355092ef5a8a18f56e8913cf4a201fbe287825b095693c2177581565b6002546102df906001600160a01b031681565b6040516001600160a01b039091168152602001610185565b6101d87fb09aa5aeb3702cfd50b6b62bc4532604938f21248a27a1d5ca736082b6819cc181565b6101a161032c3660046113c0565b610a17565b6003546102df906001600160a01b031681565b6101d8600081565b6101d860a081565b6101d862093a8081565b61037161036c366004611230565b610a40565b6040516101859796959493929190611461565b6101d87fe1dcbdb91df27212a29bc27177c840cf2f819ecf2187432e1fac86c2dd5dfca981565b6101d86103b93660046114cf565b610b40565b6101f96103cc3660046113c0565b610dd9565b6101d860045481565b6005602052600090815260409020805481906103f590611588565b80601f016020809104026020016040519081016040528092919081815260200182805461042190611588565b801561046e5780601f106104435761010080835404028352916020019161046e565b820191906000526020600020905b81548152906001019060200180831161045157829003601f168201915b505050600184015460028501546003860154600487015460058801546006890154600790990154979894979396506001600160a01b038316955060ff600160a01b909304831694919390921689565b60006001600160e01b03198216637965db0b60e01b14806104ee57506301ffc9a760e01b6001600160e01b03198316145b92915050565b7fd8aa0f3194971a2a116679f7c2090f6939c8d4e01a2a8d7e41d55e5351469e6361051e81610dfe565b600082815260056020526040902060028101544210156105785760405162461bcd60e51b815260206004820152601060248201526f159bdd1a5b99c81b9bdd08195b99195960821b60448201526064015b60405180910390fd5b600781015460ff16156105c05760405162461bcd60e51b815260206004820152601060248201526f105b1c9958591e48195e1958dd5d195960821b604482015260640161056f565b806006015481600501541161060b5760405162461bcd60e51b8152602060048201526011602482015270141c9bdc1bdcd85b081c995a9958dd1959607a1b604482015260640161056f565b60078101805460ff19166001179055600254600382015460048084015460405163a9059cbb60e01b81526001600160a01b0393841692810192909252602482015291169063a9059cbb906044016020604051808303816000875af1158015610677573d6000803e3d6000fd5b505050506040513d601f19601f8201168201806040525081019061069b91906115c2565b6106dd5760405162461bcd60e51b815260206004820152601360248201527214dd185ad9481c995d1d5c9b8819985a5b1959606a1b604482015260640161056f565b60405183907f712ae1383f79ac853f8d882153778e0260ef8f03b504e2866e0593e04d2b291f90600090a2505050565b60008281526005602052604090206002810154421061075d5760405162461bcd60e51b815260206004820152600c60248201526b159bdd1a5b99c8195b99195960a21b604482015260640161056f565b33600090815260088201602052604090205460ff16156107af5760405162461bcd60e51b815260206004820152600d60248201526c105b1c9958591e481d9bdd1959609a1b604482015260640161056f565b60006107cc338360030160149054906101000a900460ff16610e0b565b9050600081116108105760405162461bcd60e51b815260206004820152600f60248201526e2737903b37ba34b733903837bbb2b960891b604482015260640161056f565b821561082f5760058201546108259082610f10565b6005830155610844565b600682015461083e9082610f10565b60068301555b33600081815260088401602052604090819020805460ff191660011790555185907fcbdf6214089cba887ecbf35a0b6a734589959c9763342c756bb2a80ca2bc9f6e9061089f90879086909115158252602082015260400190565b60405180910390a350505050565b6000828152602081905260409020600101546108c881610dfe565b6108d28383610f1c565b505050565b6001600160a01b03811633146109475760405162461bcd60e51b815260206004820152602f60248201527f416363657373436f6e74726f6c3a2063616e206f6e6c792072656e6f756e636560448201526e103937b632b9903337b91039b2b63360891b606482015260840161056f565b6109518282610fa0565b5050565b7fa49807205ce4d355092ef5a8a18f56e8913cf4a201fbe287825b095693c2177561097f81610dfe565b6001600160a01b038416600090815260066020526040812083918560048111156109ab576109ab611299565b60048111156109bc576109bc611299565b815260200190815260200160002081905550836001600160a01b03167f995530532fa39be47c44313305a15cb6a5d78c5d8b1d963ce7dbff2e105250ec8484604051610a099291906115df565b60405180910390a250505050565b6000918252602082815260408084206001600160a01b0393909316845291905290205460ff1690565b60008181526005602081905260408220600281015460038201549282015460068301546007840154845460609796879687968796879687969395869593946001600160a01b0385169460ff600160a01b90910481169493929116908790610aa690611588565b80601f0160208091040260200160405190810160405280929190818152602001828054610ad290611588565b8015610b1f5780601f10610af457610100808354040283529160200191610b1f565b820191906000526020600020905b815481529060010190602001808311610b0257829003601f168201915b50505050509650975097509750975097509750975050919395979092949650565b60007fb09aa5aeb3702cfd50b6b62bc4532604938f21248a27a1d5ca736082b6819cc1610b6c81610dfe565b6002546040516370a0823160e01b8152336004820152683635c9adc5dea00000916001600160a01b0316906370a0823190602401602060405180830381865afa158015610bbd573d6000803e3d6000fd5b505050506040513d601f19601f82011682018060405250810190610be191906115fa565b1015610c245760405162461bcd60e51b8152602060048201526012602482015271496e73756666696369656e74207374616b6560701b604482015260640161056f565b6004805460009182610c3583611629565b90915550600081815260056020526040902090915080610c558782611690565b504260018201819055610c6c9062093a8090611750565b6002820155600381018054336001600160a01b03198216811783558792916001600160a81b03191660ff60a01b1990911617600160a01b836004811115610cb557610cb5611299565b0217905550683635c9adc5dea0000060048281018290556002546040516323b872dd60e01b8152339281019290925230602483015260448201929092526001600160a01b03909116906323b872dd906064016020604051808303816000875af1158015610d26573d6000803e3d6000fd5b505050506040513d601f19601f82011682018060405250810190610d4a91906115c2565b610d8e5760405162461bcd60e51b815260206004820152601560248201527414dd185ad9481d1c985b9cd9995c8819985a5b1959605a1b604482015260640161056f565b336001600160a01b0316827f876b000c101c27e7aaff6a3254ea503d0e9bf516112d43803bd82989b135523587604051610dc89190611763565b60405180910390a350949350505050565b600082815260208190526040902060010154610df481610dfe565b6108d28383610fa0565b610e088133611005565b50565b600354604051635da6a21b60e11b81526001600160a01b038481166004830152600092839291169063bb4d443690602401602060405180830381865afa158015610e59573d6000803e3d6000fd5b505050506040513d601f19601f82011682018060405250810190610e7d91906115fa565b6001600160a01b03851660009081526006602052604081209192509081856004811115610eac57610eac611299565b6004811115610ebd57610ebd611299565b8152602001908152602001600020541115610f09576000610ef46064610eee610ee760a08361105e565b859061106a565b90611076565b9050610f008282610f10565b925050506104ee565b9392505050565b6000610f098284611750565b610f268282610a17565b610951576000828152602081815260408083206001600160a01b03851684529091529020805460ff19166001179055610f5c3390565b6001600160a01b0316816001600160a01b0316837f2f8788117e7eff1d82e926ec794901d17c78024a50270940304540a733656f0d60405160405180910390a45050565b610faa8282610a17565b15610951576000828152602081815260408083206001600160a01b0385168085529252808320805460ff1916905551339285917ff6391f5c32d9c69d2a47ea670b442974b53935d1edc7fd64eb21e047a839171b9190a45050565b61100f8282610a17565b6109515761101c81611082565b611027836020611094565b604051602001611038929190611771565b60408051601f198184030181529082905262461bcd60e51b825261056f916004016117e6565b6000610f0982846117f9565b6000610f09828461180c565b6000610f098284611823565b60606104ee6001600160a01b03831660145b606060006110a383600261180c565b6110ae906002611750565b67ffffffffffffffff8111156110c6576110c66114b9565b6040519080825280601f01601f1916602001820160405280156110f0576020820181803683370190505b509050600360fc1b8160008151811061110b5761110b611845565b60200101906001600160f81b031916908160001a905350600f60fb1b8160018151811061113a5761113a611845565b60200101906001600160f81b031916908160001a905350600061115e84600261180c565b611169906001611750565b90505b60018111156111e1576f181899199a1a9b1b9c1cb0b131b232b360811b85600f166010811061119d5761119d611845565b1a60f81b8282815181106111b3576111b3611845565b60200101906001600160f81b031916908160001a90535060049490941c936111da8161185b565b905061116c565b508315610f095760405162461bcd60e51b815260206004820181905260248201527f537472696e67733a20686578206c656e67746820696e73756666696369656e74604482015260640161056f565b60006020828403121561124257600080fd5b5035919050565b60005b8381101561126457818101518382015260200161124c565b50506000910152565b60008151808452611285816020860160208601611249565b601f01601f19169290920160200192915050565b634e487b7160e01b600052602160045260246000fd5b600581106112cd57634e487b7160e01b600052602160045260246000fd5b9052565b60006101208083526112e58184018d61126d565b602084018c9052604084018b90526001600160a01b038a1660608501529150611313905060808301886112af565b8560a08301528460c08301528360e08301528215156101008301529a9950505050505050505050565b60006020828403121561134e57600080fd5b81356001600160e01b031981168114610f0957600080fd5b8015158114610e0857600080fd5b6000806040838503121561138757600080fd5b82359150602083013561139981611366565b809150509250929050565b80356001600160a01b03811681146113bb57600080fd5b919050565b600080604083850312156113d357600080fd5b823591506113e3602084016113a4565b90509250929050565b8035600581106113bb57600080fd5b60008060006060848603121561141057600080fd5b611419846113a4565b9250611427602085016113ec565b9150604084013590509250925092565b6000806040838503121561144a57600080fd5b611453836113a4565b91506113e3602084016113ec565b60e08152600061147460e083018a61126d565b602083018990526001600160a01b0388166040840152905061149960608301876112af565b8460808301528360a083015282151560c083015298975050505050505050565b634e487b7160e01b600052604160045260246000fd5b600080604083850312156114e257600080fd5b823567ffffffffffffffff808211156114fa57600080fd5b818501915085601f83011261150e57600080fd5b813581811115611520576115206114b9565b604051601f8201601f19908116603f01168101908382118183101715611548576115486114b9565b8160405282815288602084870101111561156157600080fd5b8260208601602083013760006020848301015280965050505050506113e3602084016113ec565b600181811c9082168061159c57607f821691505b6020821081036115bc57634e487b7160e01b600052602260045260246000fd5b50919050565b6000602082840312156115d457600080fd5b8151610f0981611366565b604081016115ed82856112af565b8260208301529392505050565b60006020828403121561160c57600080fd5b5051919050565b634e487b7160e01b600052601160045260246000fd5b60006001820161163b5761163b611613565b5060010190565b601f8211156108d257600081815260208120601f850160051c810160208610156116695750805b601f850160051c820191505b8181101561168857828155600101611675565b505050505050565b815167ffffffffffffffff8111156116aa576116aa6114b9565b6116be816116b88454611588565b84611642565b602080601f8311600181146116f357600084156116db5750858301515b600019600386901b1c1916600185901b178555611688565b600085815260208120601f198616915b8281101561172257888601518255948401946001909101908401611703565b50858210156117405787850151600019600388901b60f8161c191681555b5050505050600190811b01905550565b808201808211156104ee576104ee611613565b602081016104ee82846112af565b7f416363657373436f6e74726f6c3a206163636f756e74200000000000000000008152600083516117a9816017850160208801611249565b7001034b99036b4b9b9b4b733903937b6329607d1b60179184019182015283516117da816028840160208801611249565b01602801949350505050565b602081526000610f09602083018461126d565b818103818111156104ee576104ee611613565b80820281158282048414176104ee576104ee611613565b60008261184057634e487b7160e01b600052601260045260246000fd5b500490565b634e487b7160e01b600052603260045260246000fd5b60008161186a5761186a611613565b50600019019056fea2646970667358221220b2433d9d5915ef1cdb5150f33d1d9a40b814832484fb3c7b9dc978eab23bc14764736f6c63430008130033a49807205ce4d355092ef5a8a18f56e8913cf4a201fbe287825b095693c21775",
  "linkReferences": {},
  "deployedLinkReferences": {}
}